{
	"Assignments/week 4/lct 2/contracts/Escrow.sol": {
		"Escrow": {
			"abi": [
				{
					"inputs": [
						{
							"internalType": "address",
							"name": "_arbiter",
							"type": "address"
						}
					],
					"stateMutability": "nonpayable",
					"type": "constructor"
				},
				{
					"inputs": [],
					"name": "arbiter",
					"outputs": [
						{
							"internalType": "address",
							"name": "",
							"type": "address"
						}
					],
					"stateMutability": "view",
					"type": "function"
				},
				{
					"inputs": [],
					"name": "buyTheContractFor0_003ETH",
					"outputs": [],
					"stateMutability": "payable",
					"type": "function"
				},
				{
					"inputs": [],
					"name": "buyer",
					"outputs": [
						{
							"internalType": "address",
							"name": "",
							"type": "address"
						}
					],
					"stateMutability": "view",
					"type": "function"
				},
				{
					"inputs": [],
					"name": "getBalance",
					"outputs": [
						{
							"internalType": "uint256",
							"name": "",
							"type": "uint256"
						}
					],
					"stateMutability": "view",
					"type": "function"
				},
				{
					"inputs": [],
					"name": "interest",
					"outputs": [
						{
							"internalType": "bool",
							"name": "",
							"type": "bool"
						}
					],
					"stateMutability": "view",
					"type": "function"
				},
				{
					"inputs": [],
					"name": "isFunded",
					"outputs": [
						{
							"internalType": "bool",
							"name": "",
							"type": "bool"
						}
					],
					"stateMutability": "view",
					"type": "function"
				},
				{
					"inputs": [],
					"name": "isReleased",
					"outputs": [
						{
							"internalType": "bool",
							"name": "",
							"type": "bool"
						}
					],
					"stateMutability": "view",
					"type": "function"
				},
				{
					"inputs": [],
					"name": "noLongerInterested",
					"outputs": [],
					"stateMutability": "nonpayable",
					"type": "function"
				},
				{
					"inputs": [],
					"name": "owner",
					"outputs": [
						{
							"internalType": "address",
							"name": "",
							"type": "address"
						}
					],
					"stateMutability": "view",
					"type": "function"
				},
				{
					"inputs": [],
					"name": "prevOwner",
					"outputs": [
						{
							"internalType": "address",
							"name": "",
							"type": "address"
						}
					],
					"stateMutability": "view",
					"type": "function"
				},
				{
					"inputs": [],
					"name": "price",
					"outputs": [
						{
							"internalType": "uint256",
							"name": "",
							"type": "uint256"
						}
					],
					"stateMutability": "view",
					"type": "function"
				},
				{
					"inputs": [],
					"name": "refundBuyer",
					"outputs": [],
					"stateMutability": "nonpayable",
					"type": "function"
				},
				{
					"inputs": [],
					"name": "releaseFunds",
					"outputs": [],
					"stateMutability": "nonpayable",
					"type": "function"
				},
				{
					"inputs": [],
					"name": "sellEscrowContract",
					"outputs": [],
					"stateMutability": "nonpayable",
					"type": "function"
				},
				{
					"inputs": [
						{
							"internalType": "uint256",
							"name": "_price",
							"type": "uint256"
						}
					],
					"name": "setPrice",
					"outputs": [],
					"stateMutability": "nonpayable",
					"type": "function"
				},
				{
					"inputs": [],
					"name": "stillInterested",
					"outputs": [],
					"stateMutability": "nonpayable",
					"type": "function"
				}
			],
			"devdoc": {
				"kind": "dev",
				"methods": {},
				"version": 1
			},
			"evm": {
				"assembly": "    /* \"Assignments/week 4/lct 2/contracts/Escrow.sol\":58:2758  contract Escrow {... */\n  mstore(0x40, 0x80)\n    /* \"Assignments/week 4/lct 2/contracts/Escrow.sol\":329:422  constructor(address _arbiter) {... */\n  callvalue\n  dup1\n  iszero\n  tag_1\n  jumpi\n  revert(0x00, 0x00)\ntag_1:\n  pop\n  mload(0x40)\n  sub(codesize, bytecodeSize)\n  dup1\n  bytecodeSize\n  dup4\n  codecopy\n  dup2\n  dup2\n  add\n  0x40\n  mstore\n  dup2\n  add\n  swap1\n  tag_2\n  swap2\n  swap1\n  tag_3\n  jump\t// in\ntag_2:\n    /* \"Assignments/week 4/lct 2/contracts/Escrow.sol\":377:387  msg.sender */\n  caller\n    /* \"Assignments/week 4/lct 2/contracts/Escrow.sol\":369:374  owner */\n  0x03\n  dup1\n    /* \"Assignments/week 4/lct 2/contracts/Escrow.sol\":369:387  owner = msg.sender */\n  0x0100\n  exp\n  dup2\n  sload\n  dup2\n  0xffffffffffffffffffffffffffffffffffffffff\n  mul\n  not\n  and\n  swap1\n  dup4\n  0xffffffffffffffffffffffffffffffffffffffff\n  and\n  mul\n  or\n  swap1\n  sstore\n  pop\n    /* \"Assignments/week 4/lct 2/contracts/Escrow.sol\":407:415  _arbiter */\n  dup1\n    /* \"Assignments/week 4/lct 2/contracts/Escrow.sol\":397:404  arbiter */\n  0x01\n  0x00\n    /* \"Assignments/week 4/lct 2/contracts/Escrow.sol\":397:415  arbiter = _arbiter */\n  0x0100\n  exp\n  dup2\n  sload\n  dup2\n  0xffffffffffffffffffffffffffffffffffffffff\n  mul\n  not\n  and\n  swap1\n  dup4\n  0xffffffffffffffffffffffffffffffffffffffff\n  and\n  mul\n  or\n  swap1\n  sstore\n  pop\n    /* \"Assignments/week 4/lct 2/contracts/Escrow.sol\":329:422  constructor(address _arbiter) {... */\n  pop\n    /* \"Assignments/week 4/lct 2/contracts/Escrow.sol\":58:2758  contract Escrow {... */\n  jump(tag_6)\n    /* \"#utility.yul\":88:205   */\ntag_8:\n    /* \"#utility.yul\":197:198   */\n  0x00\n    /* \"#utility.yul\":194:195   */\n  0x00\n    /* \"#utility.yul\":187:199   */\n  revert\n    /* \"#utility.yul\":334:460   */\ntag_10:\n    /* \"#utility.yul\":371:378   */\n  0x00\n    /* \"#utility.yul\":411:453   */\n  0xffffffffffffffffffffffffffffffffffffffff\n    /* \"#utility.yul\":404:409   */\n  dup3\n    /* \"#utility.yul\":400:454   */\n  and\n    /* \"#utility.yul\":389:454   */\n  swap1\n  pop\n    /* \"#utility.yul\":334:460   */\n  swap2\n  swap1\n  pop\n  jump\t// out\n    /* \"#utility.yul\":466:562   */\ntag_11:\n    /* \"#utility.yul\":503:510   */\n  0x00\n    /* \"#utility.yul\":532:556   */\n  tag_20\n    /* \"#utility.yul\":550:555   */\n  dup3\n    /* \"#utility.yul\":532:556   */\n  tag_10\n  jump\t// in\ntag_20:\n    /* \"#utility.yul\":521:556   */\n  swap1\n  pop\n    /* \"#utility.yul\":466:562   */\n  swap2\n  swap1\n  pop\n  jump\t// out\n    /* \"#utility.yul\":568:690   */\ntag_12:\n    /* \"#utility.yul\":641:665   */\n  tag_22\n    /* \"#utility.yul\":659:664   */\n  dup2\n    /* \"#utility.yul\":641:665   */\n  tag_11\n  jump\t// in\ntag_22:\n    /* \"#utility.yul\":634:639   */\n  dup2\n    /* \"#utility.yul\":631:666   */\n  eq\n    /* \"#utility.yul\":621:684   */\n  tag_23\n  jumpi\n    /* \"#utility.yul\":680:681   */\n  0x00\n    /* \"#utility.yul\":677:678   */\n  0x00\n    /* \"#utility.yul\":670:682   */\n  revert\n    /* \"#utility.yul\":621:684   */\ntag_23:\n    /* \"#utility.yul\":568:690   */\n  pop\n  jump\t// out\n    /* \"#utility.yul\":696:839   */\ntag_13:\n    /* \"#utility.yul\":753:758   */\n  0x00\n    /* \"#utility.yul\":784:790   */\n  dup2\n    /* \"#utility.yul\":778:791   */\n  mload\n    /* \"#utility.yul\":769:791   */\n  swap1\n  pop\n    /* \"#utility.yul\":800:833   */\n  tag_25\n    /* \"#utility.yul\":827:832   */\n  dup2\n    /* \"#utility.yul\":800:833   */\n  tag_12\n  jump\t// in\ntag_25:\n    /* \"#utility.yul\":696:839   */\n  swap3\n  swap2\n  pop\n  pop\n  jump\t// out\n    /* \"#utility.yul\":845:1196   */\ntag_3:\n    /* \"#utility.yul\":915:921   */\n  0x00\n    /* \"#utility.yul\":964:966   */\n  0x20\n    /* \"#utility.yul\":952:961   */\n  dup3\n    /* \"#utility.yul\":943:950   */\n  dup5\n    /* \"#utility.yul\":939:962   */\n  sub\n    /* \"#utility.yul\":935:967   */\n  slt\n    /* \"#utility.yul\":932:1051   */\n  iszero\n  tag_27\n  jumpi\n    /* \"#utility.yul\":970:1049   */\n  tag_28\n  tag_8\n  jump\t// in\ntag_28:\n    /* \"#utility.yul\":932:1051   */\ntag_27:\n    /* \"#utility.yul\":1090:1091   */\n  0x00\n    /* \"#utility.yul\":1115:1179   */\n  tag_29\n    /* \"#utility.yul\":1171:1178   */\n  dup5\n    /* \"#utility.yul\":1162:1168   */\n  dup3\n    /* \"#utility.yul\":1151:1160   */\n  dup6\n    /* \"#utility.yul\":1147:1169   */\n  add\n    /* \"#utility.yul\":1115:1179   */\n  tag_13\n  jump\t// in\ntag_29:\n    /* \"#utility.yul\":1105:1179   */\n  swap2\n  pop\n    /* \"#utility.yul\":1061:1189   */\n  pop\n    /* \"#utility.yul\":845:1196   */\n  swap3\n  swap2\n  pop\n  pop\n  jump\t// out\n    /* \"Assignments/week 4/lct 2/contracts/Escrow.sol\":58:2758  contract Escrow {... */\ntag_6:\n  dataSize(sub_0)\n  dup1\n  dataOffset(sub_0)\n  0x00\n  codecopy\n  0x00\n  return\nstop\n\nsub_0: assembly {\n        /* \"Assignments/week 4/lct 2/contracts/Escrow.sol\":58:2758  contract Escrow {... */\n      mstore(0x40, 0x80)\n      jumpi(tag_1, lt(calldatasize, 0x04))\n      shr(0xe0, calldataload(0x00))\n      dup1\n      0x91b7f5ed\n      gt\n      tag_18\n      jumpi\n      dup1\n      0xdffe7bbc\n      gt\n      tag_19\n      jumpi\n      dup1\n      0xdffe7bbc\n      eq\n      tag_14\n      jumpi\n      dup1\n      0xe8a61cc8\n      eq\n      tag_15\n      jumpi\n      dup1\n      0xfa2a8997\n      eq\n      tag_16\n      jumpi\n      dup1\n      0xfe25e00a\n      eq\n      tag_17\n      jumpi\n      jump(tag_1)\n    tag_19:\n      dup1\n      0x91b7f5ed\n      eq\n      tag_10\n      jumpi\n      dup1\n      0xa035b1fe\n      eq\n      tag_11\n      jumpi\n      dup1\n      0xc392f766\n      eq\n      tag_12\n      jumpi\n      dup1\n      0xde7c62a8\n      eq\n      tag_13\n      jumpi\n      jump(tag_1)\n    tag_18:\n      dup1\n      0x7c654303\n      gt\n      tag_20\n      jumpi\n      dup1\n      0x7c654303\n      eq\n      tag_6\n      jumpi\n      dup1\n      0x7cce2668\n      eq\n      tag_7\n      jumpi\n      dup1\n      0x8da5cb5b\n      eq\n      tag_8\n      jumpi\n      dup1\n      0x9086e838\n      eq\n      tag_9\n      jumpi\n      jump(tag_1)\n    tag_20:\n      dup1\n      0x12065fe0\n      eq\n      tag_2\n      jumpi\n      dup1\n      0x2c23f7f8\n      eq\n      tag_3\n      jumpi\n      dup1\n      0x69d89575\n      eq\n      tag_4\n      jumpi\n      dup1\n      0x7150d8ae\n      eq\n      tag_5\n      jumpi\n    tag_1:\n      revert(0x00, 0x00)\n        /* \"Assignments/week 4/lct 2/contracts/Escrow.sol\":2657:2756  function getBalance() external view returns (uint256) {... */\n    tag_2:\n      callvalue\n      dup1\n      iszero\n      tag_21\n      jumpi\n      revert(0x00, 0x00)\n    tag_21:\n      pop\n      tag_22\n      tag_23\n      jump\t// in\n    tag_22:\n      mload(0x40)\n      tag_24\n      swap2\n      swap1\n      tag_25\n      jump\t// in\n    tag_24:\n      mload(0x40)\n      dup1\n      swap2\n      sub\n      swap1\n      return\n        /* \"Assignments/week 4/lct 2/contracts/Escrow.sol\":664:1270  function buyTheContractFor0_003ETH() public payable {... */\n    tag_3:\n      tag_26\n      tag_27\n      jump\t// in\n    tag_26:\n      stop\n        /* \"Assignments/week 4/lct 2/contracts/Escrow.sol\":1972:2420  function releaseFunds() external onlyArbiter {... */\n    tag_4:\n      callvalue\n      dup1\n      iszero\n      tag_28\n      jumpi\n      revert(0x00, 0x00)\n    tag_28:\n      pop\n      tag_29\n      tag_30\n      jump\t// in\n    tag_29:\n      stop\n        /* \"Assignments/week 4/lct 2/contracts/Escrow.sol\":110:130  address public buyer */\n    tag_5:\n      callvalue\n      dup1\n      iszero\n      tag_31\n      jumpi\n      revert(0x00, 0x00)\n    tag_31:\n      pop\n      tag_32\n      tag_33\n      jump\t// in\n    tag_32:\n      mload(0x40)\n      tag_34\n      swap2\n      swap1\n      tag_35\n      jump\t// in\n    tag_34:\n      mload(0x40)\n      dup1\n      swap2\n      sub\n      swap1\n      return\n        /* \"Assignments/week 4/lct 2/contracts/Escrow.sol\":190:210  bool public isFunded */\n    tag_6:\n      callvalue\n      dup1\n      iszero\n      tag_36\n      jumpi\n      revert(0x00, 0x00)\n    tag_36:\n      pop\n      tag_37\n      tag_38\n      jump\t// in\n    tag_37:\n      mload(0x40)\n      tag_39\n      swap2\n      swap1\n      tag_40\n      jump\t// in\n    tag_39:\n      mload(0x40)\n      dup1\n      swap2\n      sub\n      swap1\n      return\n        /* \"Assignments/week 4/lct 2/contracts/Escrow.sol\":1276:1416  function stillInterested ()  public {... */\n    tag_7:\n      callvalue\n      dup1\n      iszero\n      tag_41\n      jumpi\n      revert(0x00, 0x00)\n    tag_41:\n      pop\n      tag_42\n      tag_43\n      jump\t// in\n    tag_42:\n      stop\n        /* \"Assignments/week 4/lct 2/contracts/Escrow.sol\":272:292  address public owner */\n    tag_8:\n      callvalue\n      dup1\n      iszero\n      tag_44\n      jumpi\n      revert(0x00, 0x00)\n    tag_44:\n      pop\n      tag_45\n      tag_46\n      jump\t// in\n    tag_45:\n      mload(0x40)\n      tag_47\n      swap2\n      swap1\n      tag_35\n      jump\t// in\n    tag_47:\n      mload(0x40)\n      dup1\n      swap2\n      sub\n      swap1\n      return\n        /* \"Assignments/week 4/lct 2/contracts/Escrow.sol\":1421:1565  function noLongerInterested ()  public {... */\n    tag_9:\n      callvalue\n      dup1\n      iszero\n      tag_48\n      jumpi\n      revert(0x00, 0x00)\n    tag_48:\n      pop\n      tag_49\n      tag_50\n      jump\t// in\n    tag_49:\n      stop\n        /* \"Assignments/week 4/lct 2/contracts/Escrow.sol\":1641:1723  function setPrice(uint256 _price) public onlyOwner {... */\n    tag_10:\n      callvalue\n      dup1\n      iszero\n      tag_51\n      jumpi\n      revert(0x00, 0x00)\n    tag_51:\n      pop\n      tag_52\n      0x04\n      dup1\n      calldatasize\n      sub\n      dup2\n      add\n      swap1\n      tag_53\n      swap2\n      swap1\n      tag_54\n      jump\t// in\n    tag_53:\n      tag_55\n      jump\t// in\n    tag_52:\n      stop\n        /* \"Assignments/week 4/lct 2/contracts/Escrow.sol\":164:184  uint256 public price */\n    tag_11:\n      callvalue\n      dup1\n      iszero\n      tag_56\n      jumpi\n      revert(0x00, 0x00)\n    tag_56:\n      pop\n      tag_57\n      tag_58\n      jump\t// in\n    tag_57:\n      mload(0x40)\n      tag_59\n      swap2\n      swap1\n      tag_25\n      jump\t// in\n    tag_59:\n      mload(0x40)\n      dup1\n      swap2\n      sub\n      swap1\n      return\n        /* \"Assignments/week 4/lct 2/contracts/Escrow.sol\":245:265  bool public interest */\n    tag_12:\n      callvalue\n      dup1\n      iszero\n      tag_60\n      jumpi\n      revert(0x00, 0x00)\n    tag_60:\n      pop\n      tag_61\n      tag_62\n      jump\t// in\n    tag_61:\n      mload(0x40)\n      tag_63\n      swap2\n      swap1\n      tag_40\n      jump\t// in\n    tag_63:\n      mload(0x40)\n      dup1\n      swap2\n      sub\n      swap1\n      return\n        /* \"Assignments/week 4/lct 2/contracts/Escrow.sol\":1729:1966  function sellEscrowContract() public onlyOwner {... */\n    tag_13:\n      callvalue\n      dup1\n      iszero\n      tag_64\n      jumpi\n      revert(0x00, 0x00)\n    tag_64:\n      pop\n      tag_65\n      tag_66\n      jump\t// in\n    tag_65:\n      stop\n        /* \"Assignments/week 4/lct 2/contracts/Escrow.sol\":298:322  address public prevOwner */\n    tag_14:\n      callvalue\n      dup1\n      iszero\n      tag_67\n      jumpi\n      revert(0x00, 0x00)\n    tag_67:\n      pop\n      tag_68\n      tag_69\n      jump\t// in\n    tag_68:\n      mload(0x40)\n      tag_70\n      swap2\n      swap1\n      tag_35\n      jump\t// in\n    tag_70:\n      mload(0x40)\n      dup1\n      swap2\n      sub\n      swap1\n      return\n        /* \"Assignments/week 4/lct 2/contracts/Escrow.sol\":2426:2651  function refundBuyer() external onlyArbiter {... */\n    tag_15:\n      callvalue\n      dup1\n      iszero\n      tag_71\n      jumpi\n      revert(0x00, 0x00)\n    tag_71:\n      pop\n      tag_72\n      tag_73\n      jump\t// in\n    tag_72:\n      stop\n        /* \"Assignments/week 4/lct 2/contracts/Escrow.sol\":216:238  bool public isReleased */\n    tag_16:\n      callvalue\n      dup1\n      iszero\n      tag_74\n      jumpi\n      revert(0x00, 0x00)\n    tag_74:\n      pop\n      tag_75\n      tag_76\n      jump\t// in\n    tag_75:\n      mload(0x40)\n      tag_77\n      swap2\n      swap1\n      tag_40\n      jump\t// in\n    tag_77:\n      mload(0x40)\n      dup1\n      swap2\n      sub\n      swap1\n      return\n        /* \"Assignments/week 4/lct 2/contracts/Escrow.sol\":136:158  address public arbiter */\n    tag_17:\n      callvalue\n      dup1\n      iszero\n      tag_78\n      jumpi\n      revert(0x00, 0x00)\n    tag_78:\n      pop\n      tag_79\n      tag_80\n      jump\t// in\n    tag_79:\n      mload(0x40)\n      tag_81\n      swap2\n      swap1\n      tag_35\n      jump\t// in\n    tag_81:\n      mload(0x40)\n      dup1\n      swap2\n      sub\n      swap1\n      return\n        /* \"Assignments/week 4/lct 2/contracts/Escrow.sol\":2657:2756  function getBalance() external view returns (uint256) {... */\n    tag_23:\n        /* \"Assignments/week 4/lct 2/contracts/Escrow.sol\":2702:2709  uint256 */\n      0x00\n        /* \"Assignments/week 4/lct 2/contracts/Escrow.sol\":2728:2749  address(this).balance */\n      selfbalance\n        /* \"Assignments/week 4/lct 2/contracts/Escrow.sol\":2721:2749  return address(this).balance */\n      swap1\n      pop\n        /* \"Assignments/week 4/lct 2/contracts/Escrow.sol\":2657:2756  function getBalance() external view returns (uint256) {... */\n      swap1\n      jump\t// out\n        /* \"Assignments/week 4/lct 2/contracts/Escrow.sol\":664:1270  function buyTheContractFor0_003ETH() public payable {... */\n    tag_27:\n        /* \"Assignments/week 4/lct 2/contracts/Escrow.sol\":745:750  owner */\n      0x03\n      dup1\n      sload\n      swap1\n      0x0100\n      exp\n      swap1\n      div\n      0xffffffffffffffffffffffffffffffffffffffff\n      and\n        /* \"Assignments/week 4/lct 2/contracts/Escrow.sol\":731:750  msg.sender == owner */\n      0xffffffffffffffffffffffffffffffffffffffff\n      and\n        /* \"Assignments/week 4/lct 2/contracts/Escrow.sol\":731:741  msg.sender */\n      caller\n        /* \"Assignments/week 4/lct 2/contracts/Escrow.sol\":731:750  msg.sender == owner */\n      0xffffffffffffffffffffffffffffffffffffffff\n      and\n      eq\n        /* \"Assignments/week 4/lct 2/contracts/Escrow.sol\":730:778  (msg.sender == owner) && (msg.sender == arbiter) */\n      dup1\n      iszero\n      tag_84\n      jumpi\n      pop\n        /* \"Assignments/week 4/lct 2/contracts/Escrow.sol\":770:777  arbiter */\n      0x01\n      0x00\n      swap1\n      sload\n      swap1\n      0x0100\n      exp\n      swap1\n      div\n      0xffffffffffffffffffffffffffffffffffffffff\n      and\n        /* \"Assignments/week 4/lct 2/contracts/Escrow.sol\":756:777  msg.sender == arbiter */\n      0xffffffffffffffffffffffffffffffffffffffff\n      and\n        /* \"Assignments/week 4/lct 2/contracts/Escrow.sol\":756:766  msg.sender */\n      caller\n        /* \"Assignments/week 4/lct 2/contracts/Escrow.sol\":756:777  msg.sender == arbiter */\n      0xffffffffffffffffffffffffffffffffffffffff\n      and\n      eq\n        /* \"Assignments/week 4/lct 2/contracts/Escrow.sol\":730:778  (msg.sender == owner) && (msg.sender == arbiter) */\n    tag_84:\n        /* \"Assignments/week 4/lct 2/contracts/Escrow.sol\":726:856  if ((msg.sender == owner) && (msg.sender == arbiter)) {... */\n      iszero\n      tag_85\n      jumpi\n        /* \"Assignments/week 4/lct 2/contracts/Escrow.sol\":802:812  msg.sender */\n      caller\n        /* \"Assignments/week 4/lct 2/contracts/Escrow.sol\":794:822  payable(msg.sender).transfer */\n      0xffffffffffffffffffffffffffffffffffffffff\n      and\n        /* \"Assignments/week 4/lct 2/contracts/Escrow.sol\":794:833  payable(msg.sender).transfer(msg.value) */\n      0x08fc\n        /* \"Assignments/week 4/lct 2/contracts/Escrow.sol\":823:832  msg.value */\n      callvalue\n        /* \"Assignments/week 4/lct 2/contracts/Escrow.sol\":794:833  payable(msg.sender).transfer(msg.value) */\n      swap1\n      dup2\n      iszero\n      mul\n      swap1\n      mload(0x40)\n      0x00\n      mload(0x40)\n      dup1\n      dup4\n      sub\n      dup2\n      dup6\n      dup9\n      dup9\n      call\n      swap4\n      pop\n      pop\n      pop\n      pop\n      iszero\n      dup1\n      iszero\n      tag_87\n      jumpi\n      returndatacopy(0x00, 0x00, returndatasize)\n      revert(0x00, returndatasize)\n    tag_87:\n      pop\n        /* \"Assignments/week 4/lct 2/contracts/Escrow.sol\":726:856  if ((msg.sender == owner) && (msg.sender == arbiter)) {... */\n    tag_85:\n        /* \"Assignments/week 4/lct 2/contracts/Escrow.sol\":901:906  owner */\n      0x03\n      dup1\n      sload\n      swap1\n      0x0100\n      exp\n      swap1\n      div\n      0xffffffffffffffffffffffffffffffffffffffff\n      and\n        /* \"Assignments/week 4/lct 2/contracts/Escrow.sol\":887:906  msg.sender != owner */\n      0xffffffffffffffffffffffffffffffffffffffff\n      and\n        /* \"Assignments/week 4/lct 2/contracts/Escrow.sol\":887:897  msg.sender */\n      caller\n        /* \"Assignments/week 4/lct 2/contracts/Escrow.sol\":887:906  msg.sender != owner */\n      0xffffffffffffffffffffffffffffffffffffffff\n      and\n      eq\n      iszero\n        /* \"Assignments/week 4/lct 2/contracts/Escrow.sol\":886:934  (msg.sender != owner) && (msg.sender != arbiter) */\n      dup1\n      iszero\n      tag_88\n      jumpi\n      pop\n        /* \"Assignments/week 4/lct 2/contracts/Escrow.sol\":926:933  arbiter */\n      0x01\n      0x00\n      swap1\n      sload\n      swap1\n      0x0100\n      exp\n      swap1\n      div\n      0xffffffffffffffffffffffffffffffffffffffff\n      and\n        /* \"Assignments/week 4/lct 2/contracts/Escrow.sol\":912:933  msg.sender != arbiter */\n      0xffffffffffffffffffffffffffffffffffffffff\n      and\n        /* \"Assignments/week 4/lct 2/contracts/Escrow.sol\":912:922  msg.sender */\n      caller\n        /* \"Assignments/week 4/lct 2/contracts/Escrow.sol\":912:933  msg.sender != arbiter */\n      0xffffffffffffffffffffffffffffffffffffffff\n      and\n      eq\n      iszero\n        /* \"Assignments/week 4/lct 2/contracts/Escrow.sol\":886:934  (msg.sender != owner) && (msg.sender != arbiter) */\n    tag_88:\n        /* \"Assignments/week 4/lct 2/contracts/Escrow.sol\":865:999  require(... */\n      tag_89\n      jumpi\n      mload(0x40)\n      0x08c379a000000000000000000000000000000000000000000000000000000000\n      dup2\n      mstore\n      0x04\n      add\n      tag_90\n      swap1\n      tag_91\n      jump\t// in\n    tag_90:\n      mload(0x40)\n      dup1\n      swap2\n      sub\n      swap1\n      revert\n    tag_89:\n        /* \"Assignments/week 4/lct 2/contracts/Escrow.sol\":1031:1036  buyer */\n      0x00\n      0x00\n      swap1\n      sload\n      swap1\n      0x0100\n      exp\n      swap1\n      div\n      0xffffffffffffffffffffffffffffffffffffffff\n      and\n        /* \"Assignments/week 4/lct 2/contracts/Escrow.sol\":1017:1036  msg.sender != buyer */\n      0xffffffffffffffffffffffffffffffffffffffff\n      and\n        /* \"Assignments/week 4/lct 2/contracts/Escrow.sol\":1017:1027  msg.sender */\n      caller\n        /* \"Assignments/week 4/lct 2/contracts/Escrow.sol\":1017:1036  msg.sender != buyer */\n      0xffffffffffffffffffffffffffffffffffffffff\n      and\n      sub\n        /* \"Assignments/week 4/lct 2/contracts/Escrow.sol\":1009:1082  require(msg.sender != buyer, \"You cannot buy more than once in a roll!!\") */\n      tag_92\n      jumpi\n      mload(0x40)\n      0x08c379a000000000000000000000000000000000000000000000000000000000\n      dup2\n      mstore\n      0x04\n      add\n      tag_93\n      swap1\n      tag_94\n      jump\t// in\n    tag_93:\n      mload(0x40)\n      dup1\n      swap2\n      sub\n      swap1\n      revert\n    tag_92:\n        /* \"Assignments/week 4/lct 2/contracts/Escrow.sol\":1113:1129  0.003 * 1e18 wei */\n      0x0aa87bee538000\n        /* \"Assignments/week 4/lct 2/contracts/Escrow.sol\":1100:1109  msg.value */\n      callvalue\n        /* \"Assignments/week 4/lct 2/contracts/Escrow.sol\":1100:1129  msg.value == 0.003 * 1e18 wei */\n      eq\n        /* \"Assignments/week 4/lct 2/contracts/Escrow.sol\":1092:1158  require(msg.value == 0.003 * 1e18 wei, \"0.003 ETH is required!!!\") */\n      tag_95\n      jumpi\n      mload(0x40)\n      0x08c379a000000000000000000000000000000000000000000000000000000000\n      dup2\n      mstore\n      0x04\n      add\n      tag_96\n      swap1\n      tag_97\n      jump\t// in\n    tag_96:\n      mload(0x40)\n      dup1\n      swap2\n      sub\n      swap1\n      revert\n    tag_95:\n        /* \"Assignments/week 4/lct 2/contracts/Escrow.sol\":1176:1185  msg.value */\n      callvalue\n        /* \"Assignments/week 4/lct 2/contracts/Escrow.sol\":1168:1173  price */\n      0x02\n        /* \"Assignments/week 4/lct 2/contracts/Escrow.sol\":1168:1185  price = msg.value */\n      dup2\n      swap1\n      sstore\n      pop\n        /* \"Assignments/week 4/lct 2/contracts/Escrow.sol\":1206:1210  true */\n      0x01\n        /* \"Assignments/week 4/lct 2/contracts/Escrow.sol\":1195:1203  isFunded */\n      0x03\n      0x00\n        /* \"Assignments/week 4/lct 2/contracts/Escrow.sol\":1195:1210  isFunded = true */\n      0x0100\n      exp\n      dup2\n      sload\n      dup2\n      0xff\n      mul\n      not\n      and\n      swap1\n      dup4\n      iszero\n      iszero\n      mul\n      or\n      swap1\n      sstore\n      pop\n        /* \"Assignments/week 4/lct 2/contracts/Escrow.sol\":1228:1238  msg.sender */\n      caller\n        /* \"Assignments/week 4/lct 2/contracts/Escrow.sol\":1220:1225  buyer */\n      0x00\n      0x00\n        /* \"Assignments/week 4/lct 2/contracts/Escrow.sol\":1220:1238  buyer = msg.sender */\n      0x0100\n      exp\n      dup2\n      sload\n      dup2\n      0xffffffffffffffffffffffffffffffffffffffff\n      mul\n      not\n      and\n      swap1\n      dup4\n      0xffffffffffffffffffffffffffffffffffffffff\n      and\n      mul\n      or\n      swap1\n      sstore\n      pop\n        /* \"Assignments/week 4/lct 2/contracts/Escrow.sol\":1259:1263  true */\n      0x01\n        /* \"Assignments/week 4/lct 2/contracts/Escrow.sol\":1248:1256  interest */\n      0x03\n      0x02\n        /* \"Assignments/week 4/lct 2/contracts/Escrow.sol\":1248:1263  interest = true */\n      0x0100\n      exp\n      dup2\n      sload\n      dup2\n      0xff\n      mul\n      not\n      and\n      swap1\n      dup4\n      iszero\n      iszero\n      mul\n      or\n      swap1\n      sstore\n      pop\n        /* \"Assignments/week 4/lct 2/contracts/Escrow.sol\":664:1270  function buyTheContractFor0_003ETH() public payable {... */\n      jump\t// out\n        /* \"Assignments/week 4/lct 2/contracts/Escrow.sol\":1972:2420  function releaseFunds() external onlyArbiter {... */\n    tag_30:\n        /* \"Assignments/week 4/lct 2/contracts/Escrow.sol\":483:490  arbiter */\n      0x01\n      0x00\n      swap1\n      sload\n      swap1\n      0x0100\n      exp\n      swap1\n      div\n      0xffffffffffffffffffffffffffffffffffffffff\n      and\n        /* \"Assignments/week 4/lct 2/contracts/Escrow.sol\":469:490  msg.sender == arbiter */\n      0xffffffffffffffffffffffffffffffffffffffff\n      and\n        /* \"Assignments/week 4/lct 2/contracts/Escrow.sol\":469:479  msg.sender */\n      caller\n        /* \"Assignments/week 4/lct 2/contracts/Escrow.sol\":469:490  msg.sender == arbiter */\n      0xffffffffffffffffffffffffffffffffffffffff\n      and\n      eq\n        /* \"Assignments/week 4/lct 2/contracts/Escrow.sol\":461:525  require(msg.sender == arbiter, \"Only arbiter can release funds\") */\n      tag_99\n      jumpi\n      mload(0x40)\n      0x08c379a000000000000000000000000000000000000000000000000000000000\n      dup2\n      mstore\n      0x04\n      add\n      tag_100\n      swap1\n      tag_101\n      jump\t// in\n    tag_100:\n      mload(0x40)\n      dup1\n      swap2\n      sub\n      swap1\n      revert\n    tag_99:\n        /* \"Assignments/week 4/lct 2/contracts/Escrow.sol\":2035:2043  isFunded */\n      0x03\n      0x00\n      swap1\n      sload\n      swap1\n      0x0100\n      exp\n      swap1\n      div\n      0xff\n      and\n        /* \"Assignments/week 4/lct 2/contracts/Escrow.sol\":2027:2067  require(isFunded, \"No funds to release\") */\n      tag_103\n      jumpi\n      mload(0x40)\n      0x08c379a000000000000000000000000000000000000000000000000000000000\n      dup2\n      mstore\n      0x04\n      add\n      tag_104\n      swap1\n      tag_105\n      jump\t// in\n    tag_104:\n      mload(0x40)\n      dup1\n      swap2\n      sub\n      swap1\n      revert\n    tag_103:\n        /* \"Assignments/week 4/lct 2/contracts/Escrow.sol\":2086:2096  isReleased */\n      0x03\n      0x01\n      swap1\n      sload\n      swap1\n      0x0100\n      exp\n      swap1\n      div\n      0xff\n      and\n        /* \"Assignments/week 4/lct 2/contracts/Escrow.sol\":2085:2096  !isReleased */\n      iszero\n        /* \"Assignments/week 4/lct 2/contracts/Escrow.sol\":2077:2123  require(!isReleased, \"Funds already released\") */\n      tag_106\n      jumpi\n      mload(0x40)\n      0x08c379a000000000000000000000000000000000000000000000000000000000\n      dup2\n      mstore\n      0x04\n      add\n      tag_107\n      swap1\n      tag_108\n      jump\t// in\n    tag_107:\n      mload(0x40)\n      dup1\n      swap2\n      sub\n      swap1\n      revert\n    tag_106:\n        /* \"Assignments/week 4/lct 2/contracts/Escrow.sol\":2141:2149  interest */\n      0x03\n      0x02\n      swap1\n      sload\n      swap1\n      0x0100\n      exp\n      swap1\n      div\n      0xff\n      and\n        /* \"Assignments/week 4/lct 2/contracts/Escrow.sol\":2133:2184  require(interest, \"Buyer is no longer interested.\") */\n      tag_109\n      jumpi\n      mload(0x40)\n      0x08c379a000000000000000000000000000000000000000000000000000000000\n      dup2\n      mstore\n      0x04\n      add\n      tag_110\n      swap1\n      tag_111\n      jump\t// in\n    tag_110:\n      mload(0x40)\n      dup1\n      swap2\n      sub\n      swap1\n      revert\n    tag_109:\n        /* \"Assignments/week 4/lct 2/contracts/Escrow.sol\":2305:2310  buyer */\n      0x00\n      0x00\n      swap1\n      sload\n      swap1\n      0x0100\n      exp\n      swap1\n      div\n      0xffffffffffffffffffffffffffffffffffffffff\n      and\n        /* \"Assignments/week 4/lct 2/contracts/Escrow.sol\":2296:2310  owner == buyer */\n      0xffffffffffffffffffffffffffffffffffffffff\n      and\n        /* \"Assignments/week 4/lct 2/contracts/Escrow.sol\":2296:2301  owner */\n      0x03\n      dup1\n      sload\n      swap1\n      0x0100\n      exp\n      swap1\n      div\n      0xffffffffffffffffffffffffffffffffffffffff\n      and\n        /* \"Assignments/week 4/lct 2/contracts/Escrow.sol\":2296:2310  owner == buyer */\n      0xffffffffffffffffffffffffffffffffffffffff\n      and\n      eq\n        /* \"Assignments/week 4/lct 2/contracts/Escrow.sol\":2288:2342  require(owner == buyer, \"Contract is yet to be sold.\") */\n      tag_112\n      jumpi\n      mload(0x40)\n      0x08c379a000000000000000000000000000000000000000000000000000000000\n      dup2\n      mstore\n      0x04\n      add\n      tag_113\n      swap1\n      tag_114\n      jump\t// in\n    tag_113:\n      mload(0x40)\n      dup1\n      swap2\n      sub\n      swap1\n      revert\n    tag_112:\n        /* \"Assignments/week 4/lct 2/contracts/Escrow.sol\":2364:2369  false */\n      0x00\n        /* \"Assignments/week 4/lct 2/contracts/Escrow.sol\":2353:2361  isFunded */\n      0x03\n      0x00\n        /* \"Assignments/week 4/lct 2/contracts/Escrow.sol\":2353:2369  isFunded = false */\n      0x0100\n      exp\n      dup2\n      sload\n      dup2\n      0xff\n      mul\n      not\n      and\n      swap1\n      dup4\n      iszero\n      iszero\n      mul\n      or\n      swap1\n      sstore\n      pop\n        /* \"Assignments/week 4/lct 2/contracts/Escrow.sol\":2387:2396  prevOwner */\n      0x04\n      0x00\n      swap1\n      sload\n      swap1\n      0x0100\n      exp\n      swap1\n      div\n      0xffffffffffffffffffffffffffffffffffffffff\n      and\n        /* \"Assignments/week 4/lct 2/contracts/Escrow.sol\":2379:2406  payable(prevOwner).transfer */\n      0xffffffffffffffffffffffffffffffffffffffff\n      and\n        /* \"Assignments/week 4/lct 2/contracts/Escrow.sol\":2379:2413  payable(prevOwner).transfer(price) */\n      0x08fc\n        /* \"Assignments/week 4/lct 2/contracts/Escrow.sol\":2407:2412  price */\n      sload(0x02)\n        /* \"Assignments/week 4/lct 2/contracts/Escrow.sol\":2379:2413  payable(prevOwner).transfer(price) */\n      swap1\n      dup2\n      iszero\n      mul\n      swap1\n      mload(0x40)\n      0x00\n      mload(0x40)\n      dup1\n      dup4\n      sub\n      dup2\n      dup6\n      dup9\n      dup9\n      call\n      swap4\n      pop\n      pop\n      pop\n      pop\n      iszero\n      dup1\n      iszero\n      tag_116\n      jumpi\n      returndatacopy(0x00, 0x00, returndatasize)\n      revert(0x00, returndatasize)\n    tag_116:\n      pop\n        /* \"Assignments/week 4/lct 2/contracts/Escrow.sol\":1972:2420  function releaseFunds() external onlyArbiter {... */\n      jump\t// out\n        /* \"Assignments/week 4/lct 2/contracts/Escrow.sol\":110:130  address public buyer */\n    tag_33:\n      0x00\n      0x00\n      swap1\n      sload\n      swap1\n      0x0100\n      exp\n      swap1\n      div\n      0xffffffffffffffffffffffffffffffffffffffff\n      and\n      dup2\n      jump\t// out\n        /* \"Assignments/week 4/lct 2/contracts/Escrow.sol\":190:210  bool public isFunded */\n    tag_38:\n      0x03\n      0x00\n      swap1\n      sload\n      swap1\n      0x0100\n      exp\n      swap1\n      div\n      0xff\n      and\n      dup2\n      jump\t// out\n        /* \"Assignments/week 4/lct 2/contracts/Escrow.sol\":1276:1416  function stillInterested ()  public {... */\n    tag_43:\n        /* \"Assignments/week 4/lct 2/contracts/Escrow.sol\":1344:1349  buyer */\n      0x00\n      0x00\n      swap1\n      sload\n      swap1\n      0x0100\n      exp\n      swap1\n      div\n      0xffffffffffffffffffffffffffffffffffffffff\n      and\n        /* \"Assignments/week 4/lct 2/contracts/Escrow.sol\":1330:1349  msg.sender == buyer */\n      0xffffffffffffffffffffffffffffffffffffffff\n      and\n        /* \"Assignments/week 4/lct 2/contracts/Escrow.sol\":1330:1340  msg.sender */\n      caller\n        /* \"Assignments/week 4/lct 2/contracts/Escrow.sol\":1330:1349  msg.sender == buyer */\n      0xffffffffffffffffffffffffffffffffffffffff\n      and\n      eq\n        /* \"Assignments/week 4/lct 2/contracts/Escrow.sol\":1322:1384  require(msg.sender == buyer, \"Only buyer can change interest\") */\n      tag_118\n      jumpi\n      mload(0x40)\n      0x08c379a000000000000000000000000000000000000000000000000000000000\n      dup2\n      mstore\n      0x04\n      add\n      tag_119\n      swap1\n      tag_120\n      jump\t// in\n    tag_119:\n      mload(0x40)\n      dup1\n      swap2\n      sub\n      swap1\n      revert\n    tag_118:\n        /* \"Assignments/week 4/lct 2/contracts/Escrow.sol\":1405:1409  true */\n      0x01\n        /* \"Assignments/week 4/lct 2/contracts/Escrow.sol\":1394:1402  interest */\n      0x03\n      0x02\n        /* \"Assignments/week 4/lct 2/contracts/Escrow.sol\":1394:1409  interest = true */\n      0x0100\n      exp\n      dup2\n      sload\n      dup2\n      0xff\n      mul\n      not\n      and\n      swap1\n      dup4\n      iszero\n      iszero\n      mul\n      or\n      swap1\n      sstore\n      pop\n        /* \"Assignments/week 4/lct 2/contracts/Escrow.sol\":1276:1416  function stillInterested ()  public {... */\n      jump\t// out\n        /* \"Assignments/week 4/lct 2/contracts/Escrow.sol\":272:292  address public owner */\n    tag_46:\n      0x03\n      dup1\n      sload\n      swap1\n      0x0100\n      exp\n      swap1\n      div\n      0xffffffffffffffffffffffffffffffffffffffff\n      and\n      dup2\n      jump\t// out\n        /* \"Assignments/week 4/lct 2/contracts/Escrow.sol\":1421:1565  function noLongerInterested ()  public {... */\n    tag_50:\n        /* \"Assignments/week 4/lct 2/contracts/Escrow.sol\":1492:1497  buyer */\n      0x00\n      0x00\n      swap1\n      sload\n      swap1\n      0x0100\n      exp\n      swap1\n      div\n      0xffffffffffffffffffffffffffffffffffffffff\n      and\n        /* \"Assignments/week 4/lct 2/contracts/Escrow.sol\":1478:1497  msg.sender == buyer */\n      0xffffffffffffffffffffffffffffffffffffffff\n      and\n        /* \"Assignments/week 4/lct 2/contracts/Escrow.sol\":1478:1488  msg.sender */\n      caller\n        /* \"Assignments/week 4/lct 2/contracts/Escrow.sol\":1478:1497  msg.sender == buyer */\n      0xffffffffffffffffffffffffffffffffffffffff\n      and\n      eq\n        /* \"Assignments/week 4/lct 2/contracts/Escrow.sol\":1470:1532  require(msg.sender == buyer, \"Only buyer can change interest\") */\n      tag_122\n      jumpi\n      mload(0x40)\n      0x08c379a000000000000000000000000000000000000000000000000000000000\n      dup2\n      mstore\n      0x04\n      add\n      tag_123\n      swap1\n      tag_120\n      jump\t// in\n    tag_123:\n      mload(0x40)\n      dup1\n      swap2\n      sub\n      swap1\n      revert\n    tag_122:\n        /* \"Assignments/week 4/lct 2/contracts/Escrow.sol\":1553:1558  false */\n      0x00\n        /* \"Assignments/week 4/lct 2/contracts/Escrow.sol\":1542:1550  interest */\n      0x03\n      0x02\n        /* \"Assignments/week 4/lct 2/contracts/Escrow.sol\":1542:1558  interest = false */\n      0x0100\n      exp\n      dup2\n      sload\n      dup2\n      0xff\n      mul\n      not\n      and\n      swap1\n      dup4\n      iszero\n      iszero\n      mul\n      or\n      swap1\n      sstore\n      pop\n        /* \"Assignments/week 4/lct 2/contracts/Escrow.sol\":1421:1565  function noLongerInterested ()  public {... */\n      jump\t// out\n        /* \"Assignments/week 4/lct 2/contracts/Escrow.sol\":1641:1723  function setPrice(uint256 _price) public onlyOwner {... */\n    tag_55:\n        /* \"Assignments/week 4/lct 2/contracts/Escrow.sol\":602:607  owner */\n      0x03\n      dup1\n      sload\n      swap1\n      0x0100\n      exp\n      swap1\n      div\n      0xffffffffffffffffffffffffffffffffffffffff\n      and\n        /* \"Assignments/week 4/lct 2/contracts/Escrow.sol\":588:607  msg.sender == owner */\n      0xffffffffffffffffffffffffffffffffffffffff\n      and\n        /* \"Assignments/week 4/lct 2/contracts/Escrow.sol\":588:598  msg.sender */\n      caller\n        /* \"Assignments/week 4/lct 2/contracts/Escrow.sol\":588:607  msg.sender == owner */\n      0xffffffffffffffffffffffffffffffffffffffff\n      and\n      eq\n        /* \"Assignments/week 4/lct 2/contracts/Escrow.sol\":580:640  require(msg.sender == owner, \"Only the current owner sell.\") */\n      tag_125\n      jumpi\n      mload(0x40)\n      0x08c379a000000000000000000000000000000000000000000000000000000000\n      dup2\n      mstore\n      0x04\n      add\n      tag_126\n      swap1\n      tag_127\n      jump\t// in\n    tag_126:\n      mload(0x40)\n      dup1\n      swap2\n      sub\n      swap1\n      revert\n    tag_125:\n        /* \"Assignments/week 4/lct 2/contracts/Escrow.sol\":1710:1716  _price */\n      dup1\n        /* \"Assignments/week 4/lct 2/contracts/Escrow.sol\":1702:1707  price */\n      0x02\n        /* \"Assignments/week 4/lct 2/contracts/Escrow.sol\":1702:1716  price = _price */\n      dup2\n      swap1\n      sstore\n      pop\n        /* \"Assignments/week 4/lct 2/contracts/Escrow.sol\":1641:1723  function setPrice(uint256 _price) public onlyOwner {... */\n      pop\n      jump\t// out\n        /* \"Assignments/week 4/lct 2/contracts/Escrow.sol\":164:184  uint256 public price */\n    tag_58:\n      sload(0x02)\n      dup2\n      jump\t// out\n        /* \"Assignments/week 4/lct 2/contracts/Escrow.sol\":245:265  bool public interest */\n    tag_62:\n      0x03\n      0x02\n      swap1\n      sload\n      swap1\n      0x0100\n      exp\n      swap1\n      div\n      0xff\n      and\n      dup2\n      jump\t// out\n        /* \"Assignments/week 4/lct 2/contracts/Escrow.sol\":1729:1966  function sellEscrowContract() public onlyOwner {... */\n    tag_66:\n        /* \"Assignments/week 4/lct 2/contracts/Escrow.sol\":602:607  owner */\n      0x03\n      dup1\n      sload\n      swap1\n      0x0100\n      exp\n      swap1\n      div\n      0xffffffffffffffffffffffffffffffffffffffff\n      and\n        /* \"Assignments/week 4/lct 2/contracts/Escrow.sol\":588:607  msg.sender == owner */\n      0xffffffffffffffffffffffffffffffffffffffff\n      and\n        /* \"Assignments/week 4/lct 2/contracts/Escrow.sol\":588:598  msg.sender */\n      caller\n        /* \"Assignments/week 4/lct 2/contracts/Escrow.sol\":588:607  msg.sender == owner */\n      0xffffffffffffffffffffffffffffffffffffffff\n      and\n      eq\n        /* \"Assignments/week 4/lct 2/contracts/Escrow.sol\":580:640  require(msg.sender == owner, \"Only the current owner sell.\") */\n      tag_130\n      jumpi\n      mload(0x40)\n      0x08c379a000000000000000000000000000000000000000000000000000000000\n      dup2\n      mstore\n      0x04\n      add\n      tag_131\n      swap1\n      tag_127\n      jump\t// in\n    tag_131:\n      mload(0x40)\n      dup1\n      swap2\n      sub\n      swap1\n      revert\n    tag_130:\n        /* \"Assignments/week 4/lct 2/contracts/Escrow.sol\":1803:1819  0.003 * 1e18 wei */\n      0x0aa87bee538000\n        /* \"Assignments/week 4/lct 2/contracts/Escrow.sol\":1794:1799  price */\n      sload(0x02)\n        /* \"Assignments/week 4/lct 2/contracts/Escrow.sol\":1794:1819  price == 0.003 * 1e18 wei */\n      eq\n        /* \"Assignments/week 4/lct 2/contracts/Escrow.sol\":1786:1848  require(price == 0.003 * 1e18 wei, \"0.003 ETH is required!!!\") */\n      tag_133\n      jumpi\n      mload(0x40)\n      0x08c379a000000000000000000000000000000000000000000000000000000000\n      dup2\n      mstore\n      0x04\n      add\n      tag_134\n      swap1\n      tag_97\n      jump\t// in\n    tag_134:\n      mload(0x40)\n      dup1\n      swap2\n      sub\n      swap1\n      revert\n    tag_133:\n        /* \"Assignments/week 4/lct 2/contracts/Escrow.sol\":1866:1874  interest */\n      0x03\n      0x02\n      swap1\n      sload\n      swap1\n      0x0100\n      exp\n      swap1\n      div\n      0xff\n      and\n        /* \"Assignments/week 4/lct 2/contracts/Escrow.sol\":1858:1909  require(interest, \"Buyer is no longer interested.\") */\n      tag_135\n      jumpi\n      mload(0x40)\n      0x08c379a000000000000000000000000000000000000000000000000000000000\n      dup2\n      mstore\n      0x04\n      add\n      tag_136\n      swap1\n      tag_111\n      jump\t// in\n    tag_136:\n      mload(0x40)\n      dup1\n      swap2\n      sub\n      swap1\n      revert\n    tag_135:\n        /* \"Assignments/week 4/lct 2/contracts/Escrow.sol\":1931:1936  owner */\n      0x03\n      dup1\n      sload\n      swap1\n      0x0100\n      exp\n      swap1\n      div\n      0xffffffffffffffffffffffffffffffffffffffff\n      and\n        /* \"Assignments/week 4/lct 2/contracts/Escrow.sol\":1919:1928  prevOwner */\n      0x04\n      0x00\n        /* \"Assignments/week 4/lct 2/contracts/Escrow.sol\":1919:1936  prevOwner = owner */\n      0x0100\n      exp\n      dup2\n      sload\n      dup2\n      0xffffffffffffffffffffffffffffffffffffffff\n      mul\n      not\n      and\n      swap1\n      dup4\n      0xffffffffffffffffffffffffffffffffffffffff\n      and\n      mul\n      or\n      swap1\n      sstore\n      pop\n        /* \"Assignments/week 4/lct 2/contracts/Escrow.sol\":1954:1959  buyer */\n      0x00\n      0x00\n      swap1\n      sload\n      swap1\n      0x0100\n      exp\n      swap1\n      div\n      0xffffffffffffffffffffffffffffffffffffffff\n      and\n        /* \"Assignments/week 4/lct 2/contracts/Escrow.sol\":1946:1951  owner */\n      0x03\n      dup1\n        /* \"Assignments/week 4/lct 2/contracts/Escrow.sol\":1946:1959  owner = buyer */\n      0x0100\n      exp\n      dup2\n      sload\n      dup2\n      0xffffffffffffffffffffffffffffffffffffffff\n      mul\n      not\n      and\n      swap1\n      dup4\n      0xffffffffffffffffffffffffffffffffffffffff\n      and\n      mul\n      or\n      swap1\n      sstore\n      pop\n        /* \"Assignments/week 4/lct 2/contracts/Escrow.sol\":1729:1966  function sellEscrowContract() public onlyOwner {... */\n      jump\t// out\n        /* \"Assignments/week 4/lct 2/contracts/Escrow.sol\":298:322  address public prevOwner */\n    tag_69:\n      0x04\n      0x00\n      swap1\n      sload\n      swap1\n      0x0100\n      exp\n      swap1\n      div\n      0xffffffffffffffffffffffffffffffffffffffff\n      and\n      dup2\n      jump\t// out\n        /* \"Assignments/week 4/lct 2/contracts/Escrow.sol\":2426:2651  function refundBuyer() external onlyArbiter {... */\n    tag_73:\n        /* \"Assignments/week 4/lct 2/contracts/Escrow.sol\":483:490  arbiter */\n      0x01\n      0x00\n      swap1\n      sload\n      swap1\n      0x0100\n      exp\n      swap1\n      div\n      0xffffffffffffffffffffffffffffffffffffffff\n      and\n        /* \"Assignments/week 4/lct 2/contracts/Escrow.sol\":469:490  msg.sender == arbiter */\n      0xffffffffffffffffffffffffffffffffffffffff\n      and\n        /* \"Assignments/week 4/lct 2/contracts/Escrow.sol\":469:479  msg.sender */\n      caller\n        /* \"Assignments/week 4/lct 2/contracts/Escrow.sol\":469:490  msg.sender == arbiter */\n      0xffffffffffffffffffffffffffffffffffffffff\n      and\n      eq\n        /* \"Assignments/week 4/lct 2/contracts/Escrow.sol\":461:525  require(msg.sender == arbiter, \"Only arbiter can release funds\") */\n      tag_138\n      jumpi\n      mload(0x40)\n      0x08c379a000000000000000000000000000000000000000000000000000000000\n      dup2\n      mstore\n      0x04\n      add\n      tag_139\n      swap1\n      tag_101\n      jump\t// in\n    tag_139:\n      mload(0x40)\n      dup1\n      swap2\n      sub\n      swap1\n      revert\n    tag_138:\n        /* \"Assignments/week 4/lct 2/contracts/Escrow.sol\":2488:2496  isFunded */\n      0x03\n      0x00\n      swap1\n      sload\n      swap1\n      0x0100\n      exp\n      swap1\n      div\n      0xff\n      and\n        /* \"Assignments/week 4/lct 2/contracts/Escrow.sol\":2480:2519  require(isFunded, \"No funds to refund\") */\n      tag_141\n      jumpi\n      mload(0x40)\n      0x08c379a000000000000000000000000000000000000000000000000000000000\n      dup2\n      mstore\n      0x04\n      add\n      tag_142\n      swap1\n      tag_143\n      jump\t// in\n    tag_142:\n      mload(0x40)\n      dup1\n      swap2\n      sub\n      swap1\n      revert\n    tag_141:\n        /* \"Assignments/week 4/lct 2/contracts/Escrow.sol\":2538:2546  interest */\n      0x03\n      0x02\n      swap1\n      sload\n      swap1\n      0x0100\n      exp\n      swap1\n      div\n      0xff\n      and\n        /* \"Assignments/week 4/lct 2/contracts/Escrow.sol\":2537:2546  !interest */\n      iszero\n        /* \"Assignments/week 4/lct 2/contracts/Escrow.sol\":2529:2577  require(!interest, \"Buyer is still interested.\") */\n      tag_144\n      jumpi\n      mload(0x40)\n      0x08c379a000000000000000000000000000000000000000000000000000000000\n      dup2\n      mstore\n      0x04\n      add\n      tag_145\n      swap1\n      tag_146\n      jump\t// in\n    tag_145:\n      mload(0x40)\n      dup1\n      swap2\n      sub\n      swap1\n      revert\n    tag_144:\n        /* \"Assignments/week 4/lct 2/contracts/Escrow.sol\":2599:2604  false */\n      0x00\n        /* \"Assignments/week 4/lct 2/contracts/Escrow.sol\":2588:2596  isFunded */\n      0x03\n      0x00\n        /* \"Assignments/week 4/lct 2/contracts/Escrow.sol\":2588:2604  isFunded = false */\n      0x0100\n      exp\n      dup2\n      sload\n      dup2\n      0xff\n      mul\n      not\n      and\n      swap1\n      dup4\n      iszero\n      iszero\n      mul\n      or\n      swap1\n      sstore\n      pop\n        /* \"Assignments/week 4/lct 2/contracts/Escrow.sol\":2622:2627  buyer */\n      0x00\n      0x00\n      swap1\n      sload\n      swap1\n      0x0100\n      exp\n      swap1\n      div\n      0xffffffffffffffffffffffffffffffffffffffff\n      and\n        /* \"Assignments/week 4/lct 2/contracts/Escrow.sol\":2614:2637  payable(buyer).transfer */\n      0xffffffffffffffffffffffffffffffffffffffff\n      and\n        /* \"Assignments/week 4/lct 2/contracts/Escrow.sol\":2614:2644  payable(buyer).transfer(price) */\n      0x08fc\n        /* \"Assignments/week 4/lct 2/contracts/Escrow.sol\":2638:2643  price */\n      sload(0x02)\n        /* \"Assignments/week 4/lct 2/contracts/Escrow.sol\":2614:2644  payable(buyer).transfer(price) */\n      swap1\n      dup2\n      iszero\n      mul\n      swap1\n      mload(0x40)\n      0x00\n      mload(0x40)\n      dup1\n      dup4\n      sub\n      dup2\n      dup6\n      dup9\n      dup9\n      call\n      swap4\n      pop\n      pop\n      pop\n      pop\n      iszero\n      dup1\n      iszero\n      tag_148\n      jumpi\n      returndatacopy(0x00, 0x00, returndatasize)\n      revert(0x00, returndatasize)\n    tag_148:\n      pop\n        /* \"Assignments/week 4/lct 2/contracts/Escrow.sol\":2426:2651  function refundBuyer() external onlyArbiter {... */\n      jump\t// out\n        /* \"Assignments/week 4/lct 2/contracts/Escrow.sol\":216:238  bool public isReleased */\n    tag_76:\n      0x03\n      0x01\n      swap1\n      sload\n      swap1\n      0x0100\n      exp\n      swap1\n      div\n      0xff\n      and\n      dup2\n      jump\t// out\n        /* \"Assignments/week 4/lct 2/contracts/Escrow.sol\":136:158  address public arbiter */\n    tag_80:\n      0x01\n      0x00\n      swap1\n      sload\n      swap1\n      0x0100\n      exp\n      swap1\n      div\n      0xffffffffffffffffffffffffffffffffffffffff\n      and\n      dup2\n      jump\t// out\n        /* \"#utility.yul\":7:84   */\n    tag_149:\n        /* \"#utility.yul\":44:51   */\n      0x00\n        /* \"#utility.yul\":73:78   */\n      dup2\n        /* \"#utility.yul\":62:78   */\n      swap1\n      pop\n        /* \"#utility.yul\":7:84   */\n      swap2\n      swap1\n      pop\n      jump\t// out\n        /* \"#utility.yul\":90:208   */\n    tag_150:\n        /* \"#utility.yul\":177:201   */\n      tag_189\n        /* \"#utility.yul\":195:200   */\n      dup2\n        /* \"#utility.yul\":177:201   */\n      tag_149\n      jump\t// in\n    tag_189:\n        /* \"#utility.yul\":172:175   */\n      dup3\n        /* \"#utility.yul\":165:202   */\n      mstore\n        /* \"#utility.yul\":90:208   */\n      pop\n      pop\n      jump\t// out\n        /* \"#utility.yul\":214:436   */\n    tag_25:\n        /* \"#utility.yul\":307:311   */\n      0x00\n        /* \"#utility.yul\":345:347   */\n      0x20\n        /* \"#utility.yul\":334:343   */\n      dup3\n        /* \"#utility.yul\":330:348   */\n      add\n        /* \"#utility.yul\":322:348   */\n      swap1\n      pop\n        /* \"#utility.yul\":358:429   */\n      tag_191\n        /* \"#utility.yul\":426:427   */\n      0x00\n        /* \"#utility.yul\":415:424   */\n      dup4\n        /* \"#utility.yul\":411:428   */\n      add\n        /* \"#utility.yul\":402:408   */\n      dup5\n        /* \"#utility.yul\":358:429   */\n      tag_150\n      jump\t// in\n    tag_191:\n        /* \"#utility.yul\":214:436   */\n      swap3\n      swap2\n      pop\n      pop\n      jump\t// out\n        /* \"#utility.yul\":442:568   */\n    tag_151:\n        /* \"#utility.yul\":479:486   */\n      0x00\n        /* \"#utility.yul\":519:561   */\n      0xffffffffffffffffffffffffffffffffffffffff\n        /* \"#utility.yul\":512:517   */\n      dup3\n        /* \"#utility.yul\":508:562   */\n      and\n        /* \"#utility.yul\":497:562   */\n      swap1\n      pop\n        /* \"#utility.yul\":442:568   */\n      swap2\n      swap1\n      pop\n      jump\t// out\n        /* \"#utility.yul\":574:670   */\n    tag_152:\n        /* \"#utility.yul\":611:618   */\n      0x00\n        /* \"#utility.yul\":640:664   */\n      tag_194\n        /* \"#utility.yul\":658:663   */\n      dup3\n        /* \"#utility.yul\":640:664   */\n      tag_151\n      jump\t// in\n    tag_194:\n        /* \"#utility.yul\":629:664   */\n      swap1\n      pop\n        /* \"#utility.yul\":574:670   */\n      swap2\n      swap1\n      pop\n      jump\t// out\n        /* \"#utility.yul\":676:794   */\n    tag_153:\n        /* \"#utility.yul\":763:787   */\n      tag_196\n        /* \"#utility.yul\":781:786   */\n      dup2\n        /* \"#utility.yul\":763:787   */\n      tag_152\n      jump\t// in\n    tag_196:\n        /* \"#utility.yul\":758:761   */\n      dup3\n        /* \"#utility.yul\":751:788   */\n      mstore\n        /* \"#utility.yul\":676:794   */\n      pop\n      pop\n      jump\t// out\n        /* \"#utility.yul\":800:1022   */\n    tag_35:\n        /* \"#utility.yul\":893:897   */\n      0x00\n        /* \"#utility.yul\":931:933   */\n      0x20\n        /* \"#utility.yul\":920:929   */\n      dup3\n        /* \"#utility.yul\":916:934   */\n      add\n        /* \"#utility.yul\":908:934   */\n      swap1\n      pop\n        /* \"#utility.yul\":944:1015   */\n      tag_198\n        /* \"#utility.yul\":1012:1013   */\n      0x00\n        /* \"#utility.yul\":1001:1010   */\n      dup4\n        /* \"#utility.yul\":997:1014   */\n      add\n        /* \"#utility.yul\":988:994   */\n      dup5\n        /* \"#utility.yul\":944:1015   */\n      tag_153\n      jump\t// in\n    tag_198:\n        /* \"#utility.yul\":800:1022   */\n      swap3\n      swap2\n      pop\n      pop\n      jump\t// out\n        /* \"#utility.yul\":1028:1118   */\n    tag_154:\n        /* \"#utility.yul\":1062:1069   */\n      0x00\n        /* \"#utility.yul\":1105:1110   */\n      dup2\n        /* \"#utility.yul\":1098:1111   */\n      iszero\n        /* \"#utility.yul\":1091:1112   */\n      iszero\n        /* \"#utility.yul\":1080:1112   */\n      swap1\n      pop\n        /* \"#utility.yul\":1028:1118   */\n      swap2\n      swap1\n      pop\n      jump\t// out\n        /* \"#utility.yul\":1124:1233   */\n    tag_155:\n        /* \"#utility.yul\":1205:1226   */\n      tag_201\n        /* \"#utility.yul\":1220:1225   */\n      dup2\n        /* \"#utility.yul\":1205:1226   */\n      tag_154\n      jump\t// in\n    tag_201:\n        /* \"#utility.yul\":1200:1203   */\n      dup3\n        /* \"#utility.yul\":1193:1227   */\n      mstore\n        /* \"#utility.yul\":1124:1233   */\n      pop\n      pop\n      jump\t// out\n        /* \"#utility.yul\":1239:1449   */\n    tag_40:\n        /* \"#utility.yul\":1326:1330   */\n      0x00\n        /* \"#utility.yul\":1364:1366   */\n      0x20\n        /* \"#utility.yul\":1353:1362   */\n      dup3\n        /* \"#utility.yul\":1349:1367   */\n      add\n        /* \"#utility.yul\":1341:1367   */\n      swap1\n      pop\n        /* \"#utility.yul\":1377:1442   */\n      tag_203\n        /* \"#utility.yul\":1439:1440   */\n      0x00\n        /* \"#utility.yul\":1428:1437   */\n      dup4\n        /* \"#utility.yul\":1424:1441   */\n      add\n        /* \"#utility.yul\":1415:1421   */\n      dup5\n        /* \"#utility.yul\":1377:1442   */\n      tag_155\n      jump\t// in\n    tag_203:\n        /* \"#utility.yul\":1239:1449   */\n      swap3\n      swap2\n      pop\n      pop\n      jump\t// out\n        /* \"#utility.yul\":1536:1653   */\n    tag_157:\n        /* \"#utility.yul\":1645:1646   */\n      0x00\n        /* \"#utility.yul\":1642:1643   */\n      0x00\n        /* \"#utility.yul\":1635:1647   */\n      revert\n        /* \"#utility.yul\":1782:1904   */\n    tag_159:\n        /* \"#utility.yul\":1855:1879   */\n      tag_208\n        /* \"#utility.yul\":1873:1878   */\n      dup2\n        /* \"#utility.yul\":1855:1879   */\n      tag_149\n      jump\t// in\n    tag_208:\n        /* \"#utility.yul\":1848:1853   */\n      dup2\n        /* \"#utility.yul\":1845:1880   */\n      eq\n        /* \"#utility.yul\":1835:1898   */\n      tag_209\n      jumpi\n        /* \"#utility.yul\":1894:1895   */\n      0x00\n        /* \"#utility.yul\":1891:1892   */\n      0x00\n        /* \"#utility.yul\":1884:1896   */\n      revert\n        /* \"#utility.yul\":1835:1898   */\n    tag_209:\n        /* \"#utility.yul\":1782:1904   */\n      pop\n      jump\t// out\n        /* \"#utility.yul\":1910:2049   */\n    tag_160:\n        /* \"#utility.yul\":1956:1961   */\n      0x00\n        /* \"#utility.yul\":1994:2000   */\n      dup2\n        /* \"#utility.yul\":1981:2001   */\n      calldataload\n        /* \"#utility.yul\":1972:2001   */\n      swap1\n      pop\n        /* \"#utility.yul\":2010:2043   */\n      tag_211\n        /* \"#utility.yul\":2037:2042   */\n      dup2\n        /* \"#utility.yul\":2010:2043   */\n      tag_159\n      jump\t// in\n    tag_211:\n        /* \"#utility.yul\":1910:2049   */\n      swap3\n      swap2\n      pop\n      pop\n      jump\t// out\n        /* \"#utility.yul\":2055:2384   */\n    tag_54:\n        /* \"#utility.yul\":2114:2120   */\n      0x00\n        /* \"#utility.yul\":2163:2165   */\n      0x20\n        /* \"#utility.yul\":2151:2160   */\n      dup3\n        /* \"#utility.yul\":2142:2149   */\n      dup5\n        /* \"#utility.yul\":2138:2161   */\n      sub\n        /* \"#utility.yul\":2134:2166   */\n      slt\n        /* \"#utility.yul\":2131:2250   */\n      iszero\n      tag_213\n      jumpi\n        /* \"#utility.yul\":2169:2248   */\n      tag_214\n      tag_157\n      jump\t// in\n    tag_214:\n        /* \"#utility.yul\":2131:2250   */\n    tag_213:\n        /* \"#utility.yul\":2289:2290   */\n      0x00\n        /* \"#utility.yul\":2314:2367   */\n      tag_215\n        /* \"#utility.yul\":2359:2366   */\n      dup5\n        /* \"#utility.yul\":2350:2356   */\n      dup3\n        /* \"#utility.yul\":2339:2348   */\n      dup6\n        /* \"#utility.yul\":2335:2357   */\n      add\n        /* \"#utility.yul\":2314:2367   */\n      tag_160\n      jump\t// in\n    tag_215:\n        /* \"#utility.yul\":2304:2367   */\n      swap2\n      pop\n        /* \"#utility.yul\":2260:2377   */\n      pop\n        /* \"#utility.yul\":2055:2384   */\n      swap3\n      swap2\n      pop\n      pop\n      jump\t// out\n        /* \"#utility.yul\":2390:2559   */\n    tag_161:\n        /* \"#utility.yul\":2474:2485   */\n      0x00\n        /* \"#utility.yul\":2508:2514   */\n      dup3\n        /* \"#utility.yul\":2503:2506   */\n      dup3\n        /* \"#utility.yul\":2496:2515   */\n      mstore\n        /* \"#utility.yul\":2548:2552   */\n      0x20\n        /* \"#utility.yul\":2543:2546   */\n      dup3\n        /* \"#utility.yul\":2539:2553   */\n      add\n        /* \"#utility.yul\":2524:2553   */\n      swap1\n      pop\n        /* \"#utility.yul\":2390:2559   */\n      swap3\n      swap2\n      pop\n      pop\n      jump\t// out\n        /* \"#utility.yul\":2565:2791   */\n    tag_162:\n        /* \"#utility.yul\":2705:2739   */\n      0x4f6e6c7920612062757965722063616e20706572666f726d2074686973206163\n        /* \"#utility.yul\":2701:2702   */\n      0x00\n        /* \"#utility.yul\":2693:2699   */\n      dup3\n        /* \"#utility.yul\":2689:2703   */\n      add\n        /* \"#utility.yul\":2682:2740   */\n      mstore\n        /* \"#utility.yul\":2774:2783   */\n      0x74696f6e21212100000000000000000000000000000000000000000000000000\n        /* \"#utility.yul\":2769:2771   */\n      0x20\n        /* \"#utility.yul\":2761:2767   */\n      dup3\n        /* \"#utility.yul\":2757:2772   */\n      add\n        /* \"#utility.yul\":2750:2784   */\n      mstore\n        /* \"#utility.yul\":2565:2791   */\n      pop\n      jump\t// out\n        /* \"#utility.yul\":2797:3163   */\n    tag_163:\n        /* \"#utility.yul\":2939:2942   */\n      0x00\n        /* \"#utility.yul\":2960:3027   */\n      tag_219\n        /* \"#utility.yul\":3024:3026   */\n      0x27\n        /* \"#utility.yul\":3019:3022   */\n      dup4\n        /* \"#utility.yul\":2960:3027   */\n      tag_161\n      jump\t// in\n    tag_219:\n        /* \"#utility.yul\":2953:3027   */\n      swap2\n      pop\n        /* \"#utility.yul\":3036:3129   */\n      tag_220\n        /* \"#utility.yul\":3125:3128   */\n      dup3\n        /* \"#utility.yul\":3036:3129   */\n      tag_162\n      jump\t// in\n    tag_220:\n        /* \"#utility.yul\":3154:3156   */\n      0x40\n        /* \"#utility.yul\":3149:3152   */\n      dup3\n        /* \"#utility.yul\":3145:3157   */\n      add\n        /* \"#utility.yul\":3138:3157   */\n      swap1\n      pop\n        /* \"#utility.yul\":2797:3163   */\n      swap2\n      swap1\n      pop\n      jump\t// out\n        /* \"#utility.yul\":3169:3588   */\n    tag_91:\n        /* \"#utility.yul\":3335:3339   */\n      0x00\n        /* \"#utility.yul\":3373:3375   */\n      0x20\n        /* \"#utility.yul\":3362:3371   */\n      dup3\n        /* \"#utility.yul\":3358:3376   */\n      add\n        /* \"#utility.yul\":3350:3376   */\n      swap1\n      pop\n        /* \"#utility.yul\":3422:3431   */\n      dup2\n        /* \"#utility.yul\":3416:3420   */\n      dup2\n        /* \"#utility.yul\":3412:3432   */\n      sub\n        /* \"#utility.yul\":3408:3409   */\n      0x00\n        /* \"#utility.yul\":3397:3406   */\n      dup4\n        /* \"#utility.yul\":3393:3410   */\n      add\n        /* \"#utility.yul\":3386:3433   */\n      mstore\n        /* \"#utility.yul\":3450:3581   */\n      tag_222\n        /* \"#utility.yul\":3576:3580   */\n      dup2\n        /* \"#utility.yul\":3450:3581   */\n      tag_163\n      jump\t// in\n    tag_222:\n        /* \"#utility.yul\":3442:3581   */\n      swap1\n      pop\n        /* \"#utility.yul\":3169:3588   */\n      swap2\n      swap1\n      pop\n      jump\t// out\n        /* \"#utility.yul\":3594:3822   */\n    tag_164:\n        /* \"#utility.yul\":3734:3768   */\n      0x596f752063616e6e6f7420627579206d6f7265207468616e206f6e636520696e\n        /* \"#utility.yul\":3730:3731   */\n      0x00\n        /* \"#utility.yul\":3722:3728   */\n      dup3\n        /* \"#utility.yul\":3718:3732   */\n      add\n        /* \"#utility.yul\":3711:3769   */\n      mstore\n        /* \"#utility.yul\":3803:3814   */\n      0x206120726f6c6c21210000000000000000000000000000000000000000000000\n        /* \"#utility.yul\":3798:3800   */\n      0x20\n        /* \"#utility.yul\":3790:3796   */\n      dup3\n        /* \"#utility.yul\":3786:3801   */\n      add\n        /* \"#utility.yul\":3779:3815   */\n      mstore\n        /* \"#utility.yul\":3594:3822   */\n      pop\n      jump\t// out\n        /* \"#utility.yul\":3828:4194   */\n    tag_165:\n        /* \"#utility.yul\":3970:3973   */\n      0x00\n        /* \"#utility.yul\":3991:4058   */\n      tag_225\n        /* \"#utility.yul\":4055:4057   */\n      0x29\n        /* \"#utility.yul\":4050:4053   */\n      dup4\n        /* \"#utility.yul\":3991:4058   */\n      tag_161\n      jump\t// in\n    tag_225:\n        /* \"#utility.yul\":3984:4058   */\n      swap2\n      pop\n        /* \"#utility.yul\":4067:4160   */\n      tag_226\n        /* \"#utility.yul\":4156:4159   */\n      dup3\n        /* \"#utility.yul\":4067:4160   */\n      tag_164\n      jump\t// in\n    tag_226:\n        /* \"#utility.yul\":4185:4187   */\n      0x40\n        /* \"#utility.yul\":4180:4183   */\n      dup3\n        /* \"#utility.yul\":4176:4188   */\n      add\n        /* \"#utility.yul\":4169:4188   */\n      swap1\n      pop\n        /* \"#utility.yul\":3828:4194   */\n      swap2\n      swap1\n      pop\n      jump\t// out\n        /* \"#utility.yul\":4200:4619   */\n    tag_94:\n        /* \"#utility.yul\":4366:4370   */\n      0x00\n        /* \"#utility.yul\":4404:4406   */\n      0x20\n        /* \"#utility.yul\":4393:4402   */\n      dup3\n        /* \"#utility.yul\":4389:4407   */\n      add\n        /* \"#utility.yul\":4381:4407   */\n      swap1\n      pop\n        /* \"#utility.yul\":4453:4462   */\n      dup2\n        /* \"#utility.yul\":4447:4451   */\n      dup2\n        /* \"#utility.yul\":4443:4463   */\n      sub\n        /* \"#utility.yul\":4439:4440   */\n      0x00\n        /* \"#utility.yul\":4428:4437   */\n      dup4\n        /* \"#utility.yul\":4424:4441   */\n      add\n        /* \"#utility.yul\":4417:4464   */\n      mstore\n        /* \"#utility.yul\":4481:4612   */\n      tag_228\n        /* \"#utility.yul\":4607:4611   */\n      dup2\n        /* \"#utility.yul\":4481:4612   */\n      tag_165\n      jump\t// in\n    tag_228:\n        /* \"#utility.yul\":4473:4612   */\n      swap1\n      pop\n        /* \"#utility.yul\":4200:4619   */\n      swap2\n      swap1\n      pop\n      jump\t// out\n        /* \"#utility.yul\":4625:4799   */\n    tag_166:\n        /* \"#utility.yul\":4765:4791   */\n      0x302e303033204554482069732072657175697265642121210000000000000000\n        /* \"#utility.yul\":4761:4762   */\n      0x00\n        /* \"#utility.yul\":4753:4759   */\n      dup3\n        /* \"#utility.yul\":4749:4763   */\n      add\n        /* \"#utility.yul\":4742:4792   */\n      mstore\n        /* \"#utility.yul\":4625:4799   */\n      pop\n      jump\t// out\n        /* \"#utility.yul\":4805:5171   */\n    tag_167:\n        /* \"#utility.yul\":4947:4950   */\n      0x00\n        /* \"#utility.yul\":4968:5035   */\n      tag_231\n        /* \"#utility.yul\":5032:5034   */\n      0x18\n        /* \"#utility.yul\":5027:5030   */\n      dup4\n        /* \"#utility.yul\":4968:5035   */\n      tag_161\n      jump\t// in\n    tag_231:\n        /* \"#utility.yul\":4961:5035   */\n      swap2\n      pop\n        /* \"#utility.yul\":5044:5137   */\n      tag_232\n        /* \"#utility.yul\":5133:5136   */\n      dup3\n        /* \"#utility.yul\":5044:5137   */\n      tag_166\n      jump\t// in\n    tag_232:\n        /* \"#utility.yul\":5162:5164   */\n      0x20\n        /* \"#utility.yul\":5157:5160   */\n      dup3\n        /* \"#utility.yul\":5153:5165   */\n      add\n        /* \"#utility.yul\":5146:5165   */\n      swap1\n      pop\n        /* \"#utility.yul\":4805:5171   */\n      swap2\n      swap1\n      pop\n      jump\t// out\n        /* \"#utility.yul\":5177:5596   */\n    tag_97:\n        /* \"#utility.yul\":5343:5347   */\n      0x00\n        /* \"#utility.yul\":5381:5383   */\n      0x20\n        /* \"#utility.yul\":5370:5379   */\n      dup3\n        /* \"#utility.yul\":5366:5384   */\n      add\n        /* \"#utility.yul\":5358:5384   */\n      swap1\n      pop\n        /* \"#utility.yul\":5430:5439   */\n      dup2\n        /* \"#utility.yul\":5424:5428   */\n      dup2\n        /* \"#utility.yul\":5420:5440   */\n      sub\n        /* \"#utility.yul\":5416:5417   */\n      0x00\n        /* \"#utility.yul\":5405:5414   */\n      dup4\n        /* \"#utility.yul\":5401:5418   */\n      add\n        /* \"#utility.yul\":5394:5441   */\n      mstore\n        /* \"#utility.yul\":5458:5589   */\n      tag_234\n        /* \"#utility.yul\":5584:5588   */\n      dup2\n        /* \"#utility.yul\":5458:5589   */\n      tag_167\n      jump\t// in\n    tag_234:\n        /* \"#utility.yul\":5450:5589   */\n      swap1\n      pop\n        /* \"#utility.yul\":5177:5596   */\n      swap2\n      swap1\n      pop\n      jump\t// out\n        /* \"#utility.yul\":5602:5782   */\n    tag_168:\n        /* \"#utility.yul\":5742:5774   */\n      0x4f6e6c7920617262697465722063616e2072656c656173652066756e64730000\n        /* \"#utility.yul\":5738:5739   */\n      0x00\n        /* \"#utility.yul\":5730:5736   */\n      dup3\n        /* \"#utility.yul\":5726:5740   */\n      add\n        /* \"#utility.yul\":5719:5775   */\n      mstore\n        /* \"#utility.yul\":5602:5782   */\n      pop\n      jump\t// out\n        /* \"#utility.yul\":5788:6154   */\n    tag_169:\n        /* \"#utility.yul\":5930:5933   */\n      0x00\n        /* \"#utility.yul\":5951:6018   */\n      tag_237\n        /* \"#utility.yul\":6015:6017   */\n      0x1e\n        /* \"#utility.yul\":6010:6013   */\n      dup4\n        /* \"#utility.yul\":5951:6018   */\n      tag_161\n      jump\t// in\n    tag_237:\n        /* \"#utility.yul\":5944:6018   */\n      swap2\n      pop\n        /* \"#utility.yul\":6027:6120   */\n      tag_238\n        /* \"#utility.yul\":6116:6119   */\n      dup3\n        /* \"#utility.yul\":6027:6120   */\n      tag_168\n      jump\t// in\n    tag_238:\n        /* \"#utility.yul\":6145:6147   */\n      0x20\n        /* \"#utility.yul\":6140:6143   */\n      dup3\n        /* \"#utility.yul\":6136:6148   */\n      add\n        /* \"#utility.yul\":6129:6148   */\n      swap1\n      pop\n        /* \"#utility.yul\":5788:6154   */\n      swap2\n      swap1\n      pop\n      jump\t// out\n        /* \"#utility.yul\":6160:6579   */\n    tag_101:\n        /* \"#utility.yul\":6326:6330   */\n      0x00\n        /* \"#utility.yul\":6364:6366   */\n      0x20\n        /* \"#utility.yul\":6353:6362   */\n      dup3\n        /* \"#utility.yul\":6349:6367   */\n      add\n        /* \"#utility.yul\":6341:6367   */\n      swap1\n      pop\n        /* \"#utility.yul\":6413:6422   */\n      dup2\n        /* \"#utility.yul\":6407:6411   */\n      dup2\n        /* \"#utility.yul\":6403:6423   */\n      sub\n        /* \"#utility.yul\":6399:6400   */\n      0x00\n        /* \"#utility.yul\":6388:6397   */\n      dup4\n        /* \"#utility.yul\":6384:6401   */\n      add\n        /* \"#utility.yul\":6377:6424   */\n      mstore\n        /* \"#utility.yul\":6441:6572   */\n      tag_240\n        /* \"#utility.yul\":6567:6571   */\n      dup2\n        /* \"#utility.yul\":6441:6572   */\n      tag_169\n      jump\t// in\n    tag_240:\n        /* \"#utility.yul\":6433:6572   */\n      swap1\n      pop\n        /* \"#utility.yul\":6160:6579   */\n      swap2\n      swap1\n      pop\n      jump\t// out\n        /* \"#utility.yul\":6585:6754   */\n    tag_170:\n        /* \"#utility.yul\":6725:6746   */\n      0x4e6f2066756e647320746f2072656c6561736500000000000000000000000000\n        /* \"#utility.yul\":6721:6722   */\n      0x00\n        /* \"#utility.yul\":6713:6719   */\n      dup3\n        /* \"#utility.yul\":6709:6723   */\n      add\n        /* \"#utility.yul\":6702:6747   */\n      mstore\n        /* \"#utility.yul\":6585:6754   */\n      pop\n      jump\t// out\n        /* \"#utility.yul\":6760:7126   */\n    tag_171:\n        /* \"#utility.yul\":6902:6905   */\n      0x00\n        /* \"#utility.yul\":6923:6990   */\n      tag_243\n        /* \"#utility.yul\":6987:6989   */\n      0x13\n        /* \"#utility.yul\":6982:6985   */\n      dup4\n        /* \"#utility.yul\":6923:6990   */\n      tag_161\n      jump\t// in\n    tag_243:\n        /* \"#utility.yul\":6916:6990   */\n      swap2\n      pop\n        /* \"#utility.yul\":6999:7092   */\n      tag_244\n        /* \"#utility.yul\":7088:7091   */\n      dup3\n        /* \"#utility.yul\":6999:7092   */\n      tag_170\n      jump\t// in\n    tag_244:\n        /* \"#utility.yul\":7117:7119   */\n      0x20\n        /* \"#utility.yul\":7112:7115   */\n      dup3\n        /* \"#utility.yul\":7108:7120   */\n      add\n        /* \"#utility.yul\":7101:7120   */\n      swap1\n      pop\n        /* \"#utility.yul\":6760:7126   */\n      swap2\n      swap1\n      pop\n      jump\t// out\n        /* \"#utility.yul\":7132:7551   */\n    tag_105:\n        /* \"#utility.yul\":7298:7302   */\n      0x00\n        /* \"#utility.yul\":7336:7338   */\n      0x20\n        /* \"#utility.yul\":7325:7334   */\n      dup3\n        /* \"#utility.yul\":7321:7339   */\n      add\n        /* \"#utility.yul\":7313:7339   */\n      swap1\n      pop\n        /* \"#utility.yul\":7385:7394   */\n      dup2\n        /* \"#utility.yul\":7379:7383   */\n      dup2\n        /* \"#utility.yul\":7375:7395   */\n      sub\n        /* \"#utility.yul\":7371:7372   */\n      0x00\n        /* \"#utility.yul\":7360:7369   */\n      dup4\n        /* \"#utility.yul\":7356:7373   */\n      add\n        /* \"#utility.yul\":7349:7396   */\n      mstore\n        /* \"#utility.yul\":7413:7544   */\n      tag_246\n        /* \"#utility.yul\":7539:7543   */\n      dup2\n        /* \"#utility.yul\":7413:7544   */\n      tag_171\n      jump\t// in\n    tag_246:\n        /* \"#utility.yul\":7405:7544   */\n      swap1\n      pop\n        /* \"#utility.yul\":7132:7551   */\n      swap2\n      swap1\n      pop\n      jump\t// out\n        /* \"#utility.yul\":7557:7729   */\n    tag_172:\n        /* \"#utility.yul\":7697:7721   */\n      0x46756e647320616c72656164792072656c656173656400000000000000000000\n        /* \"#utility.yul\":7693:7694   */\n      0x00\n        /* \"#utility.yul\":7685:7691   */\n      dup3\n        /* \"#utility.yul\":7681:7695   */\n      add\n        /* \"#utility.yul\":7674:7722   */\n      mstore\n        /* \"#utility.yul\":7557:7729   */\n      pop\n      jump\t// out\n        /* \"#utility.yul\":7735:8101   */\n    tag_173:\n        /* \"#utility.yul\":7877:7880   */\n      0x00\n        /* \"#utility.yul\":7898:7965   */\n      tag_249\n        /* \"#utility.yul\":7962:7964   */\n      0x16\n        /* \"#utility.yul\":7957:7960   */\n      dup4\n        /* \"#utility.yul\":7898:7965   */\n      tag_161\n      jump\t// in\n    tag_249:\n        /* \"#utility.yul\":7891:7965   */\n      swap2\n      pop\n        /* \"#utility.yul\":7974:8067   */\n      tag_250\n        /* \"#utility.yul\":8063:8066   */\n      dup3\n        /* \"#utility.yul\":7974:8067   */\n      tag_172\n      jump\t// in\n    tag_250:\n        /* \"#utility.yul\":8092:8094   */\n      0x20\n        /* \"#utility.yul\":8087:8090   */\n      dup3\n        /* \"#utility.yul\":8083:8095   */\n      add\n        /* \"#utility.yul\":8076:8095   */\n      swap1\n      pop\n        /* \"#utility.yul\":7735:8101   */\n      swap2\n      swap1\n      pop\n      jump\t// out\n        /* \"#utility.yul\":8107:8526   */\n    tag_108:\n        /* \"#utility.yul\":8273:8277   */\n      0x00\n        /* \"#utility.yul\":8311:8313   */\n      0x20\n        /* \"#utility.yul\":8300:8309   */\n      dup3\n        /* \"#utility.yul\":8296:8314   */\n      add\n        /* \"#utility.yul\":8288:8314   */\n      swap1\n      pop\n        /* \"#utility.yul\":8360:8369   */\n      dup2\n        /* \"#utility.yul\":8354:8358   */\n      dup2\n        /* \"#utility.yul\":8350:8370   */\n      sub\n        /* \"#utility.yul\":8346:8347   */\n      0x00\n        /* \"#utility.yul\":8335:8344   */\n      dup4\n        /* \"#utility.yul\":8331:8348   */\n      add\n        /* \"#utility.yul\":8324:8371   */\n      mstore\n        /* \"#utility.yul\":8388:8519   */\n      tag_252\n        /* \"#utility.yul\":8514:8518   */\n      dup2\n        /* \"#utility.yul\":8388:8519   */\n      tag_173\n      jump\t// in\n    tag_252:\n        /* \"#utility.yul\":8380:8519   */\n      swap1\n      pop\n        /* \"#utility.yul\":8107:8526   */\n      swap2\n      swap1\n      pop\n      jump\t// out\n        /* \"#utility.yul\":8532:8712   */\n    tag_174:\n        /* \"#utility.yul\":8672:8704   */\n      0x4275796572206973206e6f206c6f6e67657220696e74657265737465642e0000\n        /* \"#utility.yul\":8668:8669   */\n      0x00\n        /* \"#utility.yul\":8660:8666   */\n      dup3\n        /* \"#utility.yul\":8656:8670   */\n      add\n        /* \"#utility.yul\":8649:8705   */\n      mstore\n        /* \"#utility.yul\":8532:8712   */\n      pop\n      jump\t// out\n        /* \"#utility.yul\":8718:9084   */\n    tag_175:\n        /* \"#utility.yul\":8860:8863   */\n      0x00\n        /* \"#utility.yul\":8881:8948   */\n      tag_255\n        /* \"#utility.yul\":8945:8947   */\n      0x1e\n        /* \"#utility.yul\":8940:8943   */\n      dup4\n        /* \"#utility.yul\":8881:8948   */\n      tag_161\n      jump\t// in\n    tag_255:\n        /* \"#utility.yul\":8874:8948   */\n      swap2\n      pop\n        /* \"#utility.yul\":8957:9050   */\n      tag_256\n        /* \"#utility.yul\":9046:9049   */\n      dup3\n        /* \"#utility.yul\":8957:9050   */\n      tag_174\n      jump\t// in\n    tag_256:\n        /* \"#utility.yul\":9075:9077   */\n      0x20\n        /* \"#utility.yul\":9070:9073   */\n      dup3\n        /* \"#utility.yul\":9066:9078   */\n      add\n        /* \"#utility.yul\":9059:9078   */\n      swap1\n      pop\n        /* \"#utility.yul\":8718:9084   */\n      swap2\n      swap1\n      pop\n      jump\t// out\n        /* \"#utility.yul\":9090:9509   */\n    tag_111:\n        /* \"#utility.yul\":9256:9260   */\n      0x00\n        /* \"#utility.yul\":9294:9296   */\n      0x20\n        /* \"#utility.yul\":9283:9292   */\n      dup3\n        /* \"#utility.yul\":9279:9297   */\n      add\n        /* \"#utility.yul\":9271:9297   */\n      swap1\n      pop\n        /* \"#utility.yul\":9343:9352   */\n      dup2\n        /* \"#utility.yul\":9337:9341   */\n      dup2\n        /* \"#utility.yul\":9333:9353   */\n      sub\n        /* \"#utility.yul\":9329:9330   */\n      0x00\n        /* \"#utility.yul\":9318:9327   */\n      dup4\n        /* \"#utility.yul\":9314:9331   */\n      add\n        /* \"#utility.yul\":9307:9354   */\n      mstore\n        /* \"#utility.yul\":9371:9502   */\n      tag_258\n        /* \"#utility.yul\":9497:9501   */\n      dup2\n        /* \"#utility.yul\":9371:9502   */\n      tag_175\n      jump\t// in\n    tag_258:\n        /* \"#utility.yul\":9363:9502   */\n      swap1\n      pop\n        /* \"#utility.yul\":9090:9509   */\n      swap2\n      swap1\n      pop\n      jump\t// out\n        /* \"#utility.yul\":9515:9692   */\n    tag_176:\n        /* \"#utility.yul\":9655:9684   */\n      0x436f6e74726163742069732079657420746f20626520736f6c642e0000000000\n        /* \"#utility.yul\":9651:9652   */\n      0x00\n        /* \"#utility.yul\":9643:9649   */\n      dup3\n        /* \"#utility.yul\":9639:9653   */\n      add\n        /* \"#utility.yul\":9632:9685   */\n      mstore\n        /* \"#utility.yul\":9515:9692   */\n      pop\n      jump\t// out\n        /* \"#utility.yul\":9698:10064   */\n    tag_177:\n        /* \"#utility.yul\":9840:9843   */\n      0x00\n        /* \"#utility.yul\":9861:9928   */\n      tag_261\n        /* \"#utility.yul\":9925:9927   */\n      0x1b\n        /* \"#utility.yul\":9920:9923   */\n      dup4\n        /* \"#utility.yul\":9861:9928   */\n      tag_161\n      jump\t// in\n    tag_261:\n        /* \"#utility.yul\":9854:9928   */\n      swap2\n      pop\n        /* \"#utility.yul\":9937:10030   */\n      tag_262\n        /* \"#utility.yul\":10026:10029   */\n      dup3\n        /* \"#utility.yul\":9937:10030   */\n      tag_176\n      jump\t// in\n    tag_262:\n        /* \"#utility.yul\":10055:10057   */\n      0x20\n        /* \"#utility.yul\":10050:10053   */\n      dup3\n        /* \"#utility.yul\":10046:10058   */\n      add\n        /* \"#utility.yul\":10039:10058   */\n      swap1\n      pop\n        /* \"#utility.yul\":9698:10064   */\n      swap2\n      swap1\n      pop\n      jump\t// out\n        /* \"#utility.yul\":10070:10489   */\n    tag_114:\n        /* \"#utility.yul\":10236:10240   */\n      0x00\n        /* \"#utility.yul\":10274:10276   */\n      0x20\n        /* \"#utility.yul\":10263:10272   */\n      dup3\n        /* \"#utility.yul\":10259:10277   */\n      add\n        /* \"#utility.yul\":10251:10277   */\n      swap1\n      pop\n        /* \"#utility.yul\":10323:10332   */\n      dup2\n        /* \"#utility.yul\":10317:10321   */\n      dup2\n        /* \"#utility.yul\":10313:10333   */\n      sub\n        /* \"#utility.yul\":10309:10310   */\n      0x00\n        /* \"#utility.yul\":10298:10307   */\n      dup4\n        /* \"#utility.yul\":10294:10311   */\n      add\n        /* \"#utility.yul\":10287:10334   */\n      mstore\n        /* \"#utility.yul\":10351:10482   */\n      tag_264\n        /* \"#utility.yul\":10477:10481   */\n      dup2\n        /* \"#utility.yul\":10351:10482   */\n      tag_177\n      jump\t// in\n    tag_264:\n        /* \"#utility.yul\":10343:10482   */\n      swap1\n      pop\n        /* \"#utility.yul\":10070:10489   */\n      swap2\n      swap1\n      pop\n      jump\t// out\n        /* \"#utility.yul\":10495:10675   */\n    tag_178:\n        /* \"#utility.yul\":10635:10667   */\n      0x4f6e6c792062757965722063616e206368616e676520696e7465726573740000\n        /* \"#utility.yul\":10631:10632   */\n      0x00\n        /* \"#utility.yul\":10623:10629   */\n      dup3\n        /* \"#utility.yul\":10619:10633   */\n      add\n        /* \"#utility.yul\":10612:10668   */\n      mstore\n        /* \"#utility.yul\":10495:10675   */\n      pop\n      jump\t// out\n        /* \"#utility.yul\":10681:11047   */\n    tag_179:\n        /* \"#utility.yul\":10823:10826   */\n      0x00\n        /* \"#utility.yul\":10844:10911   */\n      tag_267\n        /* \"#utility.yul\":10908:10910   */\n      0x1e\n        /* \"#utility.yul\":10903:10906   */\n      dup4\n        /* \"#utility.yul\":10844:10911   */\n      tag_161\n      jump\t// in\n    tag_267:\n        /* \"#utility.yul\":10837:10911   */\n      swap2\n      pop\n        /* \"#utility.yul\":10920:11013   */\n      tag_268\n        /* \"#utility.yul\":11009:11012   */\n      dup3\n        /* \"#utility.yul\":10920:11013   */\n      tag_178\n      jump\t// in\n    tag_268:\n        /* \"#utility.yul\":11038:11040   */\n      0x20\n        /* \"#utility.yul\":11033:11036   */\n      dup3\n        /* \"#utility.yul\":11029:11041   */\n      add\n        /* \"#utility.yul\":11022:11041   */\n      swap1\n      pop\n        /* \"#utility.yul\":10681:11047   */\n      swap2\n      swap1\n      pop\n      jump\t// out\n        /* \"#utility.yul\":11053:11472   */\n    tag_120:\n        /* \"#utility.yul\":11219:11223   */\n      0x00\n        /* \"#utility.yul\":11257:11259   */\n      0x20\n        /* \"#utility.yul\":11246:11255   */\n      dup3\n        /* \"#utility.yul\":11242:11260   */\n      add\n        /* \"#utility.yul\":11234:11260   */\n      swap1\n      pop\n        /* \"#utility.yul\":11306:11315   */\n      dup2\n        /* \"#utility.yul\":11300:11304   */\n      dup2\n        /* \"#utility.yul\":11296:11316   */\n      sub\n        /* \"#utility.yul\":11292:11293   */\n      0x00\n        /* \"#utility.yul\":11281:11290   */\n      dup4\n        /* \"#utility.yul\":11277:11294   */\n      add\n        /* \"#utility.yul\":11270:11317   */\n      mstore\n        /* \"#utility.yul\":11334:11465   */\n      tag_270\n        /* \"#utility.yul\":11460:11464   */\n      dup2\n        /* \"#utility.yul\":11334:11465   */\n      tag_179\n      jump\t// in\n    tag_270:\n        /* \"#utility.yul\":11326:11465   */\n      swap1\n      pop\n        /* \"#utility.yul\":11053:11472   */\n      swap2\n      swap1\n      pop\n      jump\t// out\n        /* \"#utility.yul\":11478:11656   */\n    tag_180:\n        /* \"#utility.yul\":11618:11648   */\n      0x4f6e6c79207468652063757272656e74206f776e65722073656c6c2e00000000\n        /* \"#utility.yul\":11614:11615   */\n      0x00\n        /* \"#utility.yul\":11606:11612   */\n      dup3\n        /* \"#utility.yul\":11602:11616   */\n      add\n        /* \"#utility.yul\":11595:11649   */\n      mstore\n        /* \"#utility.yul\":11478:11656   */\n      pop\n      jump\t// out\n        /* \"#utility.yul\":11662:12028   */\n    tag_181:\n        /* \"#utility.yul\":11804:11807   */\n      0x00\n        /* \"#utility.yul\":11825:11892   */\n      tag_273\n        /* \"#utility.yul\":11889:11891   */\n      0x1c\n        /* \"#utility.yul\":11884:11887   */\n      dup4\n        /* \"#utility.yul\":11825:11892   */\n      tag_161\n      jump\t// in\n    tag_273:\n        /* \"#utility.yul\":11818:11892   */\n      swap2\n      pop\n        /* \"#utility.yul\":11901:11994   */\n      tag_274\n        /* \"#utility.yul\":11990:11993   */\n      dup3\n        /* \"#utility.yul\":11901:11994   */\n      tag_180\n      jump\t// in\n    tag_274:\n        /* \"#utility.yul\":12019:12021   */\n      0x20\n        /* \"#utility.yul\":12014:12017   */\n      dup3\n        /* \"#utility.yul\":12010:12022   */\n      add\n        /* \"#utility.yul\":12003:12022   */\n      swap1\n      pop\n        /* \"#utility.yul\":11662:12028   */\n      swap2\n      swap1\n      pop\n      jump\t// out\n        /* \"#utility.yul\":12034:12453   */\n    tag_127:\n        /* \"#utility.yul\":12200:12204   */\n      0x00\n        /* \"#utility.yul\":12238:12240   */\n      0x20\n        /* \"#utility.yul\":12227:12236   */\n      dup3\n        /* \"#utility.yul\":12223:12241   */\n      add\n        /* \"#utility.yul\":12215:12241   */\n      swap1\n      pop\n        /* \"#utility.yul\":12287:12296   */\n      dup2\n        /* \"#utility.yul\":12281:12285   */\n      dup2\n        /* \"#utility.yul\":12277:12297   */\n      sub\n        /* \"#utility.yul\":12273:12274   */\n      0x00\n        /* \"#utility.yul\":12262:12271   */\n      dup4\n        /* \"#utility.yul\":12258:12275   */\n      add\n        /* \"#utility.yul\":12251:12298   */\n      mstore\n        /* \"#utility.yul\":12315:12446   */\n      tag_276\n        /* \"#utility.yul\":12441:12445   */\n      dup2\n        /* \"#utility.yul\":12315:12446   */\n      tag_181\n      jump\t// in\n    tag_276:\n        /* \"#utility.yul\":12307:12446   */\n      swap1\n      pop\n        /* \"#utility.yul\":12034:12453   */\n      swap2\n      swap1\n      pop\n      jump\t// out\n        /* \"#utility.yul\":12459:12627   */\n    tag_182:\n        /* \"#utility.yul\":12599:12619   */\n      0x4e6f2066756e647320746f20726566756e640000000000000000000000000000\n        /* \"#utility.yul\":12595:12596   */\n      0x00\n        /* \"#utility.yul\":12587:12593   */\n      dup3\n        /* \"#utility.yul\":12583:12597   */\n      add\n        /* \"#utility.yul\":12576:12620   */\n      mstore\n        /* \"#utility.yul\":12459:12627   */\n      pop\n      jump\t// out\n        /* \"#utility.yul\":12633:12999   */\n    tag_183:\n        /* \"#utility.yul\":12775:12778   */\n      0x00\n        /* \"#utility.yul\":12796:12863   */\n      tag_279\n        /* \"#utility.yul\":12860:12862   */\n      0x12\n        /* \"#utility.yul\":12855:12858   */\n      dup4\n        /* \"#utility.yul\":12796:12863   */\n      tag_161\n      jump\t// in\n    tag_279:\n        /* \"#utility.yul\":12789:12863   */\n      swap2\n      pop\n        /* \"#utility.yul\":12872:12965   */\n      tag_280\n        /* \"#utility.yul\":12961:12964   */\n      dup3\n        /* \"#utility.yul\":12872:12965   */\n      tag_182\n      jump\t// in\n    tag_280:\n        /* \"#utility.yul\":12990:12992   */\n      0x20\n        /* \"#utility.yul\":12985:12988   */\n      dup3\n        /* \"#utility.yul\":12981:12993   */\n      add\n        /* \"#utility.yul\":12974:12993   */\n      swap1\n      pop\n        /* \"#utility.yul\":12633:12999   */\n      swap2\n      swap1\n      pop\n      jump\t// out\n        /* \"#utility.yul\":13005:13424   */\n    tag_143:\n        /* \"#utility.yul\":13171:13175   */\n      0x00\n        /* \"#utility.yul\":13209:13211   */\n      0x20\n        /* \"#utility.yul\":13198:13207   */\n      dup3\n        /* \"#utility.yul\":13194:13212   */\n      add\n        /* \"#utility.yul\":13186:13212   */\n      swap1\n      pop\n        /* \"#utility.yul\":13258:13267   */\n      dup2\n        /* \"#utility.yul\":13252:13256   */\n      dup2\n        /* \"#utility.yul\":13248:13268   */\n      sub\n        /* \"#utility.yul\":13244:13245   */\n      0x00\n        /* \"#utility.yul\":13233:13242   */\n      dup4\n        /* \"#utility.yul\":13229:13246   */\n      add\n        /* \"#utility.yul\":13222:13269   */\n      mstore\n        /* \"#utility.yul\":13286:13417   */\n      tag_282\n        /* \"#utility.yul\":13412:13416   */\n      dup2\n        /* \"#utility.yul\":13286:13417   */\n      tag_183\n      jump\t// in\n    tag_282:\n        /* \"#utility.yul\":13278:13417   */\n      swap1\n      pop\n        /* \"#utility.yul\":13005:13424   */\n      swap2\n      swap1\n      pop\n      jump\t// out\n        /* \"#utility.yul\":13430:13606   */\n    tag_184:\n        /* \"#utility.yul\":13570:13598   */\n      0x4275796572206973207374696c6c20696e74657265737465642e000000000000\n        /* \"#utility.yul\":13566:13567   */\n      0x00\n        /* \"#utility.yul\":13558:13564   */\n      dup3\n        /* \"#utility.yul\":13554:13568   */\n      add\n        /* \"#utility.yul\":13547:13599   */\n      mstore\n        /* \"#utility.yul\":13430:13606   */\n      pop\n      jump\t// out\n        /* \"#utility.yul\":13612:13978   */\n    tag_185:\n        /* \"#utility.yul\":13754:13757   */\n      0x00\n        /* \"#utility.yul\":13775:13842   */\n      tag_285\n        /* \"#utility.yul\":13839:13841   */\n      0x1a\n        /* \"#utility.yul\":13834:13837   */\n      dup4\n        /* \"#utility.yul\":13775:13842   */\n      tag_161\n      jump\t// in\n    tag_285:\n        /* \"#utility.yul\":13768:13842   */\n      swap2\n      pop\n        /* \"#utility.yul\":13851:13944   */\n      tag_286\n        /* \"#utility.yul\":13940:13943   */\n      dup3\n        /* \"#utility.yul\":13851:13944   */\n      tag_184\n      jump\t// in\n    tag_286:\n        /* \"#utility.yul\":13969:13971   */\n      0x20\n        /* \"#utility.yul\":13964:13967   */\n      dup3\n        /* \"#utility.yul\":13960:13972   */\n      add\n        /* \"#utility.yul\":13953:13972   */\n      swap1\n      pop\n        /* \"#utility.yul\":13612:13978   */\n      swap2\n      swap1\n      pop\n      jump\t// out\n        /* \"#utility.yul\":13984:14403   */\n    tag_146:\n        /* \"#utility.yul\":14150:14154   */\n      0x00\n        /* \"#utility.yul\":14188:14190   */\n      0x20\n        /* \"#utility.yul\":14177:14186   */\n      dup3\n        /* \"#utility.yul\":14173:14191   */\n      add\n        /* \"#utility.yul\":14165:14191   */\n      swap1\n      pop\n        /* \"#utility.yul\":14237:14246   */\n      dup2\n        /* \"#utility.yul\":14231:14235   */\n      dup2\n        /* \"#utility.yul\":14227:14247   */\n      sub\n        /* \"#utility.yul\":14223:14224   */\n      0x00\n        /* \"#utility.yul\":14212:14221   */\n      dup4\n        /* \"#utility.yul\":14208:14225   */\n      add\n        /* \"#utility.yul\":14201:14248   */\n      mstore\n        /* \"#utility.yul\":14265:14396   */\n      tag_288\n        /* \"#utility.yul\":14391:14395   */\n      dup2\n        /* \"#utility.yul\":14265:14396   */\n      tag_185\n      jump\t// in\n    tag_288:\n        /* \"#utility.yul\":14257:14396   */\n      swap1\n      pop\n        /* \"#utility.yul\":13984:14403   */\n      swap2\n      swap1\n      pop\n      jump\t// out\n\n    auxdata: 0xa264697066735822122038a8f97de851af76783bb8e74ca5b3fbbc8ee3232685c7aa82dcfb6a9024987e64736f6c634300081e0033\n}\n",
				"bytecode": {
					"linkReferences": {},
					"object": "608060405234801561000f575f5ffd5b5060405161171938038061171983398181016040528101906100319190610115565b336003806101000a81548173ffffffffffffffffffffffffffffffffffffffff021916908373ffffffffffffffffffffffffffffffffffffffff1602179055508060015f6101000a81548173ffffffffffffffffffffffffffffffffffffffff021916908373ffffffffffffffffffffffffffffffffffffffff16021790555050610140565b5f5ffd5b5f73ffffffffffffffffffffffffffffffffffffffff82169050919050565b5f6100e4826100bb565b9050919050565b6100f4816100da565b81146100fe575f5ffd5b50565b5f8151905061010f816100eb565b92915050565b5f6020828403121561012a576101296100b7565b5b5f61013784828501610101565b91505092915050565b6115cc8061014d5f395ff3fe6080604052600436106100f2575f3560e01c806391b7f5ed11610089578063dffe7bbc11610058578063dffe7bbc1461027c578063e8a61cc8146102a6578063fa2a8997146102bc578063fe25e00a146102e6576100f2565b806391b7f5ed146101ea578063a035b1fe14610212578063c392f7661461023c578063de7c62a814610266576100f2565b80637c654303116100c55780637c6543031461016a5780637cce2668146101945780638da5cb5b146101aa5780639086e838146101d4576100f2565b806312065fe0146100f65780632c23f7f81461012057806369d895751461012a5780637150d8ae14610140575b5f5ffd5b348015610101575f5ffd5b5061010a610310565b6040516101179190610f5d565b60405180910390f35b610128610317565b005b348015610135575f5ffd5b5061013e610644565b005b34801561014b575f5ffd5b506101546108f0565b6040516101619190610fb5565b60405180910390f35b348015610175575f5ffd5b5061017e610914565b60405161018b9190610fe8565b60405180910390f35b34801561019f575f5ffd5b506101a8610926565b005b3480156101b5575f5ffd5b506101be6109d1565b6040516101cb9190610fb5565b60405180910390f35b3480156101df575f5ffd5b506101e86109f5565b005b3480156101f5575f5ffd5b50610210600480360381019061020b919061102f565b610a9f565b005b34801561021d575f5ffd5b50610226610b37565b6040516102339190610f5d565b60405180910390f35b348015610247575f5ffd5b50610250610b3d565b60405161025d9190610fe8565b60405180910390f35b348015610271575f5ffd5b5061027a610b50565b005b348015610287575f5ffd5b50610290610d3a565b60405161029d9190610fb5565b60405180910390f35b3480156102b1575f5ffd5b506102ba610d5f565b005b3480156102c7575f5ffd5b506102d0610f0d565b6040516102dd9190610fe8565b60405180910390f35b3480156102f1575f5ffd5b506102fa610f20565b6040516103079190610fb5565b60405180910390f35b5f47905090565b60038054906101000a900473ffffffffffffffffffffffffffffffffffffffff1673ffffffffffffffffffffffffffffffffffffffff163373ffffffffffffffffffffffffffffffffffffffff161480156103be575060015f9054906101000a900473ffffffffffffffffffffffffffffffffffffffff1673ffffffffffffffffffffffffffffffffffffffff163373ffffffffffffffffffffffffffffffffffffffff16145b15610408573373ffffffffffffffffffffffffffffffffffffffff166108fc3490811502906040515f60405180830381858888f19350505050158015610406573d5f5f3e3d5ffd5b505b60038054906101000a900473ffffffffffffffffffffffffffffffffffffffff1673ffffffffffffffffffffffffffffffffffffffff163373ffffffffffffffffffffffffffffffffffffffff16141580156104b1575060015f9054906101000a900473ffffffffffffffffffffffffffffffffffffffff1673ffffffffffffffffffffffffffffffffffffffff163373ffffffffffffffffffffffffffffffffffffffff1614155b6104f0576040517f08c379a00000000000000000000000000000000000000000000000000000000081526004016104e7906110da565b60405180910390fd5b5f5f9054906101000a900473ffffffffffffffffffffffffffffffffffffffff1673ffffffffffffffffffffffffffffffffffffffff163373ffffffffffffffffffffffffffffffffffffffff160361057e576040517f08c379a000000000000000000000000000000000000000000000000000000000815260040161057590611168565b60405180910390fd5b660aa87bee53800034146105c7576040517f08c379a00000000000000000000000000000000000000000000000000000000081526004016105be906111d0565b60405180910390fd5b34600281905550600160035f6101000a81548160ff021916908315150217905550335f5f6101000a81548173ffffffffffffffffffffffffffffffffffffffff021916908373ffffffffffffffffffffffffffffffffffffffff1602179055506001600360026101000a81548160ff021916908315150217905550565b60015f9054906101000a900473ffffffffffffffffffffffffffffffffffffffff1673ffffffffffffffffffffffffffffffffffffffff163373ffffffffffffffffffffffffffffffffffffffff16146106d3576040517f08c379a00000000000000000000000000000000000000000000000000000000081526004016106ca90611238565b60405180910390fd5b60035f9054906101000a900460ff16610721576040517f08c379a0000000000000000000000000000000000000000000000000000000008152600401610718906112a0565b60405180910390fd5b600360019054906101000a900460ff1615610771576040517f08c379a000000000000000000000000000000000000000000000000000000000815260040161076890611308565b60405180910390fd5b600360029054906101000a900460ff166107c0576040517f08c379a00000000000000000000000000000000000000000000000000000000081526004016107b790611370565b60405180910390fd5b5f5f9054906101000a900473ffffffffffffffffffffffffffffffffffffffff1673ffffffffffffffffffffffffffffffffffffffff1660038054906101000a900473ffffffffffffffffffffffffffffffffffffffff1673ffffffffffffffffffffffffffffffffffffffff161461086e576040517f08c379a0000000000000000000000000000000000000000000000000000000008152600401610865906113d8565b60405180910390fd5b5f60035f6101000a81548160ff02191690831515021790555060045f9054906101000a900473ffffffffffffffffffffffffffffffffffffffff1673ffffffffffffffffffffffffffffffffffffffff166108fc60025490811502906040515f60405180830381858888f193505050501580156108ed573d5f5f3e3d5ffd5b50565b5f5f9054906101000a900473ffffffffffffffffffffffffffffffffffffffff1681565b60035f9054906101000a900460ff1681565b5f5f9054906101000a900473ffffffffffffffffffffffffffffffffffffffff1673ffffffffffffffffffffffffffffffffffffffff163373ffffffffffffffffffffffffffffffffffffffff16146109b4576040517f08c379a00000000000000000000000000000000000000000000000000000000081526004016109ab90611440565b60405180910390fd5b6001600360026101000a81548160ff021916908315150217905550565b60038054906101000a900473ffffffffffffffffffffffffffffffffffffffff1681565b5f5f9054906101000a900473ffffffffffffffffffffffffffffffffffffffff1673ffffffffffffffffffffffffffffffffffffffff163373ffffffffffffffffffffffffffffffffffffffff1614610a83576040517f08c379a0000000000000000000000000000000000000000000000000000000008152600401610a7a90611440565b60405180910390fd5b5f600360026101000a81548160ff021916908315150217905550565b60038054906101000a900473ffffffffffffffffffffffffffffffffffffffff1673ffffffffffffffffffffffffffffffffffffffff163373ffffffffffffffffffffffffffffffffffffffff1614610b2d576040517f08c379a0000000000000000000000000000000000000000000000000000000008152600401610b24906114a8565b60405180910390fd5b8060028190555050565b60025481565b600360029054906101000a900460ff1681565b60038054906101000a900473ffffffffffffffffffffffffffffffffffffffff1673ffffffffffffffffffffffffffffffffffffffff163373ffffffffffffffffffffffffffffffffffffffff1614610bde576040517f08c379a0000000000000000000000000000000000000000000000000000000008152600401610bd5906114a8565b60405180910390fd5b660aa87bee53800060025414610c29576040517f08c379a0000000000000000000000000000000000000000000000000000000008152600401610c20906111d0565b60405180910390fd5b600360029054906101000a900460ff16610c78576040517f08c379a0000000000000000000000000000000000000000000000000000000008152600401610c6f90611370565b60405180910390fd5b60038054906101000a900473ffffffffffffffffffffffffffffffffffffffff1660045f6101000a81548173ffffffffffffffffffffffffffffffffffffffff021916908373ffffffffffffffffffffffffffffffffffffffff1602179055505f5f9054906101000a900473ffffffffffffffffffffffffffffffffffffffff166003806101000a81548173ffffffffffffffffffffffffffffffffffffffff021916908373ffffffffffffffffffffffffffffffffffffffff160217905550565b60045f9054906101000a900473ffffffffffffffffffffffffffffffffffffffff1681565b60015f9054906101000a900473ffffffffffffffffffffffffffffffffffffffff1673ffffffffffffffffffffffffffffffffffffffff163373ffffffffffffffffffffffffffffffffffffffff1614610dee576040517f08c379a0000000000000000000000000000000000000000000000000000000008152600401610de590611238565b60405180910390fd5b60035f9054906101000a900460ff16610e3c576040517f08c379a0000000000000000000000000000000000000000000000000000000008152600401610e3390611510565b60405180910390fd5b600360029054906101000a900460ff1615610e8c576040517f08c379a0000000000000000000000000000000000000000000000000000000008152600401610e8390611578565b60405180910390fd5b5f60035f6101000a81548160ff0219169083151502179055505f5f9054906101000a900473ffffffffffffffffffffffffffffffffffffffff1673ffffffffffffffffffffffffffffffffffffffff166108fc60025490811502906040515f60405180830381858888f19350505050158015610f0a573d5f5f3e3d5ffd5b50565b600360019054906101000a900460ff1681565b60015f9054906101000a900473ffffffffffffffffffffffffffffffffffffffff1681565b5f819050919050565b610f5781610f45565b82525050565b5f602082019050610f705f830184610f4e565b92915050565b5f73ffffffffffffffffffffffffffffffffffffffff82169050919050565b5f610f9f82610f76565b9050919050565b610faf81610f95565b82525050565b5f602082019050610fc85f830184610fa6565b92915050565b5f8115159050919050565b610fe281610fce565b82525050565b5f602082019050610ffb5f830184610fd9565b92915050565b5f5ffd5b61100e81610f45565b8114611018575f5ffd5b50565b5f8135905061102981611005565b92915050565b5f6020828403121561104457611043611001565b5b5f6110518482850161101b565b91505092915050565b5f82825260208201905092915050565b7f4f6e6c7920612062757965722063616e20706572666f726d20746869732061635f8201527f74696f6e21212100000000000000000000000000000000000000000000000000602082015250565b5f6110c460278361105a565b91506110cf8261106a565b604082019050919050565b5f6020820190508181035f8301526110f1816110b8565b9050919050565b7f596f752063616e6e6f7420627579206d6f7265207468616e206f6e636520696e5f8201527f206120726f6c6c21210000000000000000000000000000000000000000000000602082015250565b5f61115260298361105a565b915061115d826110f8565b604082019050919050565b5f6020820190508181035f83015261117f81611146565b9050919050565b7f302e3030332045544820697320726571756972656421212100000000000000005f82015250565b5f6111ba60188361105a565b91506111c582611186565b602082019050919050565b5f6020820190508181035f8301526111e7816111ae565b9050919050565b7f4f6e6c7920617262697465722063616e2072656c656173652066756e647300005f82015250565b5f611222601e8361105a565b915061122d826111ee565b602082019050919050565b5f6020820190508181035f83015261124f81611216565b9050919050565b7f4e6f2066756e647320746f2072656c65617365000000000000000000000000005f82015250565b5f61128a60138361105a565b915061129582611256565b602082019050919050565b5f6020820190508181035f8301526112b78161127e565b9050919050565b7f46756e647320616c72656164792072656c6561736564000000000000000000005f82015250565b5f6112f260168361105a565b91506112fd826112be565b602082019050919050565b5f6020820190508181035f83015261131f816112e6565b9050919050565b7f4275796572206973206e6f206c6f6e67657220696e74657265737465642e00005f82015250565b5f61135a601e8361105a565b915061136582611326565b602082019050919050565b5f6020820190508181035f8301526113878161134e565b9050919050565b7f436f6e74726163742069732079657420746f20626520736f6c642e00000000005f82015250565b5f6113c2601b8361105a565b91506113cd8261138e565b602082019050919050565b5f6020820190508181035f8301526113ef816113b6565b9050919050565b7f4f6e6c792062757965722063616e206368616e676520696e74657265737400005f82015250565b5f61142a601e8361105a565b9150611435826113f6565b602082019050919050565b5f6020820190508181035f8301526114578161141e565b9050919050565b7f4f6e6c79207468652063757272656e74206f776e65722073656c6c2e000000005f82015250565b5f611492601c8361105a565b915061149d8261145e565b602082019050919050565b5f6020820190508181035f8301526114bf81611486565b9050919050565b7f4e6f2066756e647320746f20726566756e6400000000000000000000000000005f82015250565b5f6114fa60128361105a565b9150611505826114c6565b602082019050919050565b5f6020820190508181035f830152611527816114ee565b9050919050565b7f4275796572206973207374696c6c20696e74657265737465642e0000000000005f82015250565b5f611562601a8361105a565b915061156d8261152e565b602082019050919050565b5f6020820190508181035f83015261158f81611556565b905091905056fea264697066735822122038a8f97de851af76783bb8e74ca5b3fbbc8ee3232685c7aa82dcfb6a9024987e64736f6c634300081e0033",
					"opcodes": "PUSH1 0x80 PUSH1 0x40 MSTORE CALLVALUE DUP1 ISZERO PUSH2 0xF JUMPI PUSH0 PUSH0 REVERT JUMPDEST POP PUSH1 0x40 MLOAD PUSH2 0x1719 CODESIZE SUB DUP1 PUSH2 0x1719 DUP4 CODECOPY DUP2 DUP2 ADD PUSH1 0x40 MSTORE DUP2 ADD SWAP1 PUSH2 0x31 SWAP2 SWAP1 PUSH2 0x115 JUMP JUMPDEST CALLER PUSH1 0x3 DUP1 PUSH2 0x100 EXP DUP2 SLOAD DUP2 PUSH20 0xFFFFFFFFFFFFFFFFFFFFFFFFFFFFFFFFFFFFFFFF MUL NOT AND SWAP1 DUP4 PUSH20 0xFFFFFFFFFFFFFFFFFFFFFFFFFFFFFFFFFFFFFFFF AND MUL OR SWAP1 SSTORE POP DUP1 PUSH1 0x1 PUSH0 PUSH2 0x100 EXP DUP2 SLOAD DUP2 PUSH20 0xFFFFFFFFFFFFFFFFFFFFFFFFFFFFFFFFFFFFFFFF MUL NOT AND SWAP1 DUP4 PUSH20 0xFFFFFFFFFFFFFFFFFFFFFFFFFFFFFFFFFFFFFFFF AND MUL OR SWAP1 SSTORE POP POP PUSH2 0x140 JUMP JUMPDEST PUSH0 PUSH0 REVERT JUMPDEST PUSH0 PUSH20 0xFFFFFFFFFFFFFFFFFFFFFFFFFFFFFFFFFFFFFFFF DUP3 AND SWAP1 POP SWAP2 SWAP1 POP JUMP JUMPDEST PUSH0 PUSH2 0xE4 DUP3 PUSH2 0xBB JUMP JUMPDEST SWAP1 POP SWAP2 SWAP1 POP JUMP JUMPDEST PUSH2 0xF4 DUP2 PUSH2 0xDA JUMP JUMPDEST DUP2 EQ PUSH2 0xFE JUMPI PUSH0 PUSH0 REVERT JUMPDEST POP JUMP JUMPDEST PUSH0 DUP2 MLOAD SWAP1 POP PUSH2 0x10F DUP2 PUSH2 0xEB JUMP JUMPDEST SWAP3 SWAP2 POP POP JUMP JUMPDEST PUSH0 PUSH1 0x20 DUP3 DUP5 SUB SLT ISZERO PUSH2 0x12A JUMPI PUSH2 0x129 PUSH2 0xB7 JUMP JUMPDEST JUMPDEST PUSH0 PUSH2 0x137 DUP5 DUP3 DUP6 ADD PUSH2 0x101 JUMP JUMPDEST SWAP2 POP POP SWAP3 SWAP2 POP POP JUMP JUMPDEST PUSH2 0x15CC DUP1 PUSH2 0x14D PUSH0 CODECOPY PUSH0 RETURN INVALID PUSH1 0x80 PUSH1 0x40 MSTORE PUSH1 0x4 CALLDATASIZE LT PUSH2 0xF2 JUMPI PUSH0 CALLDATALOAD PUSH1 0xE0 SHR DUP1 PUSH4 0x91B7F5ED GT PUSH2 0x89 JUMPI DUP1 PUSH4 0xDFFE7BBC GT PUSH2 0x58 JUMPI DUP1 PUSH4 0xDFFE7BBC EQ PUSH2 0x27C JUMPI DUP1 PUSH4 0xE8A61CC8 EQ PUSH2 0x2A6 JUMPI DUP1 PUSH4 0xFA2A8997 EQ PUSH2 0x2BC JUMPI DUP1 PUSH4 0xFE25E00A EQ PUSH2 0x2E6 JUMPI PUSH2 0xF2 JUMP JUMPDEST DUP1 PUSH4 0x91B7F5ED EQ PUSH2 0x1EA JUMPI DUP1 PUSH4 0xA035B1FE EQ PUSH2 0x212 JUMPI DUP1 PUSH4 0xC392F766 EQ PUSH2 0x23C JUMPI DUP1 PUSH4 0xDE7C62A8 EQ PUSH2 0x266 JUMPI PUSH2 0xF2 JUMP JUMPDEST DUP1 PUSH4 0x7C654303 GT PUSH2 0xC5 JUMPI DUP1 PUSH4 0x7C654303 EQ PUSH2 0x16A JUMPI DUP1 PUSH4 0x7CCE2668 EQ PUSH2 0x194 JUMPI DUP1 PUSH4 0x8DA5CB5B EQ PUSH2 0x1AA JUMPI DUP1 PUSH4 0x9086E838 EQ PUSH2 0x1D4 JUMPI PUSH2 0xF2 JUMP JUMPDEST DUP1 PUSH4 0x12065FE0 EQ PUSH2 0xF6 JUMPI DUP1 PUSH4 0x2C23F7F8 EQ PUSH2 0x120 JUMPI DUP1 PUSH4 0x69D89575 EQ PUSH2 0x12A JUMPI DUP1 PUSH4 0x7150D8AE EQ PUSH2 0x140 JUMPI JUMPDEST PUSH0 PUSH0 REVERT JUMPDEST CALLVALUE DUP1 ISZERO PUSH2 0x101 JUMPI PUSH0 PUSH0 REVERT JUMPDEST POP PUSH2 0x10A PUSH2 0x310 JUMP JUMPDEST PUSH1 0x40 MLOAD PUSH2 0x117 SWAP2 SWAP1 PUSH2 0xF5D JUMP JUMPDEST PUSH1 0x40 MLOAD DUP1 SWAP2 SUB SWAP1 RETURN JUMPDEST PUSH2 0x128 PUSH2 0x317 JUMP JUMPDEST STOP JUMPDEST CALLVALUE DUP1 ISZERO PUSH2 0x135 JUMPI PUSH0 PUSH0 REVERT JUMPDEST POP PUSH2 0x13E PUSH2 0x644 JUMP JUMPDEST STOP JUMPDEST CALLVALUE DUP1 ISZERO PUSH2 0x14B JUMPI PUSH0 PUSH0 REVERT JUMPDEST POP PUSH2 0x154 PUSH2 0x8F0 JUMP JUMPDEST PUSH1 0x40 MLOAD PUSH2 0x161 SWAP2 SWAP1 PUSH2 0xFB5 JUMP JUMPDEST PUSH1 0x40 MLOAD DUP1 SWAP2 SUB SWAP1 RETURN JUMPDEST CALLVALUE DUP1 ISZERO PUSH2 0x175 JUMPI PUSH0 PUSH0 REVERT JUMPDEST POP PUSH2 0x17E PUSH2 0x914 JUMP JUMPDEST PUSH1 0x40 MLOAD PUSH2 0x18B SWAP2 SWAP1 PUSH2 0xFE8 JUMP JUMPDEST PUSH1 0x40 MLOAD DUP1 SWAP2 SUB SWAP1 RETURN JUMPDEST CALLVALUE DUP1 ISZERO PUSH2 0x19F JUMPI PUSH0 PUSH0 REVERT JUMPDEST POP PUSH2 0x1A8 PUSH2 0x926 JUMP JUMPDEST STOP JUMPDEST CALLVALUE DUP1 ISZERO PUSH2 0x1B5 JUMPI PUSH0 PUSH0 REVERT JUMPDEST POP PUSH2 0x1BE PUSH2 0x9D1 JUMP JUMPDEST PUSH1 0x40 MLOAD PUSH2 0x1CB SWAP2 SWAP1 PUSH2 0xFB5 JUMP JUMPDEST PUSH1 0x40 MLOAD DUP1 SWAP2 SUB SWAP1 RETURN JUMPDEST CALLVALUE DUP1 ISZERO PUSH2 0x1DF JUMPI PUSH0 PUSH0 REVERT JUMPDEST POP PUSH2 0x1E8 PUSH2 0x9F5 JUMP JUMPDEST STOP JUMPDEST CALLVALUE DUP1 ISZERO PUSH2 0x1F5 JUMPI PUSH0 PUSH0 REVERT JUMPDEST POP PUSH2 0x210 PUSH1 0x4 DUP1 CALLDATASIZE SUB DUP2 ADD SWAP1 PUSH2 0x20B SWAP2 SWAP1 PUSH2 0x102F JUMP JUMPDEST PUSH2 0xA9F JUMP JUMPDEST STOP JUMPDEST CALLVALUE DUP1 ISZERO PUSH2 0x21D JUMPI PUSH0 PUSH0 REVERT JUMPDEST POP PUSH2 0x226 PUSH2 0xB37 JUMP JUMPDEST PUSH1 0x40 MLOAD PUSH2 0x233 SWAP2 SWAP1 PUSH2 0xF5D JUMP JUMPDEST PUSH1 0x40 MLOAD DUP1 SWAP2 SUB SWAP1 RETURN JUMPDEST CALLVALUE DUP1 ISZERO PUSH2 0x247 JUMPI PUSH0 PUSH0 REVERT JUMPDEST POP PUSH2 0x250 PUSH2 0xB3D JUMP JUMPDEST PUSH1 0x40 MLOAD PUSH2 0x25D SWAP2 SWAP1 PUSH2 0xFE8 JUMP JUMPDEST PUSH1 0x40 MLOAD DUP1 SWAP2 SUB SWAP1 RETURN JUMPDEST CALLVALUE DUP1 ISZERO PUSH2 0x271 JUMPI PUSH0 PUSH0 REVERT JUMPDEST POP PUSH2 0x27A PUSH2 0xB50 JUMP JUMPDEST STOP JUMPDEST CALLVALUE DUP1 ISZERO PUSH2 0x287 JUMPI PUSH0 PUSH0 REVERT JUMPDEST POP PUSH2 0x290 PUSH2 0xD3A JUMP JUMPDEST PUSH1 0x40 MLOAD PUSH2 0x29D SWAP2 SWAP1 PUSH2 0xFB5 JUMP JUMPDEST PUSH1 0x40 MLOAD DUP1 SWAP2 SUB SWAP1 RETURN JUMPDEST CALLVALUE DUP1 ISZERO PUSH2 0x2B1 JUMPI PUSH0 PUSH0 REVERT JUMPDEST POP PUSH2 0x2BA PUSH2 0xD5F JUMP JUMPDEST STOP JUMPDEST CALLVALUE DUP1 ISZERO PUSH2 0x2C7 JUMPI PUSH0 PUSH0 REVERT JUMPDEST POP PUSH2 0x2D0 PUSH2 0xF0D JUMP JUMPDEST PUSH1 0x40 MLOAD PUSH2 0x2DD SWAP2 SWAP1 PUSH2 0xFE8 JUMP JUMPDEST PUSH1 0x40 MLOAD DUP1 SWAP2 SUB SWAP1 RETURN JUMPDEST CALLVALUE DUP1 ISZERO PUSH2 0x2F1 JUMPI PUSH0 PUSH0 REVERT JUMPDEST POP PUSH2 0x2FA PUSH2 0xF20 JUMP JUMPDEST PUSH1 0x40 MLOAD PUSH2 0x307 SWAP2 SWAP1 PUSH2 0xFB5 JUMP JUMPDEST PUSH1 0x40 MLOAD DUP1 SWAP2 SUB SWAP1 RETURN JUMPDEST PUSH0 SELFBALANCE SWAP1 POP SWAP1 JUMP JUMPDEST PUSH1 0x3 DUP1 SLOAD SWAP1 PUSH2 0x100 EXP SWAP1 DIV PUSH20 0xFFFFFFFFFFFFFFFFFFFFFFFFFFFFFFFFFFFFFFFF AND PUSH20 0xFFFFFFFFFFFFFFFFFFFFFFFFFFFFFFFFFFFFFFFF AND CALLER PUSH20 0xFFFFFFFFFFFFFFFFFFFFFFFFFFFFFFFFFFFFFFFF AND EQ DUP1 ISZERO PUSH2 0x3BE JUMPI POP PUSH1 0x1 PUSH0 SWAP1 SLOAD SWAP1 PUSH2 0x100 EXP SWAP1 DIV PUSH20 0xFFFFFFFFFFFFFFFFFFFFFFFFFFFFFFFFFFFFFFFF AND PUSH20 0xFFFFFFFFFFFFFFFFFFFFFFFFFFFFFFFFFFFFFFFF AND CALLER PUSH20 0xFFFFFFFFFFFFFFFFFFFFFFFFFFFFFFFFFFFFFFFF AND EQ JUMPDEST ISZERO PUSH2 0x408 JUMPI CALLER PUSH20 0xFFFFFFFFFFFFFFFFFFFFFFFFFFFFFFFFFFFFFFFF AND PUSH2 0x8FC CALLVALUE SWAP1 DUP2 ISZERO MUL SWAP1 PUSH1 0x40 MLOAD PUSH0 PUSH1 0x40 MLOAD DUP1 DUP4 SUB DUP2 DUP6 DUP9 DUP9 CALL SWAP4 POP POP POP POP ISZERO DUP1 ISZERO PUSH2 0x406 JUMPI RETURNDATASIZE PUSH0 PUSH0 RETURNDATACOPY RETURNDATASIZE PUSH0 REVERT JUMPDEST POP JUMPDEST PUSH1 0x3 DUP1 SLOAD SWAP1 PUSH2 0x100 EXP SWAP1 DIV PUSH20 0xFFFFFFFFFFFFFFFFFFFFFFFFFFFFFFFFFFFFFFFF AND PUSH20 0xFFFFFFFFFFFFFFFFFFFFFFFFFFFFFFFFFFFFFFFF AND CALLER PUSH20 0xFFFFFFFFFFFFFFFFFFFFFFFFFFFFFFFFFFFFFFFF AND EQ ISZERO DUP1 ISZERO PUSH2 0x4B1 JUMPI POP PUSH1 0x1 PUSH0 SWAP1 SLOAD SWAP1 PUSH2 0x100 EXP SWAP1 DIV PUSH20 0xFFFFFFFFFFFFFFFFFFFFFFFFFFFFFFFFFFFFFFFF AND PUSH20 0xFFFFFFFFFFFFFFFFFFFFFFFFFFFFFFFFFFFFFFFF AND CALLER PUSH20 0xFFFFFFFFFFFFFFFFFFFFFFFFFFFFFFFFFFFFFFFF AND EQ ISZERO JUMPDEST PUSH2 0x4F0 JUMPI PUSH1 0x40 MLOAD PUSH32 0x8C379A000000000000000000000000000000000000000000000000000000000 DUP2 MSTORE PUSH1 0x4 ADD PUSH2 0x4E7 SWAP1 PUSH2 0x10DA JUMP JUMPDEST PUSH1 0x40 MLOAD DUP1 SWAP2 SUB SWAP1 REVERT JUMPDEST PUSH0 PUSH0 SWAP1 SLOAD SWAP1 PUSH2 0x100 EXP SWAP1 DIV PUSH20 0xFFFFFFFFFFFFFFFFFFFFFFFFFFFFFFFFFFFFFFFF AND PUSH20 0xFFFFFFFFFFFFFFFFFFFFFFFFFFFFFFFFFFFFFFFF AND CALLER PUSH20 0xFFFFFFFFFFFFFFFFFFFFFFFFFFFFFFFFFFFFFFFF AND SUB PUSH2 0x57E JUMPI PUSH1 0x40 MLOAD PUSH32 0x8C379A000000000000000000000000000000000000000000000000000000000 DUP2 MSTORE PUSH1 0x4 ADD PUSH2 0x575 SWAP1 PUSH2 0x1168 JUMP JUMPDEST PUSH1 0x40 MLOAD DUP1 SWAP2 SUB SWAP1 REVERT JUMPDEST PUSH7 0xAA87BEE538000 CALLVALUE EQ PUSH2 0x5C7 JUMPI PUSH1 0x40 MLOAD PUSH32 0x8C379A000000000000000000000000000000000000000000000000000000000 DUP2 MSTORE PUSH1 0x4 ADD PUSH2 0x5BE SWAP1 PUSH2 0x11D0 JUMP JUMPDEST PUSH1 0x40 MLOAD DUP1 SWAP2 SUB SWAP1 REVERT JUMPDEST CALLVALUE PUSH1 0x2 DUP2 SWAP1 SSTORE POP PUSH1 0x1 PUSH1 0x3 PUSH0 PUSH2 0x100 EXP DUP2 SLOAD DUP2 PUSH1 0xFF MUL NOT AND SWAP1 DUP4 ISZERO ISZERO MUL OR SWAP1 SSTORE POP CALLER PUSH0 PUSH0 PUSH2 0x100 EXP DUP2 SLOAD DUP2 PUSH20 0xFFFFFFFFFFFFFFFFFFFFFFFFFFFFFFFFFFFFFFFF MUL NOT AND SWAP1 DUP4 PUSH20 0xFFFFFFFFFFFFFFFFFFFFFFFFFFFFFFFFFFFFFFFF AND MUL OR SWAP1 SSTORE POP PUSH1 0x1 PUSH1 0x3 PUSH1 0x2 PUSH2 0x100 EXP DUP2 SLOAD DUP2 PUSH1 0xFF MUL NOT AND SWAP1 DUP4 ISZERO ISZERO MUL OR SWAP1 SSTORE POP JUMP JUMPDEST PUSH1 0x1 PUSH0 SWAP1 SLOAD SWAP1 PUSH2 0x100 EXP SWAP1 DIV PUSH20 0xFFFFFFFFFFFFFFFFFFFFFFFFFFFFFFFFFFFFFFFF AND PUSH20 0xFFFFFFFFFFFFFFFFFFFFFFFFFFFFFFFFFFFFFFFF AND CALLER PUSH20 0xFFFFFFFFFFFFFFFFFFFFFFFFFFFFFFFFFFFFFFFF AND EQ PUSH2 0x6D3 JUMPI PUSH1 0x40 MLOAD PUSH32 0x8C379A000000000000000000000000000000000000000000000000000000000 DUP2 MSTORE PUSH1 0x4 ADD PUSH2 0x6CA SWAP1 PUSH2 0x1238 JUMP JUMPDEST PUSH1 0x40 MLOAD DUP1 SWAP2 SUB SWAP1 REVERT JUMPDEST PUSH1 0x3 PUSH0 SWAP1 SLOAD SWAP1 PUSH2 0x100 EXP SWAP1 DIV PUSH1 0xFF AND PUSH2 0x721 JUMPI PUSH1 0x40 MLOAD PUSH32 0x8C379A000000000000000000000000000000000000000000000000000000000 DUP2 MSTORE PUSH1 0x4 ADD PUSH2 0x718 SWAP1 PUSH2 0x12A0 JUMP JUMPDEST PUSH1 0x40 MLOAD DUP1 SWAP2 SUB SWAP1 REVERT JUMPDEST PUSH1 0x3 PUSH1 0x1 SWAP1 SLOAD SWAP1 PUSH2 0x100 EXP SWAP1 DIV PUSH1 0xFF AND ISZERO PUSH2 0x771 JUMPI PUSH1 0x40 MLOAD PUSH32 0x8C379A000000000000000000000000000000000000000000000000000000000 DUP2 MSTORE PUSH1 0x4 ADD PUSH2 0x768 SWAP1 PUSH2 0x1308 JUMP JUMPDEST PUSH1 0x40 MLOAD DUP1 SWAP2 SUB SWAP1 REVERT JUMPDEST PUSH1 0x3 PUSH1 0x2 SWAP1 SLOAD SWAP1 PUSH2 0x100 EXP SWAP1 DIV PUSH1 0xFF AND PUSH2 0x7C0 JUMPI PUSH1 0x40 MLOAD PUSH32 0x8C379A000000000000000000000000000000000000000000000000000000000 DUP2 MSTORE PUSH1 0x4 ADD PUSH2 0x7B7 SWAP1 PUSH2 0x1370 JUMP JUMPDEST PUSH1 0x40 MLOAD DUP1 SWAP2 SUB SWAP1 REVERT JUMPDEST PUSH0 PUSH0 SWAP1 SLOAD SWAP1 PUSH2 0x100 EXP SWAP1 DIV PUSH20 0xFFFFFFFFFFFFFFFFFFFFFFFFFFFFFFFFFFFFFFFF AND PUSH20 0xFFFFFFFFFFFFFFFFFFFFFFFFFFFFFFFFFFFFFFFF AND PUSH1 0x3 DUP1 SLOAD SWAP1 PUSH2 0x100 EXP SWAP1 DIV PUSH20 0xFFFFFFFFFFFFFFFFFFFFFFFFFFFFFFFFFFFFFFFF AND PUSH20 0xFFFFFFFFFFFFFFFFFFFFFFFFFFFFFFFFFFFFFFFF AND EQ PUSH2 0x86E JUMPI PUSH1 0x40 MLOAD PUSH32 0x8C379A000000000000000000000000000000000000000000000000000000000 DUP2 MSTORE PUSH1 0x4 ADD PUSH2 0x865 SWAP1 PUSH2 0x13D8 JUMP JUMPDEST PUSH1 0x40 MLOAD DUP1 SWAP2 SUB SWAP1 REVERT JUMPDEST PUSH0 PUSH1 0x3 PUSH0 PUSH2 0x100 EXP DUP2 SLOAD DUP2 PUSH1 0xFF MUL NOT AND SWAP1 DUP4 ISZERO ISZERO MUL OR SWAP1 SSTORE POP PUSH1 0x4 PUSH0 SWAP1 SLOAD SWAP1 PUSH2 0x100 EXP SWAP1 DIV PUSH20 0xFFFFFFFFFFFFFFFFFFFFFFFFFFFFFFFFFFFFFFFF AND PUSH20 0xFFFFFFFFFFFFFFFFFFFFFFFFFFFFFFFFFFFFFFFF AND PUSH2 0x8FC PUSH1 0x2 SLOAD SWAP1 DUP2 ISZERO MUL SWAP1 PUSH1 0x40 MLOAD PUSH0 PUSH1 0x40 MLOAD DUP1 DUP4 SUB DUP2 DUP6 DUP9 DUP9 CALL SWAP4 POP POP POP POP ISZERO DUP1 ISZERO PUSH2 0x8ED JUMPI RETURNDATASIZE PUSH0 PUSH0 RETURNDATACOPY RETURNDATASIZE PUSH0 REVERT JUMPDEST POP JUMP JUMPDEST PUSH0 PUSH0 SWAP1 SLOAD SWAP1 PUSH2 0x100 EXP SWAP1 DIV PUSH20 0xFFFFFFFFFFFFFFFFFFFFFFFFFFFFFFFFFFFFFFFF AND DUP2 JUMP JUMPDEST PUSH1 0x3 PUSH0 SWAP1 SLOAD SWAP1 PUSH2 0x100 EXP SWAP1 DIV PUSH1 0xFF AND DUP2 JUMP JUMPDEST PUSH0 PUSH0 SWAP1 SLOAD SWAP1 PUSH2 0x100 EXP SWAP1 DIV PUSH20 0xFFFFFFFFFFFFFFFFFFFFFFFFFFFFFFFFFFFFFFFF AND PUSH20 0xFFFFFFFFFFFFFFFFFFFFFFFFFFFFFFFFFFFFFFFF AND CALLER PUSH20 0xFFFFFFFFFFFFFFFFFFFFFFFFFFFFFFFFFFFFFFFF AND EQ PUSH2 0x9B4 JUMPI PUSH1 0x40 MLOAD PUSH32 0x8C379A000000000000000000000000000000000000000000000000000000000 DUP2 MSTORE PUSH1 0x4 ADD PUSH2 0x9AB SWAP1 PUSH2 0x1440 JUMP JUMPDEST PUSH1 0x40 MLOAD DUP1 SWAP2 SUB SWAP1 REVERT JUMPDEST PUSH1 0x1 PUSH1 0x3 PUSH1 0x2 PUSH2 0x100 EXP DUP2 SLOAD DUP2 PUSH1 0xFF MUL NOT AND SWAP1 DUP4 ISZERO ISZERO MUL OR SWAP1 SSTORE POP JUMP JUMPDEST PUSH1 0x3 DUP1 SLOAD SWAP1 PUSH2 0x100 EXP SWAP1 DIV PUSH20 0xFFFFFFFFFFFFFFFFFFFFFFFFFFFFFFFFFFFFFFFF AND DUP2 JUMP JUMPDEST PUSH0 PUSH0 SWAP1 SLOAD SWAP1 PUSH2 0x100 EXP SWAP1 DIV PUSH20 0xFFFFFFFFFFFFFFFFFFFFFFFFFFFFFFFFFFFFFFFF AND PUSH20 0xFFFFFFFFFFFFFFFFFFFFFFFFFFFFFFFFFFFFFFFF AND CALLER PUSH20 0xFFFFFFFFFFFFFFFFFFFFFFFFFFFFFFFFFFFFFFFF AND EQ PUSH2 0xA83 JUMPI PUSH1 0x40 MLOAD PUSH32 0x8C379A000000000000000000000000000000000000000000000000000000000 DUP2 MSTORE PUSH1 0x4 ADD PUSH2 0xA7A SWAP1 PUSH2 0x1440 JUMP JUMPDEST PUSH1 0x40 MLOAD DUP1 SWAP2 SUB SWAP1 REVERT JUMPDEST PUSH0 PUSH1 0x3 PUSH1 0x2 PUSH2 0x100 EXP DUP2 SLOAD DUP2 PUSH1 0xFF MUL NOT AND SWAP1 DUP4 ISZERO ISZERO MUL OR SWAP1 SSTORE POP JUMP JUMPDEST PUSH1 0x3 DUP1 SLOAD SWAP1 PUSH2 0x100 EXP SWAP1 DIV PUSH20 0xFFFFFFFFFFFFFFFFFFFFFFFFFFFFFFFFFFFFFFFF AND PUSH20 0xFFFFFFFFFFFFFFFFFFFFFFFFFFFFFFFFFFFFFFFF AND CALLER PUSH20 0xFFFFFFFFFFFFFFFFFFFFFFFFFFFFFFFFFFFFFFFF AND EQ PUSH2 0xB2D JUMPI PUSH1 0x40 MLOAD PUSH32 0x8C379A000000000000000000000000000000000000000000000000000000000 DUP2 MSTORE PUSH1 0x4 ADD PUSH2 0xB24 SWAP1 PUSH2 0x14A8 JUMP JUMPDEST PUSH1 0x40 MLOAD DUP1 SWAP2 SUB SWAP1 REVERT JUMPDEST DUP1 PUSH1 0x2 DUP2 SWAP1 SSTORE POP POP JUMP JUMPDEST PUSH1 0x2 SLOAD DUP2 JUMP JUMPDEST PUSH1 0x3 PUSH1 0x2 SWAP1 SLOAD SWAP1 PUSH2 0x100 EXP SWAP1 DIV PUSH1 0xFF AND DUP2 JUMP JUMPDEST PUSH1 0x3 DUP1 SLOAD SWAP1 PUSH2 0x100 EXP SWAP1 DIV PUSH20 0xFFFFFFFFFFFFFFFFFFFFFFFFFFFFFFFFFFFFFFFF AND PUSH20 0xFFFFFFFFFFFFFFFFFFFFFFFFFFFFFFFFFFFFFFFF AND CALLER PUSH20 0xFFFFFFFFFFFFFFFFFFFFFFFFFFFFFFFFFFFFFFFF AND EQ PUSH2 0xBDE JUMPI PUSH1 0x40 MLOAD PUSH32 0x8C379A000000000000000000000000000000000000000000000000000000000 DUP2 MSTORE PUSH1 0x4 ADD PUSH2 0xBD5 SWAP1 PUSH2 0x14A8 JUMP JUMPDEST PUSH1 0x40 MLOAD DUP1 SWAP2 SUB SWAP1 REVERT JUMPDEST PUSH7 0xAA87BEE538000 PUSH1 0x2 SLOAD EQ PUSH2 0xC29 JUMPI PUSH1 0x40 MLOAD PUSH32 0x8C379A000000000000000000000000000000000000000000000000000000000 DUP2 MSTORE PUSH1 0x4 ADD PUSH2 0xC20 SWAP1 PUSH2 0x11D0 JUMP JUMPDEST PUSH1 0x40 MLOAD DUP1 SWAP2 SUB SWAP1 REVERT JUMPDEST PUSH1 0x3 PUSH1 0x2 SWAP1 SLOAD SWAP1 PUSH2 0x100 EXP SWAP1 DIV PUSH1 0xFF AND PUSH2 0xC78 JUMPI PUSH1 0x40 MLOAD PUSH32 0x8C379A000000000000000000000000000000000000000000000000000000000 DUP2 MSTORE PUSH1 0x4 ADD PUSH2 0xC6F SWAP1 PUSH2 0x1370 JUMP JUMPDEST PUSH1 0x40 MLOAD DUP1 SWAP2 SUB SWAP1 REVERT JUMPDEST PUSH1 0x3 DUP1 SLOAD SWAP1 PUSH2 0x100 EXP SWAP1 DIV PUSH20 0xFFFFFFFFFFFFFFFFFFFFFFFFFFFFFFFFFFFFFFFF AND PUSH1 0x4 PUSH0 PUSH2 0x100 EXP DUP2 SLOAD DUP2 PUSH20 0xFFFFFFFFFFFFFFFFFFFFFFFFFFFFFFFFFFFFFFFF MUL NOT AND SWAP1 DUP4 PUSH20 0xFFFFFFFFFFFFFFFFFFFFFFFFFFFFFFFFFFFFFFFF AND MUL OR SWAP1 SSTORE POP PUSH0 PUSH0 SWAP1 SLOAD SWAP1 PUSH2 0x100 EXP SWAP1 DIV PUSH20 0xFFFFFFFFFFFFFFFFFFFFFFFFFFFFFFFFFFFFFFFF AND PUSH1 0x3 DUP1 PUSH2 0x100 EXP DUP2 SLOAD DUP2 PUSH20 0xFFFFFFFFFFFFFFFFFFFFFFFFFFFFFFFFFFFFFFFF MUL NOT AND SWAP1 DUP4 PUSH20 0xFFFFFFFFFFFFFFFFFFFFFFFFFFFFFFFFFFFFFFFF AND MUL OR SWAP1 SSTORE POP JUMP JUMPDEST PUSH1 0x4 PUSH0 SWAP1 SLOAD SWAP1 PUSH2 0x100 EXP SWAP1 DIV PUSH20 0xFFFFFFFFFFFFFFFFFFFFFFFFFFFFFFFFFFFFFFFF AND DUP2 JUMP JUMPDEST PUSH1 0x1 PUSH0 SWAP1 SLOAD SWAP1 PUSH2 0x100 EXP SWAP1 DIV PUSH20 0xFFFFFFFFFFFFFFFFFFFFFFFFFFFFFFFFFFFFFFFF AND PUSH20 0xFFFFFFFFFFFFFFFFFFFFFFFFFFFFFFFFFFFFFFFF AND CALLER PUSH20 0xFFFFFFFFFFFFFFFFFFFFFFFFFFFFFFFFFFFFFFFF AND EQ PUSH2 0xDEE JUMPI PUSH1 0x40 MLOAD PUSH32 0x8C379A000000000000000000000000000000000000000000000000000000000 DUP2 MSTORE PUSH1 0x4 ADD PUSH2 0xDE5 SWAP1 PUSH2 0x1238 JUMP JUMPDEST PUSH1 0x40 MLOAD DUP1 SWAP2 SUB SWAP1 REVERT JUMPDEST PUSH1 0x3 PUSH0 SWAP1 SLOAD SWAP1 PUSH2 0x100 EXP SWAP1 DIV PUSH1 0xFF AND PUSH2 0xE3C JUMPI PUSH1 0x40 MLOAD PUSH32 0x8C379A000000000000000000000000000000000000000000000000000000000 DUP2 MSTORE PUSH1 0x4 ADD PUSH2 0xE33 SWAP1 PUSH2 0x1510 JUMP JUMPDEST PUSH1 0x40 MLOAD DUP1 SWAP2 SUB SWAP1 REVERT JUMPDEST PUSH1 0x3 PUSH1 0x2 SWAP1 SLOAD SWAP1 PUSH2 0x100 EXP SWAP1 DIV PUSH1 0xFF AND ISZERO PUSH2 0xE8C JUMPI PUSH1 0x40 MLOAD PUSH32 0x8C379A000000000000000000000000000000000000000000000000000000000 DUP2 MSTORE PUSH1 0x4 ADD PUSH2 0xE83 SWAP1 PUSH2 0x1578 JUMP JUMPDEST PUSH1 0x40 MLOAD DUP1 SWAP2 SUB SWAP1 REVERT JUMPDEST PUSH0 PUSH1 0x3 PUSH0 PUSH2 0x100 EXP DUP2 SLOAD DUP2 PUSH1 0xFF MUL NOT AND SWAP1 DUP4 ISZERO ISZERO MUL OR SWAP1 SSTORE POP PUSH0 PUSH0 SWAP1 SLOAD SWAP1 PUSH2 0x100 EXP SWAP1 DIV PUSH20 0xFFFFFFFFFFFFFFFFFFFFFFFFFFFFFFFFFFFFFFFF AND PUSH20 0xFFFFFFFFFFFFFFFFFFFFFFFFFFFFFFFFFFFFFFFF AND PUSH2 0x8FC PUSH1 0x2 SLOAD SWAP1 DUP2 ISZERO MUL SWAP1 PUSH1 0x40 MLOAD PUSH0 PUSH1 0x40 MLOAD DUP1 DUP4 SUB DUP2 DUP6 DUP9 DUP9 CALL SWAP4 POP POP POP POP ISZERO DUP1 ISZERO PUSH2 0xF0A JUMPI RETURNDATASIZE PUSH0 PUSH0 RETURNDATACOPY RETURNDATASIZE PUSH0 REVERT JUMPDEST POP JUMP JUMPDEST PUSH1 0x3 PUSH1 0x1 SWAP1 SLOAD SWAP1 PUSH2 0x100 EXP SWAP1 DIV PUSH1 0xFF AND DUP2 JUMP JUMPDEST PUSH1 0x1 PUSH0 SWAP1 SLOAD SWAP1 PUSH2 0x100 EXP SWAP1 DIV PUSH20 0xFFFFFFFFFFFFFFFFFFFFFFFFFFFFFFFFFFFFFFFF AND DUP2 JUMP JUMPDEST PUSH0 DUP2 SWAP1 POP SWAP2 SWAP1 POP JUMP JUMPDEST PUSH2 0xF57 DUP2 PUSH2 0xF45 JUMP JUMPDEST DUP3 MSTORE POP POP JUMP JUMPDEST PUSH0 PUSH1 0x20 DUP3 ADD SWAP1 POP PUSH2 0xF70 PUSH0 DUP4 ADD DUP5 PUSH2 0xF4E JUMP JUMPDEST SWAP3 SWAP2 POP POP JUMP JUMPDEST PUSH0 PUSH20 0xFFFFFFFFFFFFFFFFFFFFFFFFFFFFFFFFFFFFFFFF DUP3 AND SWAP1 POP SWAP2 SWAP1 POP JUMP JUMPDEST PUSH0 PUSH2 0xF9F DUP3 PUSH2 0xF76 JUMP JUMPDEST SWAP1 POP SWAP2 SWAP1 POP JUMP JUMPDEST PUSH2 0xFAF DUP2 PUSH2 0xF95 JUMP JUMPDEST DUP3 MSTORE POP POP JUMP JUMPDEST PUSH0 PUSH1 0x20 DUP3 ADD SWAP1 POP PUSH2 0xFC8 PUSH0 DUP4 ADD DUP5 PUSH2 0xFA6 JUMP JUMPDEST SWAP3 SWAP2 POP POP JUMP JUMPDEST PUSH0 DUP2 ISZERO ISZERO SWAP1 POP SWAP2 SWAP1 POP JUMP JUMPDEST PUSH2 0xFE2 DUP2 PUSH2 0xFCE JUMP JUMPDEST DUP3 MSTORE POP POP JUMP JUMPDEST PUSH0 PUSH1 0x20 DUP3 ADD SWAP1 POP PUSH2 0xFFB PUSH0 DUP4 ADD DUP5 PUSH2 0xFD9 JUMP JUMPDEST SWAP3 SWAP2 POP POP JUMP JUMPDEST PUSH0 PUSH0 REVERT JUMPDEST PUSH2 0x100E DUP2 PUSH2 0xF45 JUMP JUMPDEST DUP2 EQ PUSH2 0x1018 JUMPI PUSH0 PUSH0 REVERT JUMPDEST POP JUMP JUMPDEST PUSH0 DUP2 CALLDATALOAD SWAP1 POP PUSH2 0x1029 DUP2 PUSH2 0x1005 JUMP JUMPDEST SWAP3 SWAP2 POP POP JUMP JUMPDEST PUSH0 PUSH1 0x20 DUP3 DUP5 SUB SLT ISZERO PUSH2 0x1044 JUMPI PUSH2 0x1043 PUSH2 0x1001 JUMP JUMPDEST JUMPDEST PUSH0 PUSH2 0x1051 DUP5 DUP3 DUP6 ADD PUSH2 0x101B JUMP JUMPDEST SWAP2 POP POP SWAP3 SWAP2 POP POP JUMP JUMPDEST PUSH0 DUP3 DUP3 MSTORE PUSH1 0x20 DUP3 ADD SWAP1 POP SWAP3 SWAP2 POP POP JUMP JUMPDEST PUSH32 0x4F6E6C7920612062757965722063616E20706572666F726D2074686973206163 PUSH0 DUP3 ADD MSTORE PUSH32 0x74696F6E21212100000000000000000000000000000000000000000000000000 PUSH1 0x20 DUP3 ADD MSTORE POP JUMP JUMPDEST PUSH0 PUSH2 0x10C4 PUSH1 0x27 DUP4 PUSH2 0x105A JUMP JUMPDEST SWAP2 POP PUSH2 0x10CF DUP3 PUSH2 0x106A JUMP JUMPDEST PUSH1 0x40 DUP3 ADD SWAP1 POP SWAP2 SWAP1 POP JUMP JUMPDEST PUSH0 PUSH1 0x20 DUP3 ADD SWAP1 POP DUP2 DUP2 SUB PUSH0 DUP4 ADD MSTORE PUSH2 0x10F1 DUP2 PUSH2 0x10B8 JUMP JUMPDEST SWAP1 POP SWAP2 SWAP1 POP JUMP JUMPDEST PUSH32 0x596F752063616E6E6F7420627579206D6F7265207468616E206F6E636520696E PUSH0 DUP3 ADD MSTORE PUSH32 0x206120726F6C6C21210000000000000000000000000000000000000000000000 PUSH1 0x20 DUP3 ADD MSTORE POP JUMP JUMPDEST PUSH0 PUSH2 0x1152 PUSH1 0x29 DUP4 PUSH2 0x105A JUMP JUMPDEST SWAP2 POP PUSH2 0x115D DUP3 PUSH2 0x10F8 JUMP JUMPDEST PUSH1 0x40 DUP3 ADD SWAP1 POP SWAP2 SWAP1 POP JUMP JUMPDEST PUSH0 PUSH1 0x20 DUP3 ADD SWAP1 POP DUP2 DUP2 SUB PUSH0 DUP4 ADD MSTORE PUSH2 0x117F DUP2 PUSH2 0x1146 JUMP JUMPDEST SWAP1 POP SWAP2 SWAP1 POP JUMP JUMPDEST PUSH32 0x302E303033204554482069732072657175697265642121210000000000000000 PUSH0 DUP3 ADD MSTORE POP JUMP JUMPDEST PUSH0 PUSH2 0x11BA PUSH1 0x18 DUP4 PUSH2 0x105A JUMP JUMPDEST SWAP2 POP PUSH2 0x11C5 DUP3 PUSH2 0x1186 JUMP JUMPDEST PUSH1 0x20 DUP3 ADD SWAP1 POP SWAP2 SWAP1 POP JUMP JUMPDEST PUSH0 PUSH1 0x20 DUP3 ADD SWAP1 POP DUP2 DUP2 SUB PUSH0 DUP4 ADD MSTORE PUSH2 0x11E7 DUP2 PUSH2 0x11AE JUMP JUMPDEST SWAP1 POP SWAP2 SWAP1 POP JUMP JUMPDEST PUSH32 0x4F6E6C7920617262697465722063616E2072656C656173652066756E64730000 PUSH0 DUP3 ADD MSTORE POP JUMP JUMPDEST PUSH0 PUSH2 0x1222 PUSH1 0x1E DUP4 PUSH2 0x105A JUMP JUMPDEST SWAP2 POP PUSH2 0x122D DUP3 PUSH2 0x11EE JUMP JUMPDEST PUSH1 0x20 DUP3 ADD SWAP1 POP SWAP2 SWAP1 POP JUMP JUMPDEST PUSH0 PUSH1 0x20 DUP3 ADD SWAP1 POP DUP2 DUP2 SUB PUSH0 DUP4 ADD MSTORE PUSH2 0x124F DUP2 PUSH2 0x1216 JUMP JUMPDEST SWAP1 POP SWAP2 SWAP1 POP JUMP JUMPDEST PUSH32 0x4E6F2066756E647320746F2072656C6561736500000000000000000000000000 PUSH0 DUP3 ADD MSTORE POP JUMP JUMPDEST PUSH0 PUSH2 0x128A PUSH1 0x13 DUP4 PUSH2 0x105A JUMP JUMPDEST SWAP2 POP PUSH2 0x1295 DUP3 PUSH2 0x1256 JUMP JUMPDEST PUSH1 0x20 DUP3 ADD SWAP1 POP SWAP2 SWAP1 POP JUMP JUMPDEST PUSH0 PUSH1 0x20 DUP3 ADD SWAP1 POP DUP2 DUP2 SUB PUSH0 DUP4 ADD MSTORE PUSH2 0x12B7 DUP2 PUSH2 0x127E JUMP JUMPDEST SWAP1 POP SWAP2 SWAP1 POP JUMP JUMPDEST PUSH32 0x46756E647320616C72656164792072656C656173656400000000000000000000 PUSH0 DUP3 ADD MSTORE POP JUMP JUMPDEST PUSH0 PUSH2 0x12F2 PUSH1 0x16 DUP4 PUSH2 0x105A JUMP JUMPDEST SWAP2 POP PUSH2 0x12FD DUP3 PUSH2 0x12BE JUMP JUMPDEST PUSH1 0x20 DUP3 ADD SWAP1 POP SWAP2 SWAP1 POP JUMP JUMPDEST PUSH0 PUSH1 0x20 DUP3 ADD SWAP1 POP DUP2 DUP2 SUB PUSH0 DUP4 ADD MSTORE PUSH2 0x131F DUP2 PUSH2 0x12E6 JUMP JUMPDEST SWAP1 POP SWAP2 SWAP1 POP JUMP JUMPDEST PUSH32 0x4275796572206973206E6F206C6F6E67657220696E74657265737465642E0000 PUSH0 DUP3 ADD MSTORE POP JUMP JUMPDEST PUSH0 PUSH2 0x135A PUSH1 0x1E DUP4 PUSH2 0x105A JUMP JUMPDEST SWAP2 POP PUSH2 0x1365 DUP3 PUSH2 0x1326 JUMP JUMPDEST PUSH1 0x20 DUP3 ADD SWAP1 POP SWAP2 SWAP1 POP JUMP JUMPDEST PUSH0 PUSH1 0x20 DUP3 ADD SWAP1 POP DUP2 DUP2 SUB PUSH0 DUP4 ADD MSTORE PUSH2 0x1387 DUP2 PUSH2 0x134E JUMP JUMPDEST SWAP1 POP SWAP2 SWAP1 POP JUMP JUMPDEST PUSH32 0x436F6E74726163742069732079657420746F20626520736F6C642E0000000000 PUSH0 DUP3 ADD MSTORE POP JUMP JUMPDEST PUSH0 PUSH2 0x13C2 PUSH1 0x1B DUP4 PUSH2 0x105A JUMP JUMPDEST SWAP2 POP PUSH2 0x13CD DUP3 PUSH2 0x138E JUMP JUMPDEST PUSH1 0x20 DUP3 ADD SWAP1 POP SWAP2 SWAP1 POP JUMP JUMPDEST PUSH0 PUSH1 0x20 DUP3 ADD SWAP1 POP DUP2 DUP2 SUB PUSH0 DUP4 ADD MSTORE PUSH2 0x13EF DUP2 PUSH2 0x13B6 JUMP JUMPDEST SWAP1 POP SWAP2 SWAP1 POP JUMP JUMPDEST PUSH32 0x4F6E6C792062757965722063616E206368616E676520696E7465726573740000 PUSH0 DUP3 ADD MSTORE POP JUMP JUMPDEST PUSH0 PUSH2 0x142A PUSH1 0x1E DUP4 PUSH2 0x105A JUMP JUMPDEST SWAP2 POP PUSH2 0x1435 DUP3 PUSH2 0x13F6 JUMP JUMPDEST PUSH1 0x20 DUP3 ADD SWAP1 POP SWAP2 SWAP1 POP JUMP JUMPDEST PUSH0 PUSH1 0x20 DUP3 ADD SWAP1 POP DUP2 DUP2 SUB PUSH0 DUP4 ADD MSTORE PUSH2 0x1457 DUP2 PUSH2 0x141E JUMP JUMPDEST SWAP1 POP SWAP2 SWAP1 POP JUMP JUMPDEST PUSH32 0x4F6E6C79207468652063757272656E74206F776E65722073656C6C2E00000000 PUSH0 DUP3 ADD MSTORE POP JUMP JUMPDEST PUSH0 PUSH2 0x1492 PUSH1 0x1C DUP4 PUSH2 0x105A JUMP JUMPDEST SWAP2 POP PUSH2 0x149D DUP3 PUSH2 0x145E JUMP JUMPDEST PUSH1 0x20 DUP3 ADD SWAP1 POP SWAP2 SWAP1 POP JUMP JUMPDEST PUSH0 PUSH1 0x20 DUP3 ADD SWAP1 POP DUP2 DUP2 SUB PUSH0 DUP4 ADD MSTORE PUSH2 0x14BF DUP2 PUSH2 0x1486 JUMP JUMPDEST SWAP1 POP SWAP2 SWAP1 POP JUMP JUMPDEST PUSH32 0x4E6F2066756E647320746F20726566756E640000000000000000000000000000 PUSH0 DUP3 ADD MSTORE POP JUMP JUMPDEST PUSH0 PUSH2 0x14FA PUSH1 0x12 DUP4 PUSH2 0x105A JUMP JUMPDEST SWAP2 POP PUSH2 0x1505 DUP3 PUSH2 0x14C6 JUMP JUMPDEST PUSH1 0x20 DUP3 ADD SWAP1 POP SWAP2 SWAP1 POP JUMP JUMPDEST PUSH0 PUSH1 0x20 DUP3 ADD SWAP1 POP DUP2 DUP2 SUB PUSH0 DUP4 ADD MSTORE PUSH2 0x1527 DUP2 PUSH2 0x14EE JUMP JUMPDEST SWAP1 POP SWAP2 SWAP1 POP JUMP JUMPDEST PUSH32 0x4275796572206973207374696C6C20696E74657265737465642E000000000000 PUSH0 DUP3 ADD MSTORE POP JUMP JUMPDEST PUSH0 PUSH2 0x1562 PUSH1 0x1A DUP4 PUSH2 0x105A JUMP JUMPDEST SWAP2 POP PUSH2 0x156D DUP3 PUSH2 0x152E JUMP JUMPDEST PUSH1 0x20 DUP3 ADD SWAP1 POP SWAP2 SWAP1 POP JUMP JUMPDEST PUSH0 PUSH1 0x20 DUP3 ADD SWAP1 POP DUP2 DUP2 SUB PUSH0 DUP4 ADD MSTORE PUSH2 0x158F DUP2 PUSH2 0x1556 JUMP JUMPDEST SWAP1 POP SWAP2 SWAP1 POP JUMP INVALID LOG2 PUSH5 0x6970667358 0x22 SLT KECCAK256 CODESIZE 0xA8 EXTDELEGATECALL PUSH30 0xE851AF76783BB8E74CA5B3FBBC8EE3232685C7AA82DCFB6A9024987E6473 PUSH16 0x6C634300081E00330000000000000000 "
				},
				"gasEstimates": {
					"creation": {
						"codeDepositCost": "1116000",
						"executionCost": "infinite",
						"totalCost": "infinite"
					},
					"external": {
						"arbiter()": "2596",
						"buyTheContractFor0_003ETH()": "infinite",
						"buyer()": "2597",
						"getBalance()": "358",
						"interest()": "2584",
						"isFunded()": "2489",
						"isReleased()": "2583",
						"noLongerInterested()": "26716",
						"owner()": "2623",
						"prevOwner()": "2530",
						"price()": "2470",
						"refundBuyer()": "infinite",
						"releaseFunds()": "infinite",
						"sellEscrowContract()": "59675",
						"setPrice(uint256)": "24755",
						"stillInterested()": "26673"
					}
				},
				"methodIdentifiers": {
					"arbiter()": "fe25e00a",
					"buyTheContractFor0_003ETH()": "2c23f7f8",
					"buyer()": "7150d8ae",
					"getBalance()": "12065fe0",
					"interest()": "c392f766",
					"isFunded()": "7c654303",
					"isReleased()": "fa2a8997",
					"noLongerInterested()": "9086e838",
					"owner()": "8da5cb5b",
					"prevOwner()": "dffe7bbc",
					"price()": "a035b1fe",
					"refundBuyer()": "e8a61cc8",
					"releaseFunds()": "69d89575",
					"sellEscrowContract()": "de7c62a8",
					"setPrice(uint256)": "91b7f5ed",
					"stillInterested()": "7cce2668"
				}
			},
			"storageLayout": {
				"storage": [
					{
						"astId": 3,
						"contract": "Assignments/week 4/lct 2/contracts/Escrow.sol:Escrow",
						"label": "buyer",
						"offset": 0,
						"slot": "0",
						"type": "t_address"
					},
					{
						"astId": 5,
						"contract": "Assignments/week 4/lct 2/contracts/Escrow.sol:Escrow",
						"label": "arbiter",
						"offset": 0,
						"slot": "1",
						"type": "t_address"
					},
					{
						"astId": 7,
						"contract": "Assignments/week 4/lct 2/contracts/Escrow.sol:Escrow",
						"label": "price",
						"offset": 0,
						"slot": "2",
						"type": "t_uint256"
					},
					{
						"astId": 9,
						"contract": "Assignments/week 4/lct 2/contracts/Escrow.sol:Escrow",
						"label": "isFunded",
						"offset": 0,
						"slot": "3",
						"type": "t_bool"
					},
					{
						"astId": 11,
						"contract": "Assignments/week 4/lct 2/contracts/Escrow.sol:Escrow",
						"label": "isReleased",
						"offset": 1,
						"slot": "3",
						"type": "t_bool"
					},
					{
						"astId": 13,
						"contract": "Assignments/week 4/lct 2/contracts/Escrow.sol:Escrow",
						"label": "interest",
						"offset": 2,
						"slot": "3",
						"type": "t_bool"
					},
					{
						"astId": 15,
						"contract": "Assignments/week 4/lct 2/contracts/Escrow.sol:Escrow",
						"label": "owner",
						"offset": 3,
						"slot": "3",
						"type": "t_address"
					},
					{
						"astId": 17,
						"contract": "Assignments/week 4/lct 2/contracts/Escrow.sol:Escrow",
						"label": "prevOwner",
						"offset": 0,
						"slot": "4",
						"type": "t_address"
					}
				],
				"types": {
					"t_address": {
						"encoding": "inplace",
						"label": "address",
						"numberOfBytes": "20"
					},
					"t_bool": {
						"encoding": "inplace",
						"label": "bool",
						"numberOfBytes": "1"
					},
					"t_uint256": {
						"encoding": "inplace",
						"label": "uint256",
						"numberOfBytes": "32"
					}
				}
			},
			"userdoc": {
				"kind": "user",
				"methods": {},
				"version": 1
			}
		}
	}
}