{
	"Assignments/week 4/lect 1/EtherVaultInteraction/destroyEtherVault.sol": {
		"SelfDestruct_byMazi": {
			"abi": [
				{
					"inputs": [],
					"stateMutability": "nonpayable",
					"type": "constructor"
				},
				{
					"inputs": [
						{
							"internalType": "address",
							"name": "EtherVaultAddress",
							"type": "address"
						}
					],
					"name": "destroyEtherVault",
					"outputs": [],
					"stateMutability": "payable",
					"type": "function"
				},
				{
					"inputs": [],
					"name": "owner",
					"outputs": [
						{
							"internalType": "address payable",
							"name": "",
							"type": "address"
						}
					],
					"stateMutability": "view",
					"type": "function"
				}
			],
			"devdoc": {
				"kind": "dev",
				"methods": {},
				"version": 1
			},
			"evm": {
				"assembly": "    /* \"Assignments/week 4/lect 1/EtherVaultInteraction/destroyEtherVault.sol\":61:481  contract SelfDestruct_byMazi {... */\n  mstore(0x40, 0x80)\n    /* \"Assignments/week 4/lect 1/EtherVaultInteraction/destroyEtherVault.sol\":134:194  constructor() {... */\n  callvalue\n  dup1\n  iszero\n  tag_1\n  jumpi\n  revert(0x00, 0x00)\ntag_1:\n  pop\n    /* \"Assignments/week 4/lect 1/EtherVaultInteraction/destroyEtherVault.sol\":175:185  msg.sender */\n  caller\n    /* \"Assignments/week 4/lect 1/EtherVaultInteraction/destroyEtherVault.sol\":159:164  owner */\n  0x00\n  0x00\n    /* \"Assignments/week 4/lect 1/EtherVaultInteraction/destroyEtherVault.sol\":159:186  owner = payable(msg.sender) */\n  0x0100\n  exp\n  dup2\n  sload\n  dup2\n  0xffffffffffffffffffffffffffffffffffffffff\n  mul\n  not\n  and\n  swap1\n  dup4\n  0xffffffffffffffffffffffffffffffffffffffff\n  and\n  mul\n  or\n  swap1\n  sstore\n  pop\n    /* \"Assignments/week 4/lect 1/EtherVaultInteraction/destroyEtherVault.sol\":61:481  contract SelfDestruct_byMazi {... */\n  dataSize(sub_0)\n  dup1\n  dataOffset(sub_0)\n  0x00\n  codecopy\n  0x00\n  return\nstop\n\nsub_0: assembly {\n        /* \"Assignments/week 4/lect 1/EtherVaultInteraction/destroyEtherVault.sol\":61:481  contract SelfDestruct_byMazi {... */\n      mstore(0x40, 0x80)\n      jumpi(tag_1, lt(calldatasize, 0x04))\n      shr(0xe0, calldataload(0x00))\n      dup1\n      0x2015a280\n      eq\n      tag_2\n      jumpi\n      dup1\n      0x8da5cb5b\n      eq\n      tag_3\n      jumpi\n    tag_1:\n      revert(0x00, 0x00)\n        /* \"Assignments/week 4/lect 1/EtherVaultInteraction/destroyEtherVault.sol\":202:478  function destroyEtherVault(address EtherVaultAddress) payable external {... */\n    tag_2:\n      tag_4\n      0x04\n      dup1\n      calldatasize\n      sub\n      dup2\n      add\n      swap1\n      tag_5\n      swap2\n      swap1\n      tag_6\n      jump\t// in\n    tag_5:\n      tag_7\n      jump\t// in\n    tag_4:\n      stop\n        /* \"Assignments/week 4/lect 1/EtherVaultInteraction/destroyEtherVault.sol\":97:125  address payable public owner */\n    tag_3:\n      callvalue\n      dup1\n      iszero\n      tag_8\n      jumpi\n      revert(0x00, 0x00)\n    tag_8:\n      pop\n      tag_9\n      tag_10\n      jump\t// in\n    tag_9:\n      mload(0x40)\n      tag_11\n      swap2\n      swap1\n      tag_12\n      jump\t// in\n    tag_11:\n      mload(0x40)\n      dup1\n      swap2\n      sub\n      swap1\n      return\n        /* \"Assignments/week 4/lect 1/EtherVaultInteraction/destroyEtherVault.sol\":202:478  function destroyEtherVault(address EtherVaultAddress) payable external {... */\n    tag_7:\n        /* \"Assignments/week 4/lect 1/EtherVaultInteraction/destroyEtherVault.sol\":306:311  owner */\n      0x00\n      0x00\n      swap1\n      sload\n      swap1\n      0x0100\n      exp\n      swap1\n      div\n      0xffffffffffffffffffffffffffffffffffffffff\n      and\n        /* \"Assignments/week 4/lect 1/EtherVaultInteraction/destroyEtherVault.sol\":292:311  msg.sender == owner */\n      0xffffffffffffffffffffffffffffffffffffffff\n      and\n        /* \"Assignments/week 4/lect 1/EtherVaultInteraction/destroyEtherVault.sol\":292:302  msg.sender */\n      caller\n        /* \"Assignments/week 4/lect 1/EtherVaultInteraction/destroyEtherVault.sol\":292:311  msg.sender == owner */\n      0xffffffffffffffffffffffffffffffffffffffff\n      and\n      eq\n        /* \"Assignments/week 4/lect 1/EtherVaultInteraction/destroyEtherVault.sol\":284:330  require(msg.sender == owner, \"Not authorized\") */\n      tag_14\n      jumpi\n      mload(0x40)\n      0x08c379a000000000000000000000000000000000000000000000000000000000\n      dup2\n      mstore\n      0x04\n      add\n      tag_15\n      swap1\n      tag_16\n      jump\t// in\n    tag_15:\n      mload(0x40)\n      dup1\n      swap2\n      sub\n      swap1\n      revert\n    tag_14:\n        /* \"Assignments/week 4/lect 1/EtherVaultInteraction/destroyEtherVault.sol\":362:382  5000000000000000 wei */\n      0x11c37937e08000\n        /* \"Assignments/week 4/lect 1/EtherVaultInteraction/destroyEtherVault.sol\":349:358  msg.value */\n      callvalue\n        /* \"Assignments/week 4/lect 1/EtherVaultInteraction/destroyEtherVault.sol\":349:382  msg.value == 5000000000000000 wei */\n      eq\n        /* \"Assignments/week 4/lect 1/EtherVaultInteraction/destroyEtherVault.sol\":341:417  require(msg.value == 5000000000000000 wei, \"Must send exactly 0.0005 ether\") */\n      tag_17\n      jumpi\n      mload(0x40)\n      0x08c379a000000000000000000000000000000000000000000000000000000000\n      dup2\n      mstore\n      0x04\n      add\n      tag_18\n      swap1\n      tag_19\n      jump\t// in\n    tag_18:\n      mload(0x40)\n      dup1\n      swap2\n      sub\n      swap1\n      revert\n    tag_17:\n        /* \"Assignments/week 4/lect 1/EtherVaultInteraction/destroyEtherVault.sol\":450:467  EtherVaultAddress */\n      dup1\n        /* \"Assignments/week 4/lect 1/EtherVaultInteraction/destroyEtherVault.sol\":428:470  selfdestruct((payable(EtherVaultAddress))) */\n      0xffffffffffffffffffffffffffffffffffffffff\n      and\n      selfdestruct\n        /* \"Assignments/week 4/lect 1/EtherVaultInteraction/destroyEtherVault.sol\":97:125  address payable public owner */\n    tag_10:\n      0x00\n      0x00\n      swap1\n      sload\n      swap1\n      0x0100\n      exp\n      swap1\n      div\n      0xffffffffffffffffffffffffffffffffffffffff\n      and\n      dup2\n      jump\t// out\n        /* \"#utility.yul\":88:205   */\n    tag_21:\n        /* \"#utility.yul\":197:198   */\n      0x00\n        /* \"#utility.yul\":194:195   */\n      0x00\n        /* \"#utility.yul\":187:199   */\n      revert\n        /* \"#utility.yul\":334:460   */\n    tag_23:\n        /* \"#utility.yul\":371:378   */\n      0x00\n        /* \"#utility.yul\":411:453   */\n      0xffffffffffffffffffffffffffffffffffffffff\n        /* \"#utility.yul\":404:409   */\n      dup3\n        /* \"#utility.yul\":400:454   */\n      and\n        /* \"#utility.yul\":389:454   */\n      swap1\n      pop\n        /* \"#utility.yul\":334:460   */\n      swap2\n      swap1\n      pop\n      jump\t// out\n        /* \"#utility.yul\":466:562   */\n    tag_24:\n        /* \"#utility.yul\":503:510   */\n      0x00\n        /* \"#utility.yul\":532:556   */\n      tag_40\n        /* \"#utility.yul\":550:555   */\n      dup3\n        /* \"#utility.yul\":532:556   */\n      tag_23\n      jump\t// in\n    tag_40:\n        /* \"#utility.yul\":521:556   */\n      swap1\n      pop\n        /* \"#utility.yul\":466:562   */\n      swap2\n      swap1\n      pop\n      jump\t// out\n        /* \"#utility.yul\":568:690   */\n    tag_25:\n        /* \"#utility.yul\":641:665   */\n      tag_42\n        /* \"#utility.yul\":659:664   */\n      dup2\n        /* \"#utility.yul\":641:665   */\n      tag_24\n      jump\t// in\n    tag_42:\n        /* \"#utility.yul\":634:639   */\n      dup2\n        /* \"#utility.yul\":631:666   */\n      eq\n        /* \"#utility.yul\":621:684   */\n      tag_43\n      jumpi\n        /* \"#utility.yul\":680:681   */\n      0x00\n        /* \"#utility.yul\":677:678   */\n      0x00\n        /* \"#utility.yul\":670:682   */\n      revert\n        /* \"#utility.yul\":621:684   */\n    tag_43:\n        /* \"#utility.yul\":568:690   */\n      pop\n      jump\t// out\n        /* \"#utility.yul\":696:835   */\n    tag_26:\n        /* \"#utility.yul\":742:747   */\n      0x00\n        /* \"#utility.yul\":780:786   */\n      dup2\n        /* \"#utility.yul\":767:787   */\n      calldataload\n        /* \"#utility.yul\":758:787   */\n      swap1\n      pop\n        /* \"#utility.yul\":796:829   */\n      tag_45\n        /* \"#utility.yul\":823:828   */\n      dup2\n        /* \"#utility.yul\":796:829   */\n      tag_25\n      jump\t// in\n    tag_45:\n        /* \"#utility.yul\":696:835   */\n      swap3\n      swap2\n      pop\n      pop\n      jump\t// out\n        /* \"#utility.yul\":841:1170   */\n    tag_6:\n        /* \"#utility.yul\":900:906   */\n      0x00\n        /* \"#utility.yul\":949:951   */\n      0x20\n        /* \"#utility.yul\":937:946   */\n      dup3\n        /* \"#utility.yul\":928:935   */\n      dup5\n        /* \"#utility.yul\":924:947   */\n      sub\n        /* \"#utility.yul\":920:952   */\n      slt\n        /* \"#utility.yul\":917:1036   */\n      iszero\n      tag_47\n      jumpi\n        /* \"#utility.yul\":955:1034   */\n      tag_48\n      tag_21\n      jump\t// in\n    tag_48:\n        /* \"#utility.yul\":917:1036   */\n    tag_47:\n        /* \"#utility.yul\":1075:1076   */\n      0x00\n        /* \"#utility.yul\":1100:1153   */\n      tag_49\n        /* \"#utility.yul\":1145:1152   */\n      dup5\n        /* \"#utility.yul\":1136:1142   */\n      dup3\n        /* \"#utility.yul\":1125:1134   */\n      dup6\n        /* \"#utility.yul\":1121:1143   */\n      add\n        /* \"#utility.yul\":1100:1153   */\n      tag_26\n      jump\t// in\n    tag_49:\n        /* \"#utility.yul\":1090:1153   */\n      swap2\n      pop\n        /* \"#utility.yul\":1046:1163   */\n      pop\n        /* \"#utility.yul\":841:1170   */\n      swap3\n      swap2\n      pop\n      pop\n      jump\t// out\n        /* \"#utility.yul\":1176:1280   */\n    tag_27:\n        /* \"#utility.yul\":1221:1228   */\n      0x00\n        /* \"#utility.yul\":1250:1274   */\n      tag_51\n        /* \"#utility.yul\":1268:1273   */\n      dup3\n        /* \"#utility.yul\":1250:1274   */\n      tag_23\n      jump\t// in\n    tag_51:\n        /* \"#utility.yul\":1239:1274   */\n      swap1\n      pop\n        /* \"#utility.yul\":1176:1280   */\n      swap2\n      swap1\n      pop\n      jump\t// out\n        /* \"#utility.yul\":1286:1428   */\n    tag_28:\n        /* \"#utility.yul\":1389:1421   */\n      tag_53\n        /* \"#utility.yul\":1415:1420   */\n      dup2\n        /* \"#utility.yul\":1389:1421   */\n      tag_27\n      jump\t// in\n    tag_53:\n        /* \"#utility.yul\":1384:1387   */\n      dup3\n        /* \"#utility.yul\":1377:1422   */\n      mstore\n        /* \"#utility.yul\":1286:1428   */\n      pop\n      pop\n      jump\t// out\n        /* \"#utility.yul\":1434:1688   */\n    tag_12:\n        /* \"#utility.yul\":1543:1547   */\n      0x00\n        /* \"#utility.yul\":1581:1583   */\n      0x20\n        /* \"#utility.yul\":1570:1579   */\n      dup3\n        /* \"#utility.yul\":1566:1584   */\n      add\n        /* \"#utility.yul\":1558:1584   */\n      swap1\n      pop\n        /* \"#utility.yul\":1594:1681   */\n      tag_55\n        /* \"#utility.yul\":1678:1679   */\n      0x00\n        /* \"#utility.yul\":1667:1676   */\n      dup4\n        /* \"#utility.yul\":1663:1680   */\n      add\n        /* \"#utility.yul\":1654:1660   */\n      dup5\n        /* \"#utility.yul\":1594:1681   */\n      tag_28\n      jump\t// in\n    tag_55:\n        /* \"#utility.yul\":1434:1688   */\n      swap3\n      swap2\n      pop\n      pop\n      jump\t// out\n        /* \"#utility.yul\":1694:1863   */\n    tag_29:\n        /* \"#utility.yul\":1778:1789   */\n      0x00\n        /* \"#utility.yul\":1812:1818   */\n      dup3\n        /* \"#utility.yul\":1807:1810   */\n      dup3\n        /* \"#utility.yul\":1800:1819   */\n      mstore\n        /* \"#utility.yul\":1852:1856   */\n      0x20\n        /* \"#utility.yul\":1847:1850   */\n      dup3\n        /* \"#utility.yul\":1843:1857   */\n      add\n        /* \"#utility.yul\":1828:1857   */\n      swap1\n      pop\n        /* \"#utility.yul\":1694:1863   */\n      swap3\n      swap2\n      pop\n      pop\n      jump\t// out\n        /* \"#utility.yul\":1869:2033   */\n    tag_30:\n        /* \"#utility.yul\":2009:2025   */\n      0x4e6f7420617574686f72697a6564000000000000000000000000000000000000\n        /* \"#utility.yul\":2005:2006   */\n      0x00\n        /* \"#utility.yul\":1997:2003   */\n      dup3\n        /* \"#utility.yul\":1993:2007   */\n      add\n        /* \"#utility.yul\":1986:2026   */\n      mstore\n        /* \"#utility.yul\":1869:2033   */\n      pop\n      jump\t// out\n        /* \"#utility.yul\":2039:2405   */\n    tag_31:\n        /* \"#utility.yul\":2181:2184   */\n      0x00\n        /* \"#utility.yul\":2202:2269   */\n      tag_59\n        /* \"#utility.yul\":2266:2268   */\n      0x0e\n        /* \"#utility.yul\":2261:2264   */\n      dup4\n        /* \"#utility.yul\":2202:2269   */\n      tag_29\n      jump\t// in\n    tag_59:\n        /* \"#utility.yul\":2195:2269   */\n      swap2\n      pop\n        /* \"#utility.yul\":2278:2371   */\n      tag_60\n        /* \"#utility.yul\":2367:2370   */\n      dup3\n        /* \"#utility.yul\":2278:2371   */\n      tag_30\n      jump\t// in\n    tag_60:\n        /* \"#utility.yul\":2396:2398   */\n      0x20\n        /* \"#utility.yul\":2391:2394   */\n      dup3\n        /* \"#utility.yul\":2387:2399   */\n      add\n        /* \"#utility.yul\":2380:2399   */\n      swap1\n      pop\n        /* \"#utility.yul\":2039:2405   */\n      swap2\n      swap1\n      pop\n      jump\t// out\n        /* \"#utility.yul\":2411:2830   */\n    tag_16:\n        /* \"#utility.yul\":2577:2581   */\n      0x00\n        /* \"#utility.yul\":2615:2617   */\n      0x20\n        /* \"#utility.yul\":2604:2613   */\n      dup3\n        /* \"#utility.yul\":2600:2618   */\n      add\n        /* \"#utility.yul\":2592:2618   */\n      swap1\n      pop\n        /* \"#utility.yul\":2664:2673   */\n      dup2\n        /* \"#utility.yul\":2658:2662   */\n      dup2\n        /* \"#utility.yul\":2654:2674   */\n      sub\n        /* \"#utility.yul\":2650:2651   */\n      0x00\n        /* \"#utility.yul\":2639:2648   */\n      dup4\n        /* \"#utility.yul\":2635:2652   */\n      add\n        /* \"#utility.yul\":2628:2675   */\n      mstore\n        /* \"#utility.yul\":2692:2823   */\n      tag_62\n        /* \"#utility.yul\":2818:2822   */\n      dup2\n        /* \"#utility.yul\":2692:2823   */\n      tag_31\n      jump\t// in\n    tag_62:\n        /* \"#utility.yul\":2684:2823   */\n      swap1\n      pop\n        /* \"#utility.yul\":2411:2830   */\n      swap2\n      swap1\n      pop\n      jump\t// out\n        /* \"#utility.yul\":2836:3016   */\n    tag_32:\n        /* \"#utility.yul\":2976:3008   */\n      0x4d7573742073656e642065786163746c7920302e303030352065746865720000\n        /* \"#utility.yul\":2972:2973   */\n      0x00\n        /* \"#utility.yul\":2964:2970   */\n      dup3\n        /* \"#utility.yul\":2960:2974   */\n      add\n        /* \"#utility.yul\":2953:3009   */\n      mstore\n        /* \"#utility.yul\":2836:3016   */\n      pop\n      jump\t// out\n        /* \"#utility.yul\":3022:3388   */\n    tag_33:\n        /* \"#utility.yul\":3164:3167   */\n      0x00\n        /* \"#utility.yul\":3185:3252   */\n      tag_65\n        /* \"#utility.yul\":3249:3251   */\n      0x1e\n        /* \"#utility.yul\":3244:3247   */\n      dup4\n        /* \"#utility.yul\":3185:3252   */\n      tag_29\n      jump\t// in\n    tag_65:\n        /* \"#utility.yul\":3178:3252   */\n      swap2\n      pop\n        /* \"#utility.yul\":3261:3354   */\n      tag_66\n        /* \"#utility.yul\":3350:3353   */\n      dup3\n        /* \"#utility.yul\":3261:3354   */\n      tag_32\n      jump\t// in\n    tag_66:\n        /* \"#utility.yul\":3379:3381   */\n      0x20\n        /* \"#utility.yul\":3374:3377   */\n      dup3\n        /* \"#utility.yul\":3370:3382   */\n      add\n        /* \"#utility.yul\":3363:3382   */\n      swap1\n      pop\n        /* \"#utility.yul\":3022:3388   */\n      swap2\n      swap1\n      pop\n      jump\t// out\n        /* \"#utility.yul\":3394:3813   */\n    tag_19:\n        /* \"#utility.yul\":3560:3564   */\n      0x00\n        /* \"#utility.yul\":3598:3600   */\n      0x20\n        /* \"#utility.yul\":3587:3596   */\n      dup3\n        /* \"#utility.yul\":3583:3601   */\n      add\n        /* \"#utility.yul\":3575:3601   */\n      swap1\n      pop\n        /* \"#utility.yul\":3647:3656   */\n      dup2\n        /* \"#utility.yul\":3641:3645   */\n      dup2\n        /* \"#utility.yul\":3637:3657   */\n      sub\n        /* \"#utility.yul\":3633:3634   */\n      0x00\n        /* \"#utility.yul\":3622:3631   */\n      dup4\n        /* \"#utility.yul\":3618:3635   */\n      add\n        /* \"#utility.yul\":3611:3658   */\n      mstore\n        /* \"#utility.yul\":3675:3806   */\n      tag_68\n        /* \"#utility.yul\":3801:3805   */\n      dup2\n        /* \"#utility.yul\":3675:3806   */\n      tag_33\n      jump\t// in\n    tag_68:\n        /* \"#utility.yul\":3667:3806   */\n      swap1\n      pop\n        /* \"#utility.yul\":3394:3813   */\n      swap2\n      swap1\n      pop\n      jump\t// out\n\n    auxdata: 0xa264697066735822122050c7dddda1dd1a5cfd91aba18b1261edad4f9621dd8bb501f57a0bd883e2e8f964736f6c634300081c0033\n}\n",
				"bytecode": {
					"linkReferences": {},
					"object": "6080604052348015600e575f5ffd5b50335f5f6101000a81548173ffffffffffffffffffffffffffffffffffffffff021916908373ffffffffffffffffffffffffffffffffffffffff16021790555061035e8061005b5f395ff3fe608060405260043610610028575f3560e01c80632015a2801461002c5780638da5cb5b14610048575b5f5ffd5b610046600480360381019061004191906101e4565b610072565b005b348015610053575f5ffd5b5061005c610162565b604051610069919061022f565b60405180910390f35b5f5f9054906101000a900473ffffffffffffffffffffffffffffffffffffffff1673ffffffffffffffffffffffffffffffffffffffff163373ffffffffffffffffffffffffffffffffffffffff1614610100576040517f08c379a00000000000000000000000000000000000000000000000000000000081526004016100f7906102a2565b60405180910390fd5b6611c37937e080003414610149576040517f08c379a00000000000000000000000000000000000000000000000000000000081526004016101409061030a565b60405180910390fd5b8073ffffffffffffffffffffffffffffffffffffffff16ff5b5f5f9054906101000a900473ffffffffffffffffffffffffffffffffffffffff1681565b5f5ffd5b5f73ffffffffffffffffffffffffffffffffffffffff82169050919050565b5f6101b38261018a565b9050919050565b6101c3816101a9565b81146101cd575f5ffd5b50565b5f813590506101de816101ba565b92915050565b5f602082840312156101f9576101f8610186565b5b5f610206848285016101d0565b91505092915050565b5f6102198261018a565b9050919050565b6102298161020f565b82525050565b5f6020820190506102425f830184610220565b92915050565b5f82825260208201905092915050565b7f4e6f7420617574686f72697a65640000000000000000000000000000000000005f82015250565b5f61028c600e83610248565b915061029782610258565b602082019050919050565b5f6020820190508181035f8301526102b981610280565b9050919050565b7f4d7573742073656e642065786163746c7920302e3030303520657468657200005f82015250565b5f6102f4601e83610248565b91506102ff826102c0565b602082019050919050565b5f6020820190508181035f830152610321816102e8565b905091905056fea264697066735822122050c7dddda1dd1a5cfd91aba18b1261edad4f9621dd8bb501f57a0bd883e2e8f964736f6c634300081c0033",
					"opcodes": "PUSH1 0x80 PUSH1 0x40 MSTORE CALLVALUE DUP1 ISZERO PUSH1 0xE JUMPI PUSH0 PUSH0 REVERT JUMPDEST POP CALLER PUSH0 PUSH0 PUSH2 0x100 EXP DUP2 SLOAD DUP2 PUSH20 0xFFFFFFFFFFFFFFFFFFFFFFFFFFFFFFFFFFFFFFFF MUL NOT AND SWAP1 DUP4 PUSH20 0xFFFFFFFFFFFFFFFFFFFFFFFFFFFFFFFFFFFFFFFF AND MUL OR SWAP1 SSTORE POP PUSH2 0x35E DUP1 PUSH2 0x5B PUSH0 CODECOPY PUSH0 RETURN INVALID PUSH1 0x80 PUSH1 0x40 MSTORE PUSH1 0x4 CALLDATASIZE LT PUSH2 0x28 JUMPI PUSH0 CALLDATALOAD PUSH1 0xE0 SHR DUP1 PUSH4 0x2015A280 EQ PUSH2 0x2C JUMPI DUP1 PUSH4 0x8DA5CB5B EQ PUSH2 0x48 JUMPI JUMPDEST PUSH0 PUSH0 REVERT JUMPDEST PUSH2 0x46 PUSH1 0x4 DUP1 CALLDATASIZE SUB DUP2 ADD SWAP1 PUSH2 0x41 SWAP2 SWAP1 PUSH2 0x1E4 JUMP JUMPDEST PUSH2 0x72 JUMP JUMPDEST STOP JUMPDEST CALLVALUE DUP1 ISZERO PUSH2 0x53 JUMPI PUSH0 PUSH0 REVERT JUMPDEST POP PUSH2 0x5C PUSH2 0x162 JUMP JUMPDEST PUSH1 0x40 MLOAD PUSH2 0x69 SWAP2 SWAP1 PUSH2 0x22F JUMP JUMPDEST PUSH1 0x40 MLOAD DUP1 SWAP2 SUB SWAP1 RETURN JUMPDEST PUSH0 PUSH0 SWAP1 SLOAD SWAP1 PUSH2 0x100 EXP SWAP1 DIV PUSH20 0xFFFFFFFFFFFFFFFFFFFFFFFFFFFFFFFFFFFFFFFF AND PUSH20 0xFFFFFFFFFFFFFFFFFFFFFFFFFFFFFFFFFFFFFFFF AND CALLER PUSH20 0xFFFFFFFFFFFFFFFFFFFFFFFFFFFFFFFFFFFFFFFF AND EQ PUSH2 0x100 JUMPI PUSH1 0x40 MLOAD PUSH32 0x8C379A000000000000000000000000000000000000000000000000000000000 DUP2 MSTORE PUSH1 0x4 ADD PUSH2 0xF7 SWAP1 PUSH2 0x2A2 JUMP JUMPDEST PUSH1 0x40 MLOAD DUP1 SWAP2 SUB SWAP1 REVERT JUMPDEST PUSH7 0x11C37937E08000 CALLVALUE EQ PUSH2 0x149 JUMPI PUSH1 0x40 MLOAD PUSH32 0x8C379A000000000000000000000000000000000000000000000000000000000 DUP2 MSTORE PUSH1 0x4 ADD PUSH2 0x140 SWAP1 PUSH2 0x30A JUMP JUMPDEST PUSH1 0x40 MLOAD DUP1 SWAP2 SUB SWAP1 REVERT JUMPDEST DUP1 PUSH20 0xFFFFFFFFFFFFFFFFFFFFFFFFFFFFFFFFFFFFFFFF AND SELFDESTRUCT JUMPDEST PUSH0 PUSH0 SWAP1 SLOAD SWAP1 PUSH2 0x100 EXP SWAP1 DIV PUSH20 0xFFFFFFFFFFFFFFFFFFFFFFFFFFFFFFFFFFFFFFFF AND DUP2 JUMP JUMPDEST PUSH0 PUSH0 REVERT JUMPDEST PUSH0 PUSH20 0xFFFFFFFFFFFFFFFFFFFFFFFFFFFFFFFFFFFFFFFF DUP3 AND SWAP1 POP SWAP2 SWAP1 POP JUMP JUMPDEST PUSH0 PUSH2 0x1B3 DUP3 PUSH2 0x18A JUMP JUMPDEST SWAP1 POP SWAP2 SWAP1 POP JUMP JUMPDEST PUSH2 0x1C3 DUP2 PUSH2 0x1A9 JUMP JUMPDEST DUP2 EQ PUSH2 0x1CD JUMPI PUSH0 PUSH0 REVERT JUMPDEST POP JUMP JUMPDEST PUSH0 DUP2 CALLDATALOAD SWAP1 POP PUSH2 0x1DE DUP2 PUSH2 0x1BA JUMP JUMPDEST SWAP3 SWAP2 POP POP JUMP JUMPDEST PUSH0 PUSH1 0x20 DUP3 DUP5 SUB SLT ISZERO PUSH2 0x1F9 JUMPI PUSH2 0x1F8 PUSH2 0x186 JUMP JUMPDEST JUMPDEST PUSH0 PUSH2 0x206 DUP5 DUP3 DUP6 ADD PUSH2 0x1D0 JUMP JUMPDEST SWAP2 POP POP SWAP3 SWAP2 POP POP JUMP JUMPDEST PUSH0 PUSH2 0x219 DUP3 PUSH2 0x18A JUMP JUMPDEST SWAP1 POP SWAP2 SWAP1 POP JUMP JUMPDEST PUSH2 0x229 DUP2 PUSH2 0x20F JUMP JUMPDEST DUP3 MSTORE POP POP JUMP JUMPDEST PUSH0 PUSH1 0x20 DUP3 ADD SWAP1 POP PUSH2 0x242 PUSH0 DUP4 ADD DUP5 PUSH2 0x220 JUMP JUMPDEST SWAP3 SWAP2 POP POP JUMP JUMPDEST PUSH0 DUP3 DUP3 MSTORE PUSH1 0x20 DUP3 ADD SWAP1 POP SWAP3 SWAP2 POP POP JUMP JUMPDEST PUSH32 0x4E6F7420617574686F72697A6564000000000000000000000000000000000000 PUSH0 DUP3 ADD MSTORE POP JUMP JUMPDEST PUSH0 PUSH2 0x28C PUSH1 0xE DUP4 PUSH2 0x248 JUMP JUMPDEST SWAP2 POP PUSH2 0x297 DUP3 PUSH2 0x258 JUMP JUMPDEST PUSH1 0x20 DUP3 ADD SWAP1 POP SWAP2 SWAP1 POP JUMP JUMPDEST PUSH0 PUSH1 0x20 DUP3 ADD SWAP1 POP DUP2 DUP2 SUB PUSH0 DUP4 ADD MSTORE PUSH2 0x2B9 DUP2 PUSH2 0x280 JUMP JUMPDEST SWAP1 POP SWAP2 SWAP1 POP JUMP JUMPDEST PUSH32 0x4D7573742073656E642065786163746C7920302E303030352065746865720000 PUSH0 DUP3 ADD MSTORE POP JUMP JUMPDEST PUSH0 PUSH2 0x2F4 PUSH1 0x1E DUP4 PUSH2 0x248 JUMP JUMPDEST SWAP2 POP PUSH2 0x2FF DUP3 PUSH2 0x2C0 JUMP JUMPDEST PUSH1 0x20 DUP3 ADD SWAP1 POP SWAP2 SWAP1 POP JUMP JUMPDEST PUSH0 PUSH1 0x20 DUP3 ADD SWAP1 POP DUP2 DUP2 SUB PUSH0 DUP4 ADD MSTORE PUSH2 0x321 DUP2 PUSH2 0x2E8 JUMP JUMPDEST SWAP1 POP SWAP2 SWAP1 POP JUMP INVALID LOG2 PUSH5 0x6970667358 0x22 SLT KECCAK256 POP 0xC7 0xDD 0xDD LOG1 0xDD BYTE TLOAD REVERT SWAP2 0xAB LOG1 DUP12 SLT PUSH2 0xEDAD 0x4F SWAP7 0x21 0xDD DUP12 0xB5 ADD CREATE2 PUSH27 0xBD883E2E8F964736F6C634300081C003300000000000000000000 "
				},
				"gasEstimates": {
					"creation": {
						"codeDepositCost": "172400",
						"executionCost": "24476",
						"totalCost": "196876"
					},
					"external": {
						"destroyEtherVault(address)": "30191",
						"owner()": "2507"
					}
				},
				"methodIdentifiers": {
					"destroyEtherVault(address)": "2015a280",
					"owner()": "8da5cb5b"
				}
			},
			"storageLayout": {
				"storage": [
					{
						"astId": 3,
						"contract": "Assignments/week 4/lect 1/EtherVaultInteraction/destroyEtherVault.sol:SelfDestruct_byMazi",
						"label": "owner",
						"offset": 0,
						"slot": "0",
						"type": "t_address_payable"
					}
				],
				"types": {
					"t_address_payable": {
						"encoding": "inplace",
						"label": "address payable",
						"numberOfBytes": "20"
					}
				}
			},
			"userdoc": {
				"kind": "user",
				"methods": {},
				"version": 1
			}
		}
	}
}